:100000000C94A0090C94C8090C94C8090C94C80954
:100010000C94C8090C94C8090C94C8090C94C8091C
:100020000C94C8090C94C8090C94F2200C9461211A
:100030000C94C8090C94C8090C94C8090C94C809FC
:100040000C94C8090C94C8090C94C8090C94C809EC
:100050000C94C8090C94C8090C94C8090C949323F7
:100060000C94C8090C94C8090C94C8090C94C809CC
:100070000C94C8090C94C8090C94C8090C94C809BC
:100080000C94C8090C94C8090C94C8090C94C809AC
:100090000C94C8090C94C8090C94C8090C94C8099C
:1000A0000C94C8090C94C8090C94C80953414749D9
:1000B00054544152492E0053434F5250494F004C23
:1000C0004942524100564952474F004C454F004368
:1000D000414E4345520047454D494E490054415514
:1000E00052555300415249455300504953434553DB
:1000F00000415155415249555300434150524943E3
:100100004F524E004E4F4E45004F4D4E49004D59F7
:1001100053544943004E41545552450053594E548F
:1001200048004E554C4C005452494B55524E0053CA
:10013000515545414D41534B005343415244524167
:10014000005241565541434B00504F4C544552527A
:100150004F52005045475348495245004D41555272
:100160004F41480047524946454C494F530046418C
:1001700045464C554646004455414C445241004387
:10018000484956414D5045524100544552525550F0
:1001900054494F4E004E45435241574C4552004D35
:1001A000415948414D00444153484F554E44004346
:1001B0005249424249540043484C4F524F41520029
:1001C0004348414D50414E5A4F4E0042554E4E45C8
:1001D00052494E4100425542424C55450042454528
:1001E0005448524F4E450058454E415543455200E4
:1001F0005350594D45524100534C5547414D4D4187
:10020000004F55544C454354524943004F445249C2
:100210004F4E004D494352554E54004C554D494E9A
:1002200041540044524942425900424F4C544E45B9
:1002300054494300415544494F55534500564F4991
:100240004449534D414C0030000000C0E0F0F8FC40
:10025000FCFCFCF8F0E0C0000000000F1F3F3D3F39
:100260003D3F3F3D3F1D0F00000078E878003844D7
:10027000D404581494586080000000070810101E21
:100280002140482C20425A6D0000C0C0409E12F20E
:100290005AF41A9E40C0C00000000C0C0B04033F2F
:1002A000553F03040B0C0C0000000000F0086466CE
:1002B000868E846870C00000000006096856506091
:1002C00021226150516E09060000709020F82452DE
:1002D00022022254F820907000000C10170D054DDA
:1002E00035057D050D17100C0000000000C0201022
:1002F000981410A8C40000000000000E0D4364789C
:10030000080B7B64430D0E0000008040A050084A9B
:10031000848A4890A0C0000000000F102F50404079
:100320004845645425190E000000006090103844C0
:10033000FE829AC29A827C00000000003029652665
:1003400064283000000000000000000000000000F1
:10035000C0A0E000C0A0E00000003048444C424F84
:1003600046524A53524A54380000C020120A8A4A60
:100370002C2A2A4A9220C00000000F102040474833
:100380005053534827100F0000008040A07088246D
:10039000441444A870A04080000021321C446A39F3
:1003A0000909396A441C3221000030509030D0A035
:1003B000C03CB2307830FC02000001472D1B4D3AA2
:1003C0000D5A250904090700000018FC1C0844C642
:1003D000C66E1EBE9C68D0E00000060F1F2F464070
:1003E00040464D4A4A2D160F0000000000C03884D8
:1003F0003424B8F424380000000000141A3F5A3A9C
:100400001A3B5A3E1B1400000000000080D87C56A6
:100410004AD64A7CC0800000000006090D63567A67
:100420001A157A56630D090600002050A08000803E
:10043000601068088810A0C000000000010E112F95
:100440004044596E22665A6D0000E010084452A2E2
:10045000020202A45870C00000007D4256664C6C37
:100460002D256D4C6E465D60000060C00080808070
:10047000809CB448AC0CB0C0000078465168596A02
:1004800008794258685F61010000C030B0808CF28A
:10049000042868ACA86CF20C00001E214021202327
:1004A000264B2A2B4B3A070000000000E010C8C87A
:1004B000D82808C8D0E0000000000A05370C7119E0
:1004C000256C3C6D251F7000000000C060202010CE
:1004D00038C4B4A48498E0000000060910385456CB
:1004E000753750506F0506000000F00804324AA42A
:1004F000106018A4C23A04000000010224485061B0
:1005000045422519070000000000E0F008C4244619
:100510001C442CF61C4428F00000030D1224494210
:1005200042464942463A010000003844840488505B
:10053000203028946444B8000000060910100F1001
:100540002223202422130F000000DA3498402226B0
:10055000CA3204246890608000003D425169596AA3
:1005600009714254745F61010000C020C000F0A80E
:10057000A4AEB884B8A4FE0000003B4443526324F8
:1005800028494C2A2C49576000000080C0201010D8
:100590003048F40AA60A26F8000007087F413949C6
:1005A0007A0A794038497F00000000E01008C4E46E
:1005B000A2420244A4E8D0E000000C172072567654
:1005C0004C464C464C76563B0000800080C0647C14
:1005D000FEEEFE7EECE4C080000003070D1A3B5BDC
:1005E0004B1B3D5F4E0101030000C020102040F076
:1005F000A8F40A6E4A0C30C000001F080C12266CCA
:10060000404A5C73515F6D000000C00894E412C85A
:1006100068C808C872E414C8000000014835020424
:1006200009080E0805033548000000C0344A74402C
:10063000344A7440B44A340000000F102040424B4A
:1006400050504A23100F00000000C0E0F0F8FCFEFC
:10065000FEFEFEFCF8F0E0C000000F1F3F7F7F7F32
:100660007F7F7F7F7F3F1F0F0078FCFCFCF8FCFE44
:10067000FEFEFCFEFEFCF8E08000070F1F3F3F3F40
:100680007FFFFF7F7FFFFFFF6DC0E0E0FEFFFFFF0A
:10069000FFFEFFFFFEE0E0C0000C1F1F1F0F3F7FAB
:1006A000FF7F3F0F1F1F1F0C000000F0F8FCFEFF34
:1006B000FFFFFEFCF8F0C00000060F7FFFFFFFFF0A
:1006C0007F7FFFFFFFFF7F0F0670F8F8F8FCFEFF4B
:1006D000FFFFFFFEFCF8F8F8700C1E3F3F1F4FFFB6
:1006E0007F7FFF7F1F3F3F1E0C000000C0E0F0F83F
:1006F000FCFEFCFCEEC4000000000E1F5FFFFFFFCD
:100700007F7FFFFFFF5F1F0E0080C0E0F0F8FEFF5D
:10071000FEFFFEF8F0E0C000000F1F3F7FFFFFFF6D
:10072000FFFFFFFF7F3F1F0E000060F0F8F8FCFEA8
:10073000FFFFFFFFFFFFFE7C00000030797FFF7F9F
:10074000FF7D79310101000000000000000000C0C1
:10075000E0F0F0E0E0F0F0E0003078FCFEFEFFFFBB
:10076000FFFFFFFFFFFFFF7C38C0E0F2FFFFFFFF4E
:10077000FEFFFFFFFFF2E0C0000F1F3F7FFFFFFF04
:10078000FFFFFFFF7F3F1F0F0080C0E0F0F8FCFE7F
:10079000FEFEFEFCF8F0E0C08023777F7FFFFF7F46
:1007A0007F7F7FFFFF7F7F772330F8F8F8F8F8F03E
:1007B000FCFEFFFEFCFCFEFF020147EF7F7FFF7F98
:1007C0007FFF7F3F0F1F0F070018FCFEFEFCFEFFA0
:1007D000FFFFFFFFFEFCF8F0E0060F1F3F7FFFFF6B
:1007E000FFFFFFFFFF7F3F1F0F000000C0F8FCFE70
:1007F000FEFEFCFEFE7C38000000143E3F7FFF7FC3
:100800003F7FFF7F3F3F140000000080D8FCFEFFC9
:10081000FFFFFFFEFCC0800000060F1F7FFFFFFFF1
:100820007F7FFFFFFF7F1F0F062070F8F0E080E062
:10083000F0F8FCFCFCF8F0E0C00000010F1F3F7F67
:10084000FFFFFFFF7FFFFFFF6DE0F0F8FCFEFFFF03
:10085000FFFFFFFEFCF8F0C0007DFFFFFFFFFFFF82
:100860007F7FFFFFFFFFFFFD6060F0E0C0C0C0C002
:10087000DCFEFEFCFEFEFCF0C078FEFFFFFFFFFF8B
:100880007FFFFFFFFFFFFF6301C0F0F8F8FCFEFFF2
:10089000FEFCFCFEFCFEFFFE0C1E3F7FFF7F7F7F09
:1008A0007FFF7F7FFF7F3F07000000E0F0F8FCFC48
:1008B000FCFCFCFCF8F0E000000A1F3F7F7FFF7F9C
:1008C0007FFF7FFF7F7FFF700000C0E0F0F0F0F857
:1008D000FCFEFEFEFEFCF8E000060F1F3F7FFFFF60
:1008E000FF7FFFFFFF6F0F0600F0F8FCFEFFFFFE2B
:1008F000FCF8FCFEFFFF3E04000103277FFFFFFF23
:10090000FFFF7F3F1F07000000E0F0F8FCFEFEFF46
:10091000FEFEFEFFFEFEFCF8F0030F1F3F7FFFFF11
:10092000FFFFFFFFFF7F3B0100387CFEFEFEFCF86F
:10093000F0F8FCFEFEFEFCB800060F1F3F3F1F3F15
:100940007F7F7F7F7F3F1F0F00DAFFFEFCFEFFFFF0
:10095000FFFFFEFEFCF8F0E0803D7FFFFFFFFFFFA2
:100960007FFFFFFFFFFFFF6301C0E0F0E0F0F8FC56
:10097000FEFFFEFCFCFEFFFE003B7FFFFFFFFF7F54
:100980007FFFFF7F7FFFFFF7600080C0E0F0F8F897
:10099000F8FCFEFFFFFFFFFEF8070F7FFFFF7FFF62
:1009A000FF7FFFFF7FFFFF7F0000E0F0F8FCFEFE0F
:1009B000FFFFFFFEFEFCF8F0E00C1F3F7FFFFFFF94
:1009C000FFFFFFFFFFFFFF7F3B80C080C0E4FEFE14
:1009D000FFFFFFFFFEFEE4C08003070F1F3F7FFF06
:1009E000FF7F7FFFFF4F030703C0E0F0F8F0F0F850
:1009F000FCFEFFFFFFFEFCF0C01F3F1F1F3F7FFFFD
:100A0000FFFFFFFFFFFFFF6D00C0E8FCFEFEFFFEE3
:100A1000FCFCFCFEFFFEFEFCC800014BFF7F3F1FFD
:100A20001F1F1F1F1F3F7FFD4800C0F4FEFFFEFC7D
:100A3000FEFFFEFCFEFF7E34000F1F3F7FFFFFFF27
:100A4000FFFFFF7F3F1F0F000006030159090F063C
:100A5000002F00202000454E004552524F52002FDB
:100A6000005850004C56004552524F5200020505A6
:100A70000E050502000080C0A0A19F9F8F8984847D
:100A800084848C8C9494A4A4C4C48408081010207A
:100A90002040C080000101FF80B0B080FF80F88856
:100AA00088F880FF80B0B080FF81B1B1B181B1B171
:100AB000B181FF0101F80810083820202020203ED5
:100AC000223E203F213F081008F808100838202057
:100AD00038081008F8FF809B9B809B9B80F38BF865
:100AE0008BF3809B9B809B9B80FF809B9B809B9B31
:100AF000809B9B80FF806038444A2A2549492525F0
:100B00004949252549492525494925254949252A70
:100B10004A443860800102018242BE01922A91015A
:100B2000E212090912E201912A920181028201BEB8
:100B3000428201020120E01008840C144CA4120926
:100B400013A5491109850D15E52525A5252525267A
:100B5000A42428F02000FF809F909F80F08889FACD
:100B60008988F0809F909F80FF809F909F80809FCA
:100B7000909F80FF0038C8108F13CBBB000080808F
:100B8000800000B8C8108F13CBBB80000080B8C8AD
:100B9000108F13CB3B00FF809980FF8081F188F894
:100BA00088F18180FF809980FF809881819880FF03
:100BB000809980FF000098F4545434545474F860C1
:100BC000000039323F3F3F3F3F3D397600000C7A0D
:100BD000AAAA9AAAAABA7C30000002457F7F1F5FAA
:100BE0007D7C0700000018F454543454D474F86029
:100BF000000038303F3F3F3F3C3D3F70000088F8E9
:100C00002C5C2C5C2C2C9868000039323F313F3131
:100C1000333539760000047C96AE96AE96964C3409
:100C2000000002457F781F5A7D7C0700000008F80D
:100C30002C5C2C5CAC2C9868000038303F313F3382
:100C400034353F70000030E864246424C4048870A4
:100C50000000040A7F417F454A495E600000187425
:100C6000B292B29262824438000002057F407F4215
:100C7000454C5760000030E864246424C404887044
:100C80000000040A7F417F454A495E60000080FC05
:100C9000246464242404FC00000039323F21212113
:100CA000233539760000007E92B2B29292827E00A5
:100CB000000002457F701052757C0700000000FCA8
:100CC00024646424A404FC00000038303F21212364
:100CD00024353E700098FCFEFEFEFEFEFEFEFCF893
:100CE00060397F7F7F7F7F7F7F7F7FFF760C7EFFF6
:100CF000FFFFFFFFFFFFFE7C300247FFFFFF7FFF8C
:100D0000FFFF7F070018FCFEFEFEFEFEFEFEFCF865
:100D100060387C7F7F7F7F7F7F7F7FFF7088FCFCD8
:100D2000FEFEFEFEFEFEFCFC68397F7F7F7F7F7F3C
:100D30007F7F7FFF76047EFEFFFFFFFFFFFFFE7ECB
:100D4000340247FFFFFF7FFFFFFF7F070008FCFC27
:100D5000FEFEFEFEFEFEFCFC68387C7F7F7F7F7F10
:100D60007F7F7FFE7030F8FCFEFEFEFEFEFEFCF88C
:100D700070040E7FFFFFFFFFFFFFFFFE60187CFE89
:100D8000FFFFFFFFFFFFFE7C3802077FFFFFFFFF33
:100D9000FFFFFFF76030F8FCFEFEFEFEFEFEFCF8F3
:100DA00070040E7FFFFFFFFFFFFFFFFE6080FCFE71
:100DB000FEFEFEFEFEFEFEFC00397F7F7F7F7F7F12
:100DC0007F7F7FFF76007EFFFFFFFFFFFFFFFF7E3D
:100DD000000247FFFFFF7FFFFFFF7F070000FCFED1
:100DE000FEFEFEFEFEFEFEFC00387C7F7F7F7F7FE6
:100DF0007F7F7FFE70D5F08D14A1C881CFD9F1AF70
:100E0000200000B00000A170E150964F26900F1D09
:100E1000070C009669004AE44A0048444000806894
:100E200010000F99FB8F9DBDBBFB77D4D4DF1F1A39
:100E30001AFE7F5D5DFF805A0000A0A4AA0010BAD0
:100E40003400FF5953F3FF9B9B9EFFB9B996FF9562
:100E500095D19FF4940FFC295F91FF1838F8FF9209
:100E600094FFFF95D5F7BFB5DDD7F18F81F1F788F6
:100E7000C8F779C6467909FD9B090196F800828179
:100E80008280507162007756560076763700A2B79E
:100E9000730107720600782750007334740077518D
:100EA00076007F55F7004771100032477200736477
:100EB000730015A2750061679400009F6060F4F2F2
:100EC000F6F24552524F52000F0B0B093C08103CF2
:100ED000784848303C367F6F7F363C0041225D22A7
:100EE0005D221C0004085763750810002A55414113
:100EF00041221C003F7F4777005555001F21495D67
:100F000049211F000E11214221110E003B787B6008
:100F10006B683B00037D6D75757360003C7EE7C3B5
:100F2000C3E77E3CC3E77E3C3C7EE7C33000FC0465
:100F30005404FC80F0105010501050105010F080ED
:100F4000FF0155015501FF80FC045404FC808C52C4
:100F500091F191528C408C5291F191528C408C5273
:100F600091F191528C408C5291F191528C40804081
:100F70002030301018383C3C1810304884020103EF
:100F80000707060C1C0C8850E07070204080FFFFA3
:100F9000FEFEFFFFF0F0F8F8F8F0F0F8F8F8F0F0E7
:100FA000F8F8F8F0F0F8F8F8F0F0F8F8F8F0415246
:100FB00045204845414C454400594F555220504129
:100FC000574E5300594F5520474F5420414E20480B
:100FD0004552420053415645440028422953415648
:100FE00045002841295041574E530030204D45546B
:100FF0004552530030004C4149523A00494E4E2070
:101000003A004E4558542044455354494E415449A2
:101010004F4E0030204D4554455253003000444956
:101020005354414E43452054524156454C4544008B
:1010300052454C45415345002F3900484552422006
:10104000005445414D00330032003100534C4F54A1
:1010500000534C4F54005049434B002842294E4FF7
:10106000002841295945530052454C454153453FBD
:10107000004F5554205041574E5321004C45415686
:1010800045205749544800594F552043414E275455
:1010900000414354494F4E2100444F205448495386
:1010A00000594F552043414E27540000080C0E00B4
:1010B000000000000000000E0C080000103070005E
:1010C0000000000000000070301000181C1E1F1FE0
:1010D0000000000000001F1F1E1C18183878F8F8C8
:1010E000000000000000F8F8783818010307030139
:1010F00000000004060706040000002842294E4FA5
:1011000000284129594553004B454550205041572F
:101110004E3F002842294E4F00284129594553008F
:10112000524553544152543F004E45572B00434FB4
:101130004E54494E554500284229002841294E4524
:101140005700181818FFFF18181880E0781C867EC2
:101150003C0008C4E606068EFCF800F0F88C860613
:101160003E1C0000000000C0701C8EFE0008C4E69B
:1011700006068EFCF80000C0701C8EFE00F0F80021
:10118000000000FCFE00F0F818F8F000FCFE1F3F25
:10119000606060301C0E007F7F030F3F7140001EB7
:1011A0003F616060301C0E00707C1F0707037F7F6B
:1011B00000007F7F03030301707C1F0707037F7F0D
:1011C000003F7F60383C607F3F007F7F003F7F6053
:1011D0007F7FF0F88C86063E1C0000F0F818F8F0CF
:1011E00000FCFE0008C4E606060EFCF81E3F616027
:1011F00060301C0E007F7F003F7F607F7F00007F9C
:101200007F6060703F1F303018F8FC0C0606F0F865
:10121000000080C0FCFE00F0F88C86063E1C00003A
:1012200000007F7F0000007F7F060301007F7F00BA
:101230001E3F616060301C0E080B000202020000BD
:101240000904000001020200000524001001052429
:10125000010101042402060524060001070581039B
:1012600010004009040100020A0000000705020204
:101270004000000705830240000004030904120136
:101280000002EF0201404123368000010102030108
:1012900041726475696E6F204C4C430041726475F5
:1012A000696E6F204C656F6E6172646F000070989C
:1012B0003C1C7C1C7C38D090000076392D2F2F29C7
:1012C0002F2F32390000384C9E8EBE8EBE9C68088F
:1012D000000000077C655714677F45020000709886
:1012E0003C9C7C1C7C38D0100000703F2D2C2F299A
:1012F0002F2F30380070F8FCFEFEFEFEFEFCF8F8E2
:101300009076FF7F7F7F7F7F7F7F7F7F39387CFE76
:10131000FFFFFFFFFFFEFC7C0800077FFFFFFF7F52
:10132000FFFFFF470270F8FCFEFEFEFEFEFCF8F831
:101330001070FF7F7F7F7F7F7F7F7F7C380010244E
:1013400011241FBECFEFDAE0DEBFCDBF12E0A0E078
:10135000B1E0E4E6FEE602C005900D92AC39B107BB
:10136000D9F727E0ACE9B2E001C01D92AD3CB2076D
:10137000E1F719E0C0EAD9E004C02197FE010E941C
:101380001E37CF39D107C9F70E9448240C94303753
:101390000C940000E8EBF3E080E0A0E0B8E000800F
:1013A0000EBC8111012C1197A0FDFDCF0192B9F760
:1013B0000DB408954F925F926F927F928F929F9299
:1013C000AF92BF92CF92DF92EF92FF920F931F9353
:1013D000CF93DF93A22FB0E0EC01CA0FDB1F1C16E6
:1013E0001D060CF09DC0803891050CF099C060344A
:1013F00071050CF095C0162F1770E3E07595679591
:10140000EA95E1F7362FEE27FF27E81BF90B97FD4A
:1014100002C0F0E0E0E0C038D10514F020E8281B5D
:101420002E1B069506950695EB01C00FD11D299739
:1014300009F45EC05B01B694BA2CAA24B794A794B1
:10144000A80EB91EAE0EBF1EE40FF51FC22FD0E0CE
:10145000CC2061F0AE0141505109E40FF51FAD0100
:101460004C1B5D0B97FF47C0E41BF50B612E012E53
:10147000000C7708C50188549C4F5D01AC1ABD0A69
:101480002D014C0E5D1ED0E0C0E0C21708F03CC03C
:101490004491442341F150E0062C02C0440F551FF3
:1014A0000A94E2F737FD0AC04C018C0E9D1ED40150
:1014B000FC90EE2019F1F42AD401FC92112399F04A
:1014C00037308CF44E01B0E88B0E911C880E991EBB
:1014D000D401FC904F2D452BE11003C0452F4095C2
:1014E0004F21D4014C93CC2069F031972196CDCF78
:1014F00008E0061B9FCFE40FF51FB8CFD42ED09481
:10150000FD20DACF3196F2CF3F5FCC20D1F0E40D51
:10151000F51D80589F4F432F461B401708F4B3CF4B
:10152000DF91CF911F910F91FF90EF90DF90CF90BF
:10153000BF90AF909F908F907F906F905F904F90F3
:101540000895EA0DFB1DE5CF480F592F511D1416C4
:10155000150684F5803891056CF597FF02C090E080
:1015600080E04138510514F040E850E0481BFB0191
:10157000E770FF2721E001C0220FEA95EAF777FF25
:1015800002C0695F7F4FFB0133E0F595E7953A951F
:10159000E1F7F695FE2FEE27F795E795E80FF91F8F
:1015A000E854FC4F415030F08191DF011197822BBC
:1015B0008C93F8CF0895FC0180916603882311F184
:1015C0003FB7F89482E08093E9002091F200822FE7
:1015D00090E01816190614F481E090E0882339F0A1
:1015E000289844E6409365034091F100408322230C
:1015F00039F02091F200211103C02BE62093E8007E
:101600003FBF08958FEF9FEF08952FB7F89483E0C1
:101610008093E9009091E800892F807295FF04C0C3
:101620009091F20080E4891B2FBF089580915D03A3
:1016300081110DC082E08093590384E080935A03A6
:1016400010925C0310925B0381E080935D0389E557
:1016500093E00895CF93DF931F92CDB7DEB76983F0
:10166000DC01ED91FC910280F381E02D41E050E03E
:10167000BE016F5F7F4F09950F90DF91CF91089565
:1016800083E08093E9008091F200882319F08AE3D7
:101690008093E80008950E94050B90E00895CF9391
:1016A000DF931F92CDB7DEB7FC018485958597FD4A
:1016B00008C02FEF3FEF358724870F90DF91CF9140
:1016C0000895CE0101960E94DB0A019719F48981E1
:1016D00090E0F3CF8FEF9FEFF0CF0F931F93CF9357
:1016E000DF931F92CDB7DEB78C01FC018485958511
:1016F00097FF0BC0CE0101960E94DB0A019771F49F
:10170000898190E0F80195878487F8018485958523
:101710000F90DF91CF911F910F9108958FEF9FEF61
:10172000F1CFFC018485958597FD0BC09FB7F89498
:1017300082E08093E9008091F2009FBF90E00196E3
:1017400008959FB7F89482E08093E9008091F200B9
:101750009FBF90E00895409153035091540320910E
:1017600051033091520342175307B4F49091E800AB
:101770009570E1F39091E80092FD19C08093F1001B
:10178000809153039091540301968F739927892B6D
:1017900019F48EEF8093E8008091530390915403E5
:1017A0000196909354038093530381E0089580E061
:1017B0000895DF92EF92FF920F931F93CF93DF93E1
:1017C000D82E8A01EB017B01E40EF51ECE15DF0554
:1017D00059F0D7FE12C0FE0184910E94AB0B2196F6
:1017E0008111F4CF0FEF1FEFC801DF91CF911F914F
:1017F0000F91FF90EF90DF9008958881EECF0F93C7
:101800001F93CF93DF931F92CDB7DEB782E089831A
:1018100042E450E068E372E180E80E94D90B0E9444
:10182000160BDC0112960D911C910115110589F022
:10183000D801ED91FC910280F381E02DBE016F5F34
:101840007F4FC801099597FD04C0F80100851185F7
:10185000ECCF89810F90DF91CF911F910F91089567
:10186000615030F02091F100FC0120830196F8CF07
:10187000289884E68093650308953FB7F894809193
:101880004D0390914E03A0914F03B091500326B5A4
:10189000A89B05C02F3F19F00196A11DB11D3FBFA8
:1018A000BA2FA92F982F8827BC01CD01620F711D77
:1018B000811D911D42E0660F771F881F991F4A9571
:1018C000D1F708958F929F92AF92BF92CF92DF92FD
:1018D000EF92FF926B017C010E943D0C4B015C0179
:1018E000C114D104E104F104B9F00E943D0C68195F
:1018F00079098A099B09683E73408105910580F347
:1019000021E0C21AD108E108F10888EE880E83E0D0
:10191000981EA11CB11CE4CFFF90EF90DF90CF90F8
:10192000BF90AF909F908F9008958F929F92AF92AB
:10193000BF92CF92DF92EF92FF920F931F93CF93BC
:10194000DF936C017B018A0180911801882309F4DF
:101950005CC080916603882309F457C080915803C6
:1019600080FF05C08091E00082608093E000E80184
:10197000B12C8AEFA82E93E0892E2AE3922E20978D
:1019800011F4BB20D9F10E94050B81110AC0AA9461
:10199000AA20D9F161E070E080E090E00E94620C42
:1019A000EECF8C171D0611F00CF08C2F9FB7F8941A
:1019B0008092E9002091E80025FD02C09FBFDFCFA3
:1019C000282F30E0C21BD30BF701815020F041914A
:1019D0004093F100FACFE20EF31EBB2021F090926B
:1019E000E800B12CEBCF8091E80085FDE7CF909225
:1019F000E800BB24B394209709F3F3CF5D9884E605
:101A000080935703101611063CF081E090E0F60138
:101A10009383828310E000E0C801DF91CF911F9192
:101A20000F91FF90EF90DF90CF90BF90AF909F907D
:101A30008F900895AF92BF92CF92DF92EF92FF9274
:101A40000F931F93CF93DF936C017B018B01040FE6
:101A5000151FEB015E01AE18BF08C017D10759F082
:101A60006991D601ED91FC910190F081E02DC601C4
:101A70000995892B79F7C501DF91CF911F910F91BE
:101A8000FF90EF90DF90CF90BF90AF9008956F924E
:101A90007F928F929F92AF92BF92CF92DF92EF92FE
:101AA000FF920F931F93CF93DF934C017B01C22FC3
:101AB000102F98E0A92EB12C642E6694669466943B
:101AC000712CCA0187709927892B79F5D401179653
:101AD0002D913C91C7019927B9010E940A37269D93
:101AE000F001279DF00D369DF00D11248E0F9F1FE4
:101AF000D4011596ED91FC91E80FF91F2081111189
:101B000012C0C095C223C083DF91CF911F910F9166
:101B1000FF90EF90DF90CF90BF90AF909F908F900D
:101B20007F906F900895C22BEECFD0E04770C42E07
:101B3000D12C83E0660C771C8A95E1F79E0101C0E9
:101B4000220F4A95EAF7012FA301B701C4010E94B1
:101B5000470DA301485F5F4FC5018C199D0902C065
:101B6000D595C7958A95E2F7A7CF5F926F927F923E
:101B70008F929F92AF92BF92CF92DF92EF92FF929D
:101B80000F931F93CF93DF93EC016A30F1F48D85AF
:101B90009E859C878B878C892F853889820F932F10
:101BA000911D988B8F8781E090E0DF91CF911F91FD
:101BB0000F91FF90EF90DF90CF90BF90AF909F90EC
:101BC0008F907F906F905F900895AB84BC84693054
:101BD00031F429E0A20EB11CBC86AB86E4CF3DEF08
:101BE000A3163FEFB3060CF45DC08F819885A8164D
:101BF000B9060CF057C0CF84D8888DEFC8168FEF88
:101C0000D8060CF44FC089859A85C816D9060CF001
:101C100049C0603208F46FE780EE860F9FE9960FA7
:101C20009A3118F49FEFC91AD90A8C3011F08B3110
:101C300019F42FEFC21AD20A869534E0839FC001AF
:101C400011249C012E5F314F7901912C812C162F8C
:101C50001170F701E80DF91D549011112DC0352DAB
:101C60003F70532E3501680C791C8C81882361F0FC
:101C700001E089899A89892B09F000E02FE0A6010B
:101C8000B301CE010E94470D0989252DA601B3019C
:101C9000CE010E94470D8FEF881A980A94E08916AA
:101CA0009104B9F68B8990E004962B853C85820FD0
:101CB000931F9C878B8777CF52948FE05822D2CF87
:101CC0000F931F93CF93DF938C01D0E0C0E0F80116
:101CD000EC0FFD1F6491662341F088EB97E00E94B2
:101CE000B50D892B11F02196F2CFCE01DF91CF9166
:101CF0001F910F910895BC0190E080E00C94620C5C
:101D00008FB18095807F669B88601C9B846008955E
:101D100090914603982329F490914703982381E0FA
:101D200009F480E008952F923F924F925F926F9254
:101D30007F928F929F92AF92BF92CF92DF92EF925B
:101D4000FF920F931F93CF93DF93CDB7DEB7289702
:101D50000FB6F894DEBF0FBECDBF822E912C94013A
:101D6000280F391F121613060CF08BC0803891050E
:101D70000CF087C0603471050CF083C09B012770A4
:101D800033273E832D83069506950695202F30E058
:101D90003C832B832B0123E0559447942A95E1F74C
:101DA00092013695322F222737952795280F391F14
:101DB00028543C4F3A01D20148E050E0BA01ED818D
:101DC000FE816E1B7F0B7A8369838C0170E060E07B
:101DD0001901F0E82F0E311C17FD37C06901C60E3E
:101DE000D71EF601F080A301460F571F58874F8377
:101DF00051E0EF81F885E5125DC0A490B12C0D8013
:101E000002C0AA0CBB1C0A94E2F7AF28F601A0821C
:101E10004D815E81452BC9F0A730B105B1F0A1011C
:101E2000460F571FFA01F080F1E0EF1251C0EF8129
:101E3000F885D490ED2DF0E0098002C0F595E79586
:101E40000A94E2F7FE2AFA01F0826F5F7F4F0F5F7C
:101E50001F4F6815790524F40038110509F0BCCF2F
:101E6000119620583F4F680C791CAD014419550953
:101E70006B817C814617570724F4A830B10509F01F
:101E8000A4CF28960FB6F894DEBF0FBECDBFDF916A
:101E9000CF911F910F91FF90EF90DF90CF90BF9067
:101EA000AF909F908F907F906F905F904F903F90FA
:101EB0002F900895449150E00D8002C0440F551FAB
:101EC0000A94E2F7409550954F21F6014083A0CF48
:101ED000EF81F885D490ED2DF0E0098002C0F595F2
:101EE000E7950A94E2F7E095F095FE22ACCFCF9209
:101EF000DF92EF920F93CF93DF93C091670398E146
:101F0000C99FE0011124C82ED12CAE014B505D4E6B
:101F1000EE24E39400E12CE068E170E0C6010E9449
:101F2000930EAE0143555D4EE12C2CE068E170E06C
:101F3000C6010E94930EDF91CF910F91EF90DF9039
:101F4000CF90089580389105B8F460347105A0F4FD
:101F500020E191E061FD94E060FD990F62FD9295B2
:101F6000687F269FD0011124A80FA854BC4F8C91E4
:101F700040FF03C0892B8C93089590958923FBCF54
:101F8000FF920F931F93CF93DF93EC018B01F42EFD
:101F900042FF0BC041E001960E94A20F41E0B80150
:101FA0006F5F7F4FCE010E94A20FF1FE0DC041E096
:101FB000B801CE0101960E94A20F41E0B801615024
:101FC0007109CE010E94A20FF3FE0DC041E0B801DD
:101FD0006F5F7F4FCE010E94A20F41E0B801CE019A
:101FE00001970E94A20FF0FE12C0B8016150710962
:101FF00041E0CE010E94A20F41E0B801CE0101975D
:10200000DF91CF911F910F91FF900C94A20FDF9160
:10201000CF911F910F91FF900895DF92EF92FF9261
:102020000F931F93CF93DF937C01D22E8B01040F6C
:10203000111DEB0177FF02C0D0E0C0E0C801013400
:10204000110514F080E490E0C817D9073CF44D2D39
:10205000BE01C7010E94A20F2196F0CFDF91CF9160
:102060001F910F91FF90EF90DF900895CF92DF9234
:10207000EF92FF920F93CF937C01842F41E0420FA8
:10208000C3E0C20F9B01215031096901202F81302B
:1020900081F4C70101960E940D10202F4C2FB6012C
:1020A000C701CF910F91FF90EF90DF90CF900C94EC
:1020B0000D10C7010197EFCF4F925F926F927F9201
:1020C0008F929F92BF92CF92DF92EF92FF920F93E7
:1020D0001F93CF93DF934C01EB01142FE22EB02E10
:1020E0008EEF682E640E64018FEFC81AD80A26019D
:1020F0006C0C7D2C711C4614570454F42B2D4E2D62
:10210000BE01C2010E940D109FEF491A590AF3CF78
:102110008E2D8350990B7C012196C401810F911D56
:102120000B2D970141E0BE0102970E9436109701E6
:1021300042E0BE01C6010E943610DF91CF911F918F
:102140000F91FF90EF90DF90CF90BF909F908F9076
:102150007F906F905F904F900895089590E080E099
:1021600008953F924F925F926F927F928F929F92CB
:10217000AF92BF92CF92DF92EF92FF920F931F9395
:10218000CF93DF9382E08093020142E050E063E06E
:1021900070E0C12C0EE0A02E362FE3EBF2E020E041
:1021A000D42E1EEFB12EB60E2F01460E571ED201B1
:1021B0006C908DEF860D33243394320E833008F00B
:1021C00094C0A69CD0011124A051BD4F1A969C9199
:1021D00080910601981708F088C0B1E0BB1508F49B
:1021E00001C1222309F44DC09FEF920F04E0909F9C
:1021F000E0011124DE01AD54BD4F13968C91863061
:10220000A1F582E0DE01AD54BD4F7D01E40EF51E67
:10221000E7010881033008F003C1D2E0DD1227C0D6
:102220008E5FE32E00E0DF01A40FB51F8C9012E05B
:10223000181560F5C6E08C16E9F1233009F407C1E2
:1022400099249394878016E08112912C1496AC9176
:10225000A33008F0F2C093949394891508F0F4C069
:10226000932DE32E892D00E0EFC080E0CBCF8F5F70
:10227000D8CF063009F0DCC08111D3CF90E0E12C3B
:1022800003C090E0E12C80E002E0CDCF9380D6E067
:102290009D1669F0D2E09D2E891578F670900301A5
:1022A000871459F2892D922FED2C01E0C6CFC3E09F
:1022B0009C2EF2CF823008F0C0CF922FED2C82E01E
:1022C00000E0BBCF843021F0B0910301AB136EC0AE
:1022D000233009F476C0E201AC81A33008F46BC06E
:1022E000A63008F06EC093116CC0232D34962430B4
:1022F00009F05ACF615071094150510908F04CCF93
:1023000080910201823009F087C09091AC02911156
:1023100005C08091AB028F5F8093AB028091AB02CE
:102320008F3011F0992381F11092AC021092AB0220
:10233000809100010EE0809FF0011124E051FD4FDB
:10234000968191110EC0E0EFF2E080E09281992336
:1023500019F09681911105C08F5F3E968330B1F7D9
:1023600086E08093C4021092AA0210920401109297
:10237000B20280910501853008F084E08B5F809384
:10238000050186E080930301DF91CF911F910F91AA
:10239000FF90EF90DF90CF90BF90AF909F908F9085
:1023A0007F906F905F904F903F900895992DE32E0E
:1023B00001E084E08DCF843021F0B0910301AB13B4
:1023C00026C0C81608F091CF6092C40200930201A3
:1023D000E092AD029093AE023093B0022093B1022E
:1023E000C82E83CF8081833040F0863009F07DCFC6
:1023F000922FE12C00E085E0E4CF90910301891752
:1024000009F473CF922FE12C01E082E0DACF932D13
:10241000E32E01E084E0D5CF81E08093B202B4CF17
:1024200012960C9112971196AC91A33008F421CF1B
:1024300090E0E12C02E080E0F6CEB681A581A330E9
:1024400018F4B63009F409CF222309F444CF9924B3
:102450009A94920EC4E09C9ED0011124AD54BD4FBD
:10246000A60FB71FAC91A33008F42CCFA63008F00C
:102470002FCF99122DCF922FE32E02E080E028CFAC
:102480008091ED02803249F09091EC02903299F403
:102490008093EC0280E28093ED028091EE02803224
:1024A00079F09091ED02903249F48093ED0280E250
:1024B0008093EE0208958913F0CFEACF8917A9F32C
:1024C0000895CF93C82F80E80E94880E882339F0A2
:1024D00080910701882319F081508093070180E1E2
:1024E0000E94880E882339F0809107018C1718F418
:1024F0008F5F80930701CF910895282FE0EFF2E0DE
:1025000090E081E052813581468160A974A57723EE
:1025100019F0611101C08F5F291749F0552339F077
:10252000442329F0393018F4823008F081509F5F3D
:102530003E96933039F7089590914403911189E0C4
:1025400080939F028093A0028093A10208958091BE
:102550006703813079F480919D02811108C082E087
:10256000809367038091670380939D020895109282
:102570006703F8CF80939D0281E0809367030895FD
:10258000CF92DF92EF920F93CF93DF9390E1699F09
:1025900060011124C82FD0E0249684E0CC0FDD1F09
:1025A0008A95E1F7E12C00E120E14BEC50E1B60126
:1025B000CE010E94930EEE24E39420E14BEA50E119
:1025C000B601CE010E94930EDF91CF910F91EF9053
:1025D000DF90CF900895CF9380E80E94880EC0913D
:1025E000AE02882351F11C1644F5C150C093AE02CF
:1025F0008091AE02082E000C990B2091B102281791
:102600001906C9F42091B00230E08091AD02082E85
:10261000000C990B2817390771F0E091C4024EE0C5
:10262000E49FF0011124E051FD4F41E028173907E4
:102630000CF440E04483CF91089580E10E94880E1D
:10264000882311F0C33084F080E20E94880EC0918C
:10265000AD0281110BC080E40E94880E882341F2F4
:10266000C33034F6CF5F05C0CF5FC0CF1C169CF7D8
:10267000C150C093AD02BCCF0F931F93CF93DF9394
:1026800080E80E94880E8823A1F08091C4028823EC
:1026900081F081509EE08902F0011124E051FD4F4C
:1026A00087FD07C096813E97992309F471C08093F6
:1026B000C40280E10E94880E8823A9F08091C402A0
:1026C000823088F48F5F9EE0899FF0011124E051F1
:1026D000FD4F9681992309F45DC09281992309F4F5
:1026E00059C08093C40280E20E94880E882339F08A
:1026F0008091AA02882319F081508093AA0280E475
:102700000E94880E882339F08091AA02833018F441
:102710008F5F8093AA02E091C4020E2F10E08EE03A
:10272000E89FF0011124E051FD4FD285C091AA022B
:10273000C130B1F5DF5F88E00E94880E882309F47C
:1027400046C0809105018D1718F4C33009F03FC0D1
:102750008091B0028093AD028091B1028093AE026D
:102760008EE0809FF001819FF00D1124E051FD4F1C
:10277000848180939C0281E08093B202C13009F48D
:102780003BC080E0C13008F1C23071F087E01DC06D
:10279000815086CF3E96823009F4A5CF82E099CF52
:1027A000C23049F6DE5FC7CFE381E83078F7F0E06A
:1027B000E452FC4E0C941E37FC13F613FA13E41388
:1027C000FC13F813F413FC1383E08093AF0284E04E
:1027D0000E94880E882319F083E08093AA02DF917B
:1027E000CF911F910F91089585E0EFCF84E0EDCF59
:1027F00086E0EBCF82E0E9CF81E0E7CFDC01EC912E
:10280000E63048F48EE0E89FF0011124E051FD4FDE
:10281000868181110CC086E08C93EC918EE0E89F5C
:10282000F0011124E051FD4F86818783089581E0F6
:102830008587F3CFCF93DF93F901A82FB0E094E021
:10284000699F90011124E901CD54DD4FCA0FDB1FB0
:102850009881973011F496E098832D543D4FA20F44
:10286000B31F9C91963088F420910301921301C00C
:1028700011869185911115C09681992319F091E0E7
:10288000958701C0158696819783833039F463302C
:1028900029F4FA01808181111092B202DF91CF9167
:1028A0000895191684F7DA011C9291859150918749
:1028B000968191509683958521E09227E1CFA62FAE
:1028C000A21BBB0BFD01119711F0319611F4841777
:1028D00069F0841B990B8130910521F481E062132A
:1028E00003C008950196D1F380E0FBCF81E0089505
:1028F000CF92DF92EF92FF920F931F93CF93DF93CC
:10290000CDB7DEB7A7970FB6F894DEBF0FBECDBF29
:10291000CA8EDB8EEC8EFD8E0E8F1F8F28A339A3FF
:102920004AA35BA36CA37DA38EA39FA389E1EDE1E2
:10293000F1E0DE01119601900D928A95E1F78B8D01
:102940002BA941E050E04C0F5D1FE5E08E9F400D4C
:10295000511D1124CA01820F911DFC018081882321
:10296000F9F061E0823011F081E001C082E09DA1C8
:10297000899FC001112470E00E940A37862F909130
:102980000C01923079F49091AA02923069F49D8DF5
:102990009130E9F0C8F0943039F4862F880F04C0E4
:1029A00062E0E2CF977F99F38F5FA7960FB6F89416
:1029B000DEBF0FBECDBFDF91CF911F910F91FF9072
:1029C000EF90DF90CF90089588AD8150EDCF8BEAE6
:1029D000689F812D11248695E7CF8F929F92BF9299
:1029E000CF92DF92EF92FF920F931F93CF93DF93DB
:1029F000EC014B01FB01B680B7822DB73EB72E50DC
:102A000031090FB6F8943EBF0FBE2DBFADB7BEB7AC
:102A100011968EE001900D928A95E1F7C880D980D9
:102A2000EA80FB800C811D812E813F81488559857C
:102A30006A857B858C859D850E9478144DB75EB72D
:102A4000425F5F4F0FB6F8945EBF0FBE4DBFEB2DD8
:102A5000E81BFF0BB81AF7FDB12CF401B782DF9128
:102A6000CF911F910F91FF90EF90DF90CF90BF908B
:102A70009F908F9008952F923F924F925F926F9206
:102A80007F928F929F92AF92BF92CF92DF92EF92FE
:102A9000FF920F931F93CF93DF9300D01F92CDB778
:102AA000DEB7898322E0873009F421E0E091040158
:102AB000F0E02090C402822C912CEB5FFE4F9EE050
:102AC000989DA001999D500D112440515D4F5B834D
:102AD0004A838081DA011A963C91831B821B808392
:102AE0008091AE024090AD02042C000C5508B4E079
:102AF0008B0250011124F501ED54FD4FE40DF51D3D
:102B00003080632C712C969DF001979DF00D11245F
:102B1000E051FD4F2DB73EB72E5031090FB6F89456
:102B20003EBF0FBE2DBFADB7BEB7119601900D923F
:102B30009A95E1F7AA81BB81CC901196DC90119710
:102B40001296EC9012971396FC90139714960C9192
:102B5000149715961C91159716962C911697179603
:102B60003C91179718964C91189719965C91199764
:102B70001A966C911A971B967C911B971C968C91B8
:102B80001C971D969C910E9478140FB6F894DEBF96
:102B90000FBECDBFF981F83008F5EF2FF0E0ED5210
:102BA000FA4E0C941E37AF163A160B16DB15DB15D2
:102BB0000616D516DB159EE0969DF001979DF00D4B
:102BC0001124E051FD4F9681492F481B550B1416D7
:102BD0001506D4F0918782E08093B2020F900F9097
:102BE0000F90DF91CF911F910F91FF90EF90DF90A9
:102BF000CF90BF90AF909F908F907F906F905F909D
:102C00004F903F902F9008958187E5CF2092030148
:102C10001092B202E3CF9EE0989DD001999DB00D35
:102C20001124A051BD4F14968C91149780939C024F
:102C3000969DF001979DF00D1124E051FD4F948178
:102C400014969C9384838091B102E091B00254E089
:102C5000859FC00111248D549D4FE80FF92FF11D60
:102C60008081D501AD54BD4F4A0E5B1ED2018C93BD
:102C70003082CECF80EFA82E82E0B82E93E0692E6E
:102C8000712C2EE0522E589CF001599CF00D11240D
:102C9000E051FD4FFB83EA83569CF001579CF00DF9
:102CA0001124E051FD4F2DB73EB72E5031090FB61C
:102CB000F8943EBF0FBE2DBFADB7BEB71196852DA0
:102CC00001900D928A95E1F7AA81BB81CC90119673
:102CD000DC9011971296EC9012971396FC90139734
:102CE00014960C91149715961C91159716962C9185
:102CF000169717963C91179718964C911897199616
:102D00005C9119971A966C911A971B967C911B9758
:102D10001C968C911C971D969C910E9478140FB65E
:102D2000F894DEBF0FBECDBFD501D0969C91D09751
:102D3000E92FE81BFF0B1E161F0674F0D3969C9319
:102D4000BFEF6B1A7B0AEEE0AE0EB11CF6E06F1619
:102D5000710409F0A1CF3FCFD3968C93F1CF8EE0D1
:102D6000869DF001879DF00D1124E051FD4F968165
:102D70009187889DF001899DF00D1124E051FD4F50
:102D800086818187E0EFF2E080E09281992341F033
:102D90009681992329F0281619F08093C4021BCF3D
:102DA0008F5F3E96833089F716CFE0EFF2E0968191
:102DB000992361F02085822F869530E0890F99272D
:102DC000991F281739070CF4C90186833E9623E022
:102DD000EA31F20761F71CCFCF93DF93D82F8091B0
:102DE000AA02813009F45EC048F0823009F48AC03A
:102DF000833009F410C1DF91CF9108950E94EB1246
:102E000088E00E94880E8823C9F18091AE02E0918B
:102E1000AD020E2E000CFF0B24E08202C001112433
:102E2000DC01AD54BD4FAE0FBF1F3C91383011F0E7
:102E3000363021F54091C4022EE0429FD00111248A
:102E4000A051BD4F209105011A965C91251B20933E
:102E500005018D549D4FE80FF91F40838091B10209
:102E60002091B00244E0849FC00111248D549D4FF5
:102E7000820F911DFC0130831092B20284E00E9407
:102E8000880E882309F4B7CFE091C4022EE0E29FB8
:102E9000F0011124E051FD4F80919C028483109237
:102EA000B202A9CF0E94EB120E94800E83FF1DC0C8
:102EB0002091AE024091AD0284E02802F00111247D
:102EC000ED54FD4FE40FF11D47FDFA9580818350CD
:102ED000833058F46091B1028091B0020E945F1477
:102EE000882319F087E00E943B1584E00E94880E39
:102EF000882309F480CFE091C4029EE0E99FF001AD
:102F00001124C8CFD73008F5ED2FF0E0E657F84E82
:102F10000C941E3791170918A717D817911709187D
:102F2000EE170E94EB122091AE024091AD0284E0B8
:102F30002802F0011124ED54FD4FE40FF11D47FD6F
:102F4000FA95808183508330A8F0C0E01AC00E94B7
:102F5000EB122091AE024091AD0294E02902F00103
:102F60001124ED54FD4FE40FF11D47FDFA958081CA
:102F7000863058F76091B1028091B0020E945F14D0
:102F8000C82F88E00E94880E882329F0CC2319F0EE
:102F90008D2F0E943B1584E00E94880E882309F43F
:102FA0002ACFE091C4024EE0E49FF001112472CFD9
:102FB0000E94EB12E091AE028091AD0224E0E202A9
:102FC000F0011124ED54FD4FE80FF11D87FDFA9536
:102FD00080818350C1E08330A0F2B7CF8091F602A8
:102FE0009091F802891711F0811113C080910403A8
:102FF00090910603891711F081110BC08091120383
:1030000090911403891711F0811103C01092B2023C
:103010009CCFC1E0B6CF8091C40280930001E0EF65
:10302000F2E083E094A5992319F090A9911104C0CE
:103030008F5F3E968630B1F78093C40284E0809320
:10304000AA0281E0809304011092B2028091A8024A
:10305000811109C080910601853008F084E08B5F02
:1030600080930601C8CE1092A802C5CE8F929F927F
:10307000AF92BF92CF92EF92FF920F931F93CF9395
:10308000DF935B014A01122F90E2899FE001112436
:10309000EE24E394E226AE01475B594FC02E00E1D7
:1030A00020E1B401C5010E94DA09AE01475B5D4F22
:1030B000E12E20E1B401C5010E94DA09DF91CF9130
:1030C0001F910F91FF90EF90CF90BF90AF909F9086
:1030D0008F900895AF92BF92CF92DF92EF920F93AD
:1030E000CF93DF9380910A01823001F178F4882335
:1030F00009F47CC0813009F45BC0DF91CF910F915E
:10310000EF90DF90CF90BF90AF9008958330E9F0BB
:10311000843099F76091E10270E08091E202EE2440
:10312000E39408E028E04DE65AE05CC04091E102FB
:1031300050E06091E202062E000C770B01E021E0E6
:103140008091DF020E943618D8CF8091E5029091DD
:10315000E60260E273E00E94F636862F880F680F61
:103160008091A502680F7727771F88E1869F50011D
:10317000879FB00C1124C090E102D12CC091E202D3
:103180000C2E000CDD0BA5014B52534FEE24E394A3
:1031900000E12CE0B601CE010E94930EA5014B5434
:1031A000544FE12C2CE0B601CE010E94930EA5CF26
:1031B0008091E5029091E602409760E273E00E9400
:1031C000F636AB0186E0440F551F8A95E1F74B5464
:1031D000554F6091E10270E08091E202EE24E394A9
:1031E00000E120E2082E000C990BDFCF6091E10294
:1031F00070E08091E202EE24E39400E120E245E7F2
:103200005AE0F0CF8A3020F487E492E00C94600E0C
:103210000895EF92FF920F931F93CF93DF93102F98
:10322000E62EF12CC82FD0E0B701CE010E945C1031
:10323000E8EBF7E001E01027012F10E0128B018B83
:103240002196D687C587D487C3878FEFE81AF80AF7
:10325000F08AE786DF91CF911F910F91FF90EF9059
:1032600008958F929F92AF92BF920F931F93CF9327
:10327000DF93CDB7DEB7A1970FB6F894DEBF0FBED0
:10328000CDBF19A2423008F44AE08E010F5D1F4FF6
:10329000842E912CB12CA12CA50194010E94B7364B
:1032A000E62FB901CA01EA3044F5E05DD801EE939A
:1032B0008D01232B242B252B79F790E080E01097AC
:1032C00069F0FD0101900020E9F73197AF014A1B39
:1032D0005B0BBD0188EB97E00E941A0DA1960FB61B
:1032E000F894DEBF0FBECDBFDF91CF911F910F913C
:1032F000BF90AF909F908F900895E95CD7CFFC016D
:1033000001900020E9F73197AF01481B590BBC0130
:1033100088EB97E00C941A0D682F70E090E080E045
:103320004AE00C943119CF92DF92EF92FF92CF9343
:10333000DF936C01990FEE08FF08F7FE19C06DE2EC
:1033400088EB97E00E94B50DEC0166277727CB014B
:103350006C197D098E099F094AE00E9431198C0F72
:103360009D1FDF91CF91FF90EF90DF90CF90089558
:103370004AE0C701B601DF91CF91FF90EF90DF9057
:10338000CF900C943119AF92BF92CF92DF92EF920F
:10339000FF920F931F93CF93DF93EC01F62E01E082
:1033A00029E244E361E080E00E9409198A818823D0
:1033B00009F4C4C1E88182EC9EE0E03238F4F0E028
:1033C000EE0FFF1FE75FFD4F808191810E94600E2D
:1033D00081E090E09093C6078093C5079093C4075F
:1033E0008093C30787E090E09093C8078093C70756
:1033F000E98187E69AE0E53038F4F0E0EE0FFF1F50
:10340000E150FE4F808191810E94600E81E090E04A
:103410009093C6078093C5079093C4078093C30712
:103420008CE090E09093C8078093C707EA8189E514
:103430009AE0ED3038F4F0E0EE0FFF1FEB51FE4F55
:10344000808191810E94600E01E010E01093C60718
:103450000093C5071093C4070093C30781E190E070
:103460009093C8078093C70784E69AE00E94600E95
:103470008D810E948C191093C6070093C507109385
:10348000C4070093C30786E190E09093C807809338
:10349000C70781E69AE00E94600E8C850E9402199F
:1034A0008C850E948C198FE59AE00E94600E1D8128
:1034B000193009F44AC0110F1150812F0E940219CE
:1034C000812F0E948C1981E090E09093C607809331
:1034D000C5079093C4078093C3078BE190E0909356
:1034E000C8078093C70786E59AE00E94600E809126
:1034F0000C0181112EC1FF2009F42BC14E812885BA
:10350000421708F026C18091E9029091EA0265E035
:1035100070E00E94F636892B21F48D8591E0892791
:103520008D878D85882399F0822F869530E0840FD2
:103530009927991F281739070CF4C9018F830E9416
:1035400002198F810E948C1906C01FE0B6CF83E557
:103550009AE00E94600E81E59AE00E94600E8885E4
:103560000E94021988850E948C1989E090E090934E
:10357000C6078093C5079093C4078093C30785E26D
:10358000A82EB12CB092C807A092C7078A850E94C6
:103590008C19E12C08E028E044E15FE061E270E092
:1035A00081E090E00E94930E07E110E01093C607BF
:1035B0000093C5071093C4070093C30790E2C92E78
:1035C000D12CD092C807C092C7078B858F5F0E940D
:1035D00002198B8590E001960E9493191093C607FB
:1035E0000093C5071093C4070093C307B092C807A0
:1035F000A092C7078A8590E001960E94931908E07F
:1036000028E04CE05FE061E270E08FE090E00E9433
:10361000930E8AE290E09093C6078093C50790933B
:10362000C4078093C307D092C807C092C7078B8195
:10363000813021F08350823008F05DC088818F3165
:1036400009F459C02DB73EB72E5031090FB6F89482
:103650003EBF0FBE2DBFADB7BEB711968EE0FE01C7
:1036600001900D928A95E1F7C880D980EA80FB80AD
:103670000C811D812E813F81488559856A857B8516
:103680008C859D850E9478142DB73EB7225F3F4FF1
:103690000FB6F8943EBF0FBE2DBF0E9402198DB722
:1036A0009EB70E970FB6F8949EBF0FBE8DBFADB7F5
:1036B000BEB711968EE0FE0101900D928A95E1F75A
:1036C000C880D980EA80FB800C811D812E813F81DA
:1036D000488559856A857B858C859D850E947814EF
:1036E0002DB73EB7225F3F4F0FB6F8943EBF0FBED7
:1036F0002DBF0E948C198AE290E09093C6078093B8
:10370000C5079093C4078093C30785E290E0909328
:10371000C8078093C7078A8590E002960E94931994
:1037200088818F31D9F4E12C08E028E049E45AE09F
:1037300061E270E082E290E00E94930EDF91CF910F
:103740001F910F91FF90EF90DF90CF90BF90AF90BF
:1037500008958E810E9402198E81F4CE4B8138E04B
:10376000439FA00111244C52514FE12C08E028E066
:10377000DFCF0C946F360F931F93CF93DF938C01A1
:10378000EB010E946F368883C80101960E946F3654
:103790008983CE01DF91CF911F910F910895CF932F
:1037A000DF9300D0CDB7DEB71A821982BE016F5FFA
:1037B0007F4F88EB92E00E94BB1B8AEB92E00E9455
:1037C000B91B982F29813A8121383C4018F481E0B7
:1037D0009B3008F080E00F900F90DF91CF9108951B
:1037E000EF92FF920F931F93CF93DF9300D0CDB74B
:1037F000DEB78C0183E0689F70011124BE016F5F0A
:103800007F4FC701885A9D4F0E94BB1BC701865A34
:103810009D4F0E94B91BF801868389819A81282FC8
:1038200027702F5F2583AC0183E0569547958A95D5
:10383000E1F74F714083392F3F7034873F3021F4D7
:10384000283011F429E02583892F82958F70F801A3
:1038500082830F900F90DF91CF911F910F91FF9076
:10386000EF9008951F93CF93DF93EC01162F0E94E2
:103870006F36181739F0612FCE01DF91CF911F916C
:103880000C947736DF91CF911F91089581EC80934E
:103890007C0085B1806F85B984B1877E84B984B19D
:1038A000876E84B95E9A5F988AB1806D8AB9769A7C
:1038B0006E9881B3806F81BB899880B38D7080BB17
:1038C00080E58CBD81E08DBD85E090E00E947B0E9F
:1038D0005F9A85E090E00E947B0E5E985C98E5EF31
:1038E000FDE082E09EE024912EBD00000DB407FEB5
:1038F000FDCF31968E179F07B1F75C9A81E88093D0
:103900006400809165008160809365000E94CA090F
:103910000E94800E87FF15C05C9885EA8EBD00006E
:103920000DB407FEFDCF5C9A2E982F982D988091AC
:10393000640080628093640081E083BF889513BE39
:10394000FCCF0E94800E82FF3AC02D980E94800E0C
:1039500084788438A9F42D9A88EC90E00E947B0E3C
:103960002F986FEF82E090E00E94321C84EF91E08C
:103970000E947B0E2F9A0E94800E84788438D9F39F
:103980000E94800E84718431A9F42D9A88EC90E015
:103990000E947B0E2E9860E082E090E00E94321C34
:1039A00084EF91E00E947B0E2E9A0E94800E84711B
:1039B0008431D9F388EC90E00E947B0EC2CF2D9A1F
:1039C00082E090E00E94B91B882319F03E9A3F9A4A
:1039D00008953E983F980895CF93DF93CCEED2E0C0
:1039E000688180EC92E00E94321C698181EC92E057
:1039F0000E94321C6A8182EC92E0DF91CF910C949C
:103A0000321CFF920F931F93CF93DF93EC018B0136
:103A1000FB01F0800E946F36F81621F06F2DCE0169
:103A20000E947736F801F1802196CE010E946F3610
:103A3000F81621F06F2DCE010E947736C801DF9174
:103A4000CF911F910F91FF900895AF92CF92DF9287
:103A5000EF92FF920F931F93CF93DF93CDB7DEB713
:103A600060970FB6F894DEBF0FBECDBFCB82ED825C
:103A700029878F87412F63E0A69E80011124C8010A
:103A8000885A9D4F4930A0F54150550B2B8168E075
:103A9000269F900111246D8170E0762F6627729524
:103AA000707F260F371F6F8570E0762F6627260FF1
:103AB000371F240F351F3A832983BE016F5F7F4F65
:103AC0000E94011D6985C801865A9D4F0E94321CC3
:103AD00060960FB6F894DEBF0FBECDBFDF91CF91D9
:103AE0001F910F91FF90EF90DF90CF90AF900895CE
:103AF00047E050E0CBCFCF93DF938091E4028F5F1C
:103B00008093E402C091E3028A3001F50E94A7127B
:103B10002091E5023091E602CC2381F04091A5028C
:103B2000C90160E273E00E94F6366230710509F067
:103B300056C0413009F066C01092A5021092E4020E
:103B40002F5F3F4F3093E6022093E502C13009F426
:103B5000A4C01092E20285E080930A01E091E502A0
:103B6000F091E602CF0160E971E00E94F636EC01C7
:103B70002091E40221114AC0CF016AE070E00E9466
:103B8000F636099749F40E94173620E130E040E00C
:103B900050E00E948536262FC53881E0D807C1F550
:103BA00088E08093E1028FE78093E2028091E50252
:103BB0009091E60260E971E00E94F636617081E062
:103BC0008093E30260930A018091E202803121F444
:103BD00080910A0180930B01DF91CF9108954130CC
:103BE00079F480919E02811108C082E08093A50241
:103BF0008091A50280939E02A1CF1092A502F8CFDA
:103C000040939E0281E08093A50298CF20E0C4CF2C
:103C1000C637D140C8F62A30B8F26BEA269F212D6C
:103C200011242695215020930A01233059F1243084
:103C300059F12230D9F40E94173620E230E040E0FA
:103C400050E00E9485366093DF020E9417362CE018
:103C500030E040E050E00E9485366F5F7F4F8F4F2D
:103C60009F4F6093DC0289E18093E10280910A0119
:103C7000843061F48091E002893041F485E08093E2
:103C80000A01A2CF88E1F0CF84E2EECF81E08093F9
:103C9000E3028FE78093E20297CF8091E202803EB9
:103CA00014F08150F7CF1092E3028ECFCF92DF92C3
:103CB000EF92FF920F931F93CF93DF93CDB7DEB7B1
:103CC00067970FB6F894DEBF0FBECDBFCA86DB86FE
:103CD000EC86FD860E871F87288B398B4A8B5B8B82
:103CE0006C8B7D8B8E8B9F8B8D2D99E0E6E3F1E0C5
:103CF000DE01119601900D929A95E1F7DD2099F180
:103D00008430C1F40E94173627E030E040E050E0F4
:103D10000E948536862F67960FB6F894DEBF0FBED9
:103D2000CDBFDF91CF911F910F91FF90EF90DF906A
:103D3000CF900895815090E0EC85E150FF0BF59510
:103D4000E795F595E7959C01220F331F820F931F8E
:103D500021E030E02C0F3D1F820F931FE80FF92F59
:103D6000F11D8081D8CF80E0D6CFCF92DF92EF9245
:103D7000FF920F931F93CF93DF93EC012A81E88189
:103D8000AFEFAE0F80E0AF3120F4B0E0A15CBE4FEA
:103D90008C9189830D8110E030E0F0E0C901880F3B
:103DA000991F280F391F22543E4FD9014C91CF0142
:103DB000880F991FE80FF91FE25AFE4F8081480FC4
:103DC0005527551F4C5F5F4F409FC001419F900D8D
:103DD000509F900D11240F9665E070E00E940A3705
:103DE0006887D90111964C918181480F5527551F3D
:103DF0004C5F5F4F409FC001419F900D509F900DC1
:103E000011240F966AE070E00E940A376B87D9018F
:103E100012966C918281680F7727771F7595679549
:103E2000719561957109695F6A87C880D980EA8058
:103E3000FB800C811D812E813F81488559857B85C2
:103E40008C859D850E94561E8B83DF91CF911F919B
:103E50000F91FF90EF90DF90CF9008952F923F92B7
:103E60004F925F926F927F928F929F92AF92BF928A
:103E7000CF92DF92EF92FF920F931F93CF93DF9336
:103E8000E091E502F091E60280914403811148C07F
:103E9000CF0160E971E00E94F63632E0332E360E33
:103EA000CF0160E273E00E94F636623041F0633089
:103EB000C9F110E021E0613021F422E002C011E0FC
:103EC00023E0212CC0E2E03639E0F30770F4CF01A3
:103ED00060E273E00E94F636CAE06C9F202C112449
:103EE0002394C69FC00D1124CF5F30910A01323058
:103EF00009F4C4C03330C1F0313009F0C5C0CF017E
:103F000060E273E00E94F6366230710509F4EEC09B
:103F100008F0BCC06130710509F4FBC013E062C059
:103F200029E0322E12E0CCCF822E912CB12CA12C84
:103F3000412E512C712C612C481459046A047B04C5
:103F40008CF484189508A608B70841F00E9417362B
:103F5000A50194010E9485364B015C01480C591C57
:103F60006A1C7B1C142D00E0CC2ED12CF12CE12CF2
:103F7000822C912CB12CA12C8C149D04AE04BF0476
:103F80009CF426013701481859086A087B0841F05B
:103F90000E941736A30192010E9485362B013C0135
:103FA000840C951CA61CB71CC02FD0E0FE01EE555A
:103FB000FD4F80820E941736FE01E452FD4F5F01E3
:103FC0002CE030E040E050E00E9485366F5F7F4F8C
:103FD0008F4F9F4FF5016083C156DD4F38820F5FD1
:103FE000101730F6C0EFD2E0F12CE12C07E089E0A9
:103FF000D82E9FE0C92E1CA61E1528F1F701E15608
:10400000FD4F8081F701EE55FD4F9081F701E4529D
:10401000FD4F20812CA79AA78FA7893029F08830DF
:1040200029F48EA98F3011F4DFA6CEAA8CA588239F
:1040300051F0CE018A960E94B51E0DA78AA988ABC1
:104040008CA981508CABFFEFEF1AFF0A2E9623E06C
:10405000E216F10481F6DF91CF911F910F91FF904D
:10406000EF90DF90CF90BF90AF909F908F907F9018
:104070006F905F904F903F902F9008958091DF0256
:104080008093A20230929F0210E0ACCF63307105A2
:10409000B9F06430710509F041CF8FE18093A2023D
:1040A00089E08093DC0284E18093A3023093DD02F7
:1040B0008DE18093A40285E08093DE0289E013C045
:1040C0008CE18093A20287E08093DC0286E18093FA
:1040D000A30286E08093DD028AE18093A40283E05C
:1040E0008093DE0288E00E949C1218CF83E18093C7
:1040F000A2028CE08093DC028BE08093A302809389
:10410000DD028EE08093A4028AE08093DE0286E0E6
:10411000EACF3093A20282E08093DC028093A30274
:1041200084E08093DD028093A40288E08093DE0225
:1041300084E0D9CF8F929F92AF92BF92CF92DF92BD
:10414000EF92FF920F931F93CF93DF93CDB7DEB71C
:104150002E970FB6F894DEBF0FBECDBF80EF882E2E
:1041600082E0982EB12C6B2DCE0101960E94F01B9F
:10417000CE0101960E94B51E8B81882311F089859E
:104180008F83AB2CC980DA80EB80FC800D811E818F
:104190002F81388549855A856B857C858D859E85DF
:1041A0000E94251D82E08B1518F0F401808586831E
:1041B000B394FEE08F0E911C80E2B812D4CF2E96FD
:1041C0000FB6F894DEBF0FBECDBFDF91CF911F9128
:1041D0000F91FF90EF90DF90CF90BF90AF909F90A6
:1041E0008F9008951F920F920FB60F9211248F9304
:1041F0009F938091E1009091E100937F9093E10083
:1042000083FF0FC01092E90091E09093EB001092B1
:10421000EC0092E39093ED001092660398E0909387
:10422000F00082FF22C093E09093E9009091F200A9
:10423000992319F09AE39093E800909157039923FA
:1042400041F090915703915090935703911101C001
:104250005D9A90916503992341F090916503915087
:1042600090936503911101C0289A84FF18C0809132
:10427000E2008E7E81608093E2008091E1008F7E7B
:104280008093E100809158038E7E80618093580373
:104290009F918F910F900FBE0F901F90189580FFE8
:1042A000F7CF8091E2008E7E80618093E200809162
:1042B000E1008E7E8093E100809158038E7E8160C4
:1042C000E5CF1F920F920FB60F921124CF92DF927B
:1042D000EF92FF920F931F932F933F934F935F9310
:1042E0006F937F938F939F93AF93BF93EF93FF93BE
:1042F000CF93DF93CDB7DEB76C97DEBFCDBF109203
:10430000E9008091E80083FF25C068E0CE01459672
:104310000E94300C82EF8093E8008D8987FF39C0BE
:104320009091E80090FFFCCF982F907609F034C16F
:104330009E894F89588D2F89F88C911131C0803812
:1043400061F5809156038093F1001092F1008EEF99
:104350008093E8006C960FB6F894DEBF0FBECDBF19
:10436000DF91CF91FF91EF91BF91AF919F918F918D
:104370007F916F915F914F913F912F911F910F917D
:10438000FF90EF90DF90CF900F900FBE0F901F9097
:1043900018959EEF9093E800C7CF1092F100D5CF0B
:1043A000913059F48111D3CF4130510581F680917C
:1043B00056038D7F80935603CACF933049F4811101
:1043C000C6CF4130510519F6809156038260F2CF75
:1043D000953041F48091E80080FFFCCF2068209365
:1043E000E300B5CF963009F0A9C00B8D1C8D22E0FB
:1043F0001092E9001092540310925303F2122EC04F
:1044000010925203109251030E94FF0B1F8299E0F9
:104410009983FA8291E09E8390EA98879AEF998730
:104420002091530330915403275F3F4F3C832B83EC
:104430008D831092E900109254031092530310934D
:1044400052030093510349E050E0BE016F5F7F4F7C
:1044500080E00E94D90B0E94FF0B79CF109352038A
:10446000009351030E94160BDC0112960D911C91D2
:104470000115110509F451C1D801ED91FC91048099
:10448000F581E02DBE016B5E7F4FC8010995009755
:1044900009F03EC1F80100851185EACFF3E0FF1273
:1044A0000EC08F89882309F440C0823061F440E84F
:1044B00060E18CE992E10E94DD23811148CF81E225
:1044C0008093EB0047CF813029F440E86BE080E92E
:1044D00092E1F1CF833099F70E94160BDC0112961E
:1044E000ED90FC908E010F5F1F4F6801E114F10405
:1044F00079F0D701ED91FC910680F781E02DB801AC
:10450000C7010995080F111DF701E084F184EECF72
:10451000D8011C92F60101900020E9F73197BF0104
:104520006C197D0940E0C601C6CF6AE772E1FB0164
:10453000449150E080E80E94D90B09CF973009F4EC
:10454000BECF983021F481E08093F10000CF993004
:1045500009F0FDCE837009F0B2CFEAE4F2E081E029
:1045600031E096E32191222371F08093E9003093AA
:10457000EB00DF0111972C912093EC009093ED005C
:104580008F5F873079F78EE78093EA001092EA0018
:104590008F8980936603DBCE8B8D9C8D1092E90012
:1045A000109254031092530390935203809351033B
:1045B000898D811192C08E899D89913A49F4813209
:1045C00009F07DCF47E050E061E171E080E0B3CFDA
:1045D000913209F074CF833269F48F89988DB0E0FD
:1045E000A0E080930D0190930E01A0930F01B09372
:1045F0001001ADCE803269F48091E80082FFFCCFDB
:1046000067E081E191E00E94300C8BEF8093E8003D
:104610009ECE823209F09BCE8F8980931801EEEFF7
:10462000FFE7859194918B3F9C4D51F1E0E0F8E0DC
:104630008091110190911201A0911301B091140188
:10464000803B9440A105B105F1F48091180180FDF3
:104650001AC0EE3F8AE0F80789F587E797E791836C
:104660008083809160008093550388E19BE00FB6C2
:10467000F894A895809360000FBE9093600067CE79
:10468000EEEFFAE0D5CF808191818737974709F027
:104690005ECEA895809160008861809360008091D3
:1046A000550380936000EE3F2AE0F20789F0809185
:1046B000FE0A9091FF0A9183808349CE8081918187
:1046C0008737980751F29093FF0A8093FE0AC5CF6F
:1046D0001092FF0A1092FE0A3ACE0E94160BDC01DD
:1046E00012960D911C910115110509F4E8CED8011F
:1046F000ED91FC910190F081E02DBE016B5E7F4F4A
:10470000C8010995811123CEF80100851185EBCFF1
:10471000181619060CF41BCED2CEF1E0FF12BECE55
:104720006EE772E104CF1F920F920FB60F92112421
:104730002F933F938F939F93AF93BF9380914903A0
:1047400090914A03A0914B03B0914C0330914803E0
:1047500023E0230F2D3758F50196A11DB11D20939D
:1047600048038093490390934A03A0934B03B0936B
:104770004C0380914D0390914E03A0914F03B09153
:1047800050030196A11DB11D80934D0390934E03DC
:10479000A0934F03B0935003BF91AF919F918F911E
:1047A0003F912F910F900FBE0F901F90189526E804
:1047B000230F0296A11DB11DD2CFEF92FF920F934E
:1047C0001F93CF93DF93F82E192FE62E042F81E04D
:1047D000860F880F0E94AB0B83E00E94AB0BCF2D9E
:1047E000D12FEC0EFD2EF11CCE15DF05B9F007FF21
:1047F00013C0FE0184910E94AB0B182F80E00E9431
:10480000AB0B812321968111EFCFDF91CF911F91C7
:104810000F91FF90EF9008958881EDCF81E0F5CF63
:10482000E8E6F3E01382128288EE93E0A0E0B0E0C5
:1048300084839583A683B78384E592E09183808304
:104840008FEF9FEF95878487E8EBF7E01382128262
:1048500086E692E09183808388EB93E0968385835C
:1048600080E890E09087878380E490E0928781875A
:1048700085E0848B81E0838B16861586108A1786E7
:104880001486138681E090E0928B818B14820895C8
:10489000CF93DF93CDB7DEB7A1970FB6F894DEBF05
:1048A0000FBECDBF789484B5826084BD84B581602D
:1048B00084BD85B5826085BD85B5816085BD8091EB
:1048C0006E00816080936E00109281008091810063
:1048D000826080938100809181008160809381005B
:1048E000809180008160809380008091910082603F
:1048F00080939100809191008160809391008091DC
:1049000090008160809390008091C10084608093CA
:10491000C1008091C10082608093C1008091C1007C
:1049200081608093C1008091C30081608093C30047
:104930008091C00082608093C0008091C20081603D
:104940008093C20080917A00846080937A00809185
:104950007A00826080937A0080917A0081608093EF
:104960007A0080917A00806880937A0010926603C2
:1049700010925603109258038091D7008160809363
:10498000D70080EA8093D80089B5806189BD89B558
:10499000826089BD09B400FEFDCF61E070E080E077
:1049A00090E00E94620C8091D8008F7C806180939F
:1049B000D8008091E000807F8093E0008091E1004A
:1049C0008E7E8093E1008DE08093E200559A209ADC
:1049D0000E94461C84E180930101809164008E7FD7
:1049E0008093640080917A00806480937A00809143
:1049F0007A0086FDFCCF00917800109179000E942A
:104A00003D0CAB01BC01C801B0E0A0E0DC0199277E
:104A100088278C019D01040F151F261F371FC90110
:104A2000B801209164002160209364006115710534
:104A30008105910511F00E9466368FB7F894409178
:104A4000490350914A0360914B0370914C038FBF0F
:104A50009090A602992049F01092A60280E090E082
:104A6000892B59F30E940000E8CF8091A702142FF0
:104A7000181B812F90910101191740F48F5F89173E
:104A800068F781E083BF889513BEE8CF81E080930B
:104A9000A6024093A7020091E9021091EA020F5F7B
:104AA0001F4F1093EA020093E902892DE8EBF3E02F
:104AB00081118FEF002481938193819381930394DB
:104AC000D1F780914703809346030E94800E809324
:104AD0004703E0910C01EC3008F0A8C0F0E0ED587D
:104AE000FA4D0C941E37AB2E7F252426D92A052C8F
:104AF000562C5B2EEA324E327B3310340C3510923A
:104B0000450385E080930B01E3EBF2E027EB32E015
:104B100086E081938383878383872E173F07C9F7B6
:104B2000B0EF6B2EB2E07B2E5301912C812C4424EC
:104B3000439413E0312E0EE0202E582CD5011D9603
:104B40001C921D9719961C92199712968C91129788
:104B5000882399F11D964C921D97882D632D0E94F4
:104B6000E836813009F465C08C918F31C9F4289CF6
:104B7000F001299CF00D1124E051FD4FC080D1803F
:104B8000E280F3800481158126813781408551853B
:104B900062857385848595850E94561EF501838301
:104BA000D50114961C928091B7028093B302809134
:104BB000BB028093B7025092BB02FFEF8F1A9F0A8D
:104BC0000EE0A00EB11C16E08116910409F0B5CFDD
:104BD0001092040181E08093A80285E08093050192
:104BE0008093060182E080930C0180E0D30112964D
:104BF0009C911297992321F016969C91911107C0D0
:104C00008F5FBEE06B0E711C833081F786E080936E
:104C1000C4021092AA021092C8021092AB02109223
:104C2000AC021092A90286E0809303010E94CA0997
:104C300015CFF5018483F401EE0FFF1FEE0FFF1F68
:104C4000E255FD4F8082B9CF80910401813009F493
:104C5000D1C008F4B9C0823009F426C181E089834B
:104C6000C80165E070E00E94F6365C0163EB862EB9
:104C700062E0962E712C552453940EE077E0372E87
:104C80007401612CD7011C914090C402141104C01E
:104C90007092B0026092B102BBEA1B9F812D112479
:104CA000869509F411C1813009F430C18091040165
:104CB000813009F444C208F44DC1823009F444C281
:104CC0006394B4E0EB0EF11CE4E06E12DBCF73945E
:104CD000FFEF8F1A9F0A7E12D3CF30EFE32E32E020
:104CE000F32EB12CD12C4BEA942E57E0A52E03E0E5
:104CF000D01202C023E0B22E8091C40293E0C92EEC
:104D00008D11C12CD70112968C911297882309F42A
:104D100047C2B99C112D1124169501E016968C916D
:104D2000811101C000E0612F660F660F660FBA9C0B
:104D3000600D112426E04DE38C2D0E940919D70146
:104D4000EC9182EC9EE0E03238F4F0E0EE0FFF1FD1
:104D5000E75FFD4F808191810E94600E8C2D90E075
:104D6000C3969093C6078093C5079093C40780931A
:104D7000C307B8E01B9FC0011124BA9C800D911D90
:104D8000112401969093C8078093C7078091B202BF
:104D900090910301813009F0F6C18091AF02823019
:104DA00009F4F1C108F0D4C1882309F4ECC18130C1
:104DB00009F4D6C1D70116968C911697882309F469
:104DC000E2C11D968C91D6C28091B202882379F0FF
:104DD000813009F043CFE091C4022EE0E29FF00160
:104DE0001124E051FD4F83810E94EC1637CF0E94C1
:104DF0003C1334CF8091A9028F5F8093A9028A303F
:104E000029F08091AB02882309F428CF1092A902DF
:104E10008091B2028823D9F0813009F01FCF8093AE
:104E2000AC02A091C4023EE0A39FD0011124A05186
:104E3000BD4F14968C93149780910201882351F0F2
:104E4000813009F00BCF87E00E943B1507CF0E940D
:104E5000B11004CF8091B1022091B00244E0849F50
:104E6000C00111248D549D4F820F911DFC012081A2
:104E7000E091AE023091AD0244E0E402F001112471
:104E8000ED54FD4FE30FF11D37FDFA95208326E029
:104E9000FC012083809106011A969C91891B8093C6
:104EA00006011092B202DACE88E00E94880E8823B2
:104EB00009F4D4CE8091C302813021F483E0809341
:104EC0000C01CCCE84E0FBCF80911C03882329F019
:104ED0008091200381110C949C3580912A038823B2
:104EE00029F080912E0381110C949C358091380318
:104EF000882329F080913C0381110C949C35E2E0D9
:104F0000E0930401F1E0F093C302D0CE8091F2026D
:104F1000882329F08091F60281110C94A2358091AA
:104F20000003882329F08091040381110C94A23599
:104F300080910E03882329F08091120381110C9433
:104F4000A23524E02093AA0232E0309304011092AB
:104F5000C302ACCE8091B202813091F008F4F4C06B
:104F6000823009F0ADCE109F9001112420513D4FA9
:104F7000AE014F5F5F4F662D872D0E941A14A0CEA1
:104F8000C12ED12C163048F40C9DF0010D9DF00D72
:104F90001124E051FD4F86818783109FC0011124A9
:104FA000AC0140515D4F5E8F4D8FE091AE0280911C
:104FB000AD0254E0E502F0011124ED54FD4FE80F7D
:104FC000F11D87FDFA9520808091AF02873008F0AF
:104FD00077CEE82FF0E0E151F84D0C941E37F6271C
:104FE0000E287D283F283F285E287728262D472D2C
:104FF0006091B1028091B0020E945F148130C9F5C6
:10500000163008F45DCEA114B10409F059CE88E041
:10501000163009F086E0D7018C9352CE262D472D0D
:105020006091B1028091B0020E945F148823A1F0C8
:10503000813009F045CE1630F0F5133008F440CE3B
:10504000121125C0409EC00111246D8D7E8D8051AE
:105050009D4F0E94ED141BC08DEF810F833048F4EB
:105060000C9DF0010D9DF00D1124E051FD4F558672
:1050700027CE163008F424CEF701308221CE9DEFE2
:10508000910F933098F41215E9F28430D9F2A114FB
:10509000B10409F015CE0C9DF0010D9DF00D112409
:1050A000E051FD4F8585852585870ACE1630C0F2F3
:1050B000833009F005CED7013C9202CE1330C8F4FC
:1050C0000C9DF0010D9DF00D1124E051FD4F368136
:1050D0008085381728F6282F269590E0230F332750
:1050E000331F821793070CF49C012783D0CF14152C
:1050F00071F2163008F0E4CDB3CF262D472D609124
:10510000B1028091B0020E945F148823A1F0813027
:1051100009F0D6CD163008F0AFCFA114B10409F0D4
:10512000CFCD0C9DF0010D9DF00D1124E051FD4FF0
:1051300095858927B9CF163008F0BDCF91CF8091E2
:10514000B202823009F40FCFC7010E94FE13B8CD1E
:10515000853009F405C18630B1F0833009F02ACEDC
:10516000E091AE028091AD0204E0E002F001112472
:10517000ED54FD4FE80FF11D87FDFA958081D701B1
:105180008D1509F41ECE9D1509F4F6C0F70187812F
:105190000E940219D70117968C910E948C19B39422
:1051A000D394BEE0EB0EF11CE6E0DE12A0CD8091C0
:1051B000C4022EE0289FC001112480519D4FFC01A4
:1051C000DE011F9601900D922A95E1F7DC011396FE
:1051D0002C9113971A963C901092CA071092C90707
:1051E000B8E02B9F90011124F901EC52F14FFE8F92
:1051F000ED8FD12CC12C10E0B5E34B2E512C0BE3DD
:10520000802E912CA32CB12C3501F2E06F0E711C75
:105210000FEFA01AB00A8091AA028113B4C083E0F4
:10522000E82EF12CB2016E197F0901E02BE04EE06F
:10523000C6010E945C10C60109969093C607809330
:10524000C5079093C4078093C307C4018E199F09B3
:105250009093C8078093C707123009F49EC0C60117
:10526000019667E370E06E197F09E12C08E01330C6
:1052700009F4B8C028E0113009F487C044E15FE0C8
:105280000E94930E832D0E948C191F5F20E1C20E95
:10529000D11C143009F0BFCF01E026E040E165E108
:1052A00080E00E94091981E792E00E947F198091B5
:1052B00005010E948C1926E040E166E18DE20E9422
:1052C000091981E792E00E947F19809106010E94EE
:1052D0008C1980910401813009F088C08091AC0262
:1052E000811192C08091AB02882309F48DC001E046
:1052F00026E045E166E184E10E94091984E792E035
:105300000E947F19F0E58F2E912CB12CA12CAEE0DC
:105310007A2E6A2CA4014051510958A34F8FC40121
:105320000C979E8F8D8FD501AD54BD4F1D0185010A
:10533000D12CC12CB02FB619B9A3E02FE1704E2E9D
:10534000EF8CF8A0E814F90409F46BC0242D40E1B7
:10535000B601C7010E940D10FFEFEF1AFF0AF2CF4E
:10536000F70186812085821709F40DCF882309F47F
:105370000ACF8585811107CF9D1111CF8EE692E06E
:105380000E947F190CCF80E04BCF4CE05FE00E9481
:10539000930EC5010E94931978CF8091040181304A
:1053A00031F0823081F48091C30281110CC0E12C74
:1053B00008E028E044E25FE067E370E0C60103969E
:1053C0000E94930E62CF67E370E06E197F09E12CB3
:1053D00008E028E04D8D5E8DC60101960E94930E77
:1053E000C301D8CF2CE048EC5EE0EACF823029F44C
:1053F0008091C302882309F471CFEE24E39408E07E
:1054000028E043EF50E106C0EE24E39408E028E0F2
:105410004BEE50E167E170E08CE190E00E94930E6A
:1054200071CFD1018C91F80131962F01873009F4A9
:1054300072C008F044C0863008F44DC0F0900401FA
:10544000F11008C08091B202882309F474C0813041
:1054500009F478C0B4E02B0E311CE0E1CE0ED11C73
:105460008201F0E4CF16D10409F064CF0FEFA01A47
:10547000B00A10E1810E911C24E0A216B10409F0DB
:1054800048CF32E0F312D2CB8091C302882309F4D3
:105490007FC0813009F0CACB00E028E046E26CE131
:1054A0008DE20E94091901E026E044E26DE18EE2FE
:1054B0000E94091989E792E00E947F19B7CB8830D2
:1054C00009F0BCCF7F0101E0E022FF2408E028E0E2
:1054D0004CE15FE028C0482F50E0749EF001759EBB
:1054E000F00D1124E051FD4F9585992309F4A6CFC5
:1054F00021E0833008F420E0749ED001759EB00D49
:105500001124A051BD4F0481A6016F8D78A18C910B
:105510000E94361893CF7F01F1E0EF22FF2408E0CC
:1055200028E044E25FE0B6016C5F7F4F8D8D9E8D79
:105530000E94930E83CF6091B1028091B0020E94CD
:10554000C01288CF8091AF02853069F0863099F320
:105550008430C9F4D1018C918350833008F07ACF24
:1055600069A1862DECCFD101EC91E33008F072CF28
:105570007E9EF0011124E051FD4F968180859817A1
:1055800008F068CFEDCF6091AE028091AD02D7CF29
:1055900000E028E041E26CE180E30E94091901E0AB
:1055A00026E04FE16DE181E30E94091981E892E074
:1055B00083CF8091C802882309F484C0813009F424
:1055C000D0C070EFE72E72E0F72EB12CA12C88240A
:1055D0008394912C7A2CD70115961C91193008F0E0
:1055E000F3C0110F1150F7018281882309F45EC0C6
:1055F00000E020E0650164E0CC0CDD1C6A95E1F779
:10560000A60170E060E080810E9436189092CA077F
:105610008092C90721E130E03093C6072093C50787
:105620003093C4072093C307D092C807C092C7071E
:1056300088E892E00E947F19D70115968C910E940C
:105640008C19E1E1F0E0F093C607E093C507F09311
:10565000C407E093C307F5E0CF0ED11CD092C80772
:10566000C092C7078BE892E00E947F19D7011C9671
:105670008C910E940219F70184850E948C198EE892
:1056800092E00E947F19812F0E940219812F0E94AF
:105690008C19D70116968C91882341F08091C8020D
:1056A000882309F493C0813009F4A3C0FFEFAF1A37
:1056B000BF0A0EE0E00EF11C13E0A116B10409F0E0
:1056C00089CFB4CA84E00E94880E811106C088E0A8
:1056D0000E94880E882309F474CF00EF12E0F12CA9
:1056E000E12CD80112968C911297882359F11696C5
:1056F0008C911697882331F11596DC90B8E0BD1592
:1057000008F18E2D0E947D12F8019485890F8487FF
:105710002D2D220F2150821710F191E09D0D9583C0
:10572000821B993009F48FE0D8011C968C93C80134
:105730000E94B51EF8018085868381E0F701EB5356
:10574000FD4F8083FFEFEF1AFF0A025F1F4F23E038
:10575000E216F10431F681E08093C80232CF80E096
:10576000EDCF84E00E94880E811106C088E00E947F
:10577000880E882309F425CF1092C5021092C60224
:105780001092C7028091E5029091E60280389C4019
:1057900021F48BE080930C0114CF8091C9028823FF
:1057A00031F080912003811102C088E0F3CF809115
:1057B0000A01813039F486E080930B011092EB02EC
:1057C00087E0E8CF85E0E6CF1FE00DCF80E992E0EB
:1057D0000E947F19F7018581893030F4872D0E945E
:1057E0007D120E948C1962CF8CE29FE00E94600EB5
:1057F0005DCFF501EB53FD4F8081882309F456CF2F
:1058000083E992E00E947F1951CF0E949A20109262
:10581000E30281E08093E40280914403811141C05E
:105820008091E5029091E60220E931E0B9010E9401
:10583000F636629FC001639F900D729F900D1124F8
:105840009093E6028093E50220910A01213031F421
:10585000805991409093E6028093E5028091E502A1
:105860009091E602803921E0920790F021E02093A8
:10587000E3028059914060E971E00E94F636617060
:1058800060930A0188E08093E1028FE08093E20256
:1058900086E080930B011092EB0287E080930C016D
:1058A000C5C91092E6021092E502F2CF80910B0179
:1058B000883008F023C1E82FF0E0EF59F34D0C9445
:1058C0001E37802D552D552D552D632D692C732D8B
:1058D0008E2D88E00E94880E882339F081E0809325
:1058E000EB0287E080930C010DC084E00E94880EDB
:1058F000882331F086E080930B011092EB02F1CF08
:105900000E947B1D80E00E94770F8091E30281114D
:105910000E946A18B12CA12C10E050E8852E912C21
:105920008091E5029091E6029C012F713327F401EA
:10593000E21BF30BEA19FB096C0145E0D694C7940E
:105940004A95E1F7C10E3C2D3170C32EA501405E92
:105950005F4F5A0160E0803A910530F0841B950B4F
:1059600060E273E00E94F63680E2689FA001112495
:10597000425D504FEE24E39408E020E270E060E0E6
:10598000CF010E94DA091F5F153051F610E000E0E8
:1059900041E068E270E0C8010E94A20F0F5F1F4F54
:1059A00001381105A9F701E025E140E86AE280E04D
:1059B0000E9409198EE190E10E94600E81E090E062
:1059C0009093C6078093C5079093C4078093C3073D
:1059D00080E390E09093C8078093C70713E0EE241C
:1059E000E394F12C0AE0D7010A9F70010B9FF00CA1
:1059F00011248091E5029091E6028E159F0520F416
:105A00008CE190E10E94600E115069F76091E5020F
:105A10007091E60290E080E04AE00E94311983E153
:105A200090E10E94600E01E010E01093C607009321
:105A3000C5071093C4070093C30785E390E09093D4
:105A4000C8078093C70782E090E10E94600E109320
:105A5000C6070093C5071093C4070093C3078AE3E2
:105A600090E09093C8078093C7078091E5029091DA
:105A7000E60200E911E0B8010E94F636081B190B96
:105A800086EF9FE060FD02C08CEF9FE00E94600EF9
:105A90000A30110508F055C084EF9FE00E94600EA7
:105AA00084EF9FE00E94600E50C0823049F481E094
:105AB0008093C9020E942E1F87E080930B0122CFA2
:105AC0001092C902F7CF8091E002893060F4909182
:105AD000E302992341F08F5F8093E00285E0809399
