:100000000C94AE090C94D6090C94D6090C94D6091C
:100010000C94D6090C94D6090C94D6090C94D609E4
:100020000C94D6090C94D6090C9408210C947721D1
:100030000C94D6090C94D6090C94D6090C94D609C4
:100040000C94D6090C94D6090C94D6090C94D609B4
:100050000C94D6090C94D6090C94D6090C94A923B7
:100060000C94D6090C94D6090C94D6090C94D60994
:100070000C94D6090C94D6090C94D6090C94D60984
:100080000C94D6090C94D6090C94D6090C94D60974
:100090000C94D6090C94D6090C94D6090C94D60964
:1000A0000C94D6090C94D6090C94D60953414749AF
:1000B00054544152492E0053434F5250494F004C23
:1000C0004942524100564952474F004C454F004368
:1000D000414E4345520047454D494E490054415514
:1000E00052555300415249455300504953434553DB
:1000F00000415155415249555300434150524943E3
:100100004F524E004E4F4E45004F4D4E49004D59F7
:1001100053544943004E41545552450053594E548F
:1001200048004E554C4C005452494B55524E0053CA
:10013000515545414D41534B005343415244524167
:10014000005241565541434B00504F4C544552527A
:100150004F52005045475348495245004D41555272
:100160004F41480047524946454C494F530046418C
:1001700045464C554646004455414C445241004387
:10018000484956414D5045524100544552525550F0
:1001900054494F4E004E45435241574C4552004D35
:1001A000415948414D00444153484F554E44004346
:1001B0005249424249540043484C4F524F41520029
:1001C0004348414D50414E5A4F4E0042554E4E45C8
:1001D00052494E4100425542424C55450042454528
:1001E0005448524F4E450058454E415543455200E4
:1001F0005350594D45524100534C5547414D4D4187
:10020000004F55544C454354524943004F445249C2
:100210004F4E004D494352554E54004C554D494E9A
:1002200041540044524942425900424F4C544E45B9
:1002300054494300415544494F55534500564F4991
:100240004449534D414C0030000000C0E0F0F8FC40
:10025000FCFCFCF8F0E0C0000000000F1F3F3D3F39
:100260003D3F3F3D3F1D0F00000078E878003844D7
:10027000D404581494586080000000070810101E21
:100280002140482C20425A6D0000C0C0409E12F20E
:100290005AF41A9E40C0C00000000C0C0B04033F2F
:1002A000553F03040B0C0C0000000000F0086466CE
:1002B000868E846870C00000000006096856506091
:1002C00021226150516E09060000709020F82452DE
:1002D00022022254F820907000000C10170D054DDA
:1002E00035057D050D17100C0000000000C0201022
:1002F000981410A8C40000000000000E0D4364789C
:10030000080B7B64430D0E0000008040A050084A9B
:10031000848A4890A0C0000000000F102F50404079
:100320004845645425190E000000006090103844C0
:10033000FE829AC29A827C00000000003029652665
:1003400064283000000000000000000000000000F1
:10035000C0A0E000C0A0E00000003048444C424F84
:1003600046524A53524A54380000C020120A8A4A60
:100370002C2A2A4A9220C00000000F102040474833
:100380005053534827100F0000008040A07088246D
:10039000441444A870A04080000021321C446A39F3
:1003A0000909396A441C3221000030509030D0A035
:1003B000C03CB2307830FC02000001472D1B4D3AA2
:1003C0000D5A250904090700000018FC1C0844C642
:1003D000C66E1EBE9C68D0E00000060F1F2F464070
:1003E00040464D4A4A2D160F0000000000C03884D8
:1003F0003424B8F424380000000000141A3F5A3A9C
:100400001A3B5A3E1B1400000000000080D87C56A6
:100410004AD64A7CC0800000000006090D63567A67
:100420001A157A56630D090600002050A08000803E
:10043000601068088810A0C000000000010E112F95
:100440004044596E22665A6D0000E010084452A2E2
:10045000020202A45870C00000007D4256664C6C37
:100460002D256D4C6E465D60000060C00080808070
:10047000809CB448AC0CB0C0000078465168596A02
:1004800008794258685F61010000C030B0808CF28A
:10049000042868ACA86CF20C00001E214021202327
:1004A000264B2A2B4B3A070000000000E010C8C87A
:1004B000D82808C8D0E0000000000A05370C7119E0
:1004C000256C3C6D251F7000000000C060202010CE
:1004D00038C4B4A48498E0000000060910385456CB
:1004E000753750506F0506000000F00804324AA42A
:1004F000106018A4C23A04000000010224485061B0
:1005000045422519070000000000E0F008C4244619
:100510001C442CF61C4428F00000030D1224494210
:1005200042464942463A010000003844840488505B
:10053000203028946444B8000000060910100F1001
:100540002223202422130F000000DA3498402226B0
:10055000CA3204246890608000003D425169596AA3
:1005600009714254745F61010000C020C000F0A80E
:10057000A4AEB884B8A4FE0000003B4443526324F8
:1005800028494C2A2C49576000000080C0201010D8
:100590003048F40AA60A26F8000007087F413949C6
:1005A0007A0A794038497F00000000E01008C4E46E
:1005B000A2420244A4E8D0E000000C172072567654
:1005C0004C464C464C76563B0000800080C0647C14
:1005D000FEEEFE7EECE4C080000003070D1A3B5BDC
:1005E0004B1B3D5F4E0101030000C020102040F076
:1005F000A8F40A6E4A0C30C000001F080C12266CCA
:10060000404A5C73515F6D000000C00894E412C85A
:1006100068C808C872E414C8000000014835020424
:1006200009080E0805033548000000C0344A74402C
:10063000344A7440B44A340000000F102040424B4A
:1006400050504A23100F00000000C0E0F0F8FCFEFC
:10065000FEFEFEFCF8F0E0C000000F1F3F7F7F7F32
:100660007F7F7F7F7F3F1F0F0078FCFCFCF8FCFE44
:10067000FEFEFCFEFEFCF8E08000070F1F3F3F3F40
:100680007FFFFF7F7FFFFFFF6DC0E0E0FEFFFFFF0A
:10069000FFFEFFFFFEE0E0C0000C1F1F1F0F3F7FAB
:1006A000FF7F3F0F1F1F1F0C000000F0F8FCFEFF34
:1006B000FFFFFEFCF8F0C00000060F7FFFFFFFFF0A
:1006C0007F7FFFFFFFFF7F0F0670F8F8F8FCFEFF4B
:1006D000FFFFFFFEFCF8F8F8700C1E3F3F1F4FFFB6
:1006E0007F7FFF7F1F3F3F1E0C000000C0E0F0F83F
:1006F000FCFEFCFCEEC4000000000E1F5FFFFFFFCD
:100700007F7FFFFFFF5F1F0E0080C0E0F0F8FEFF5D
:10071000FEFFFEF8F0E0C000000F1F3F7FFFFFFF6D
:10072000FFFFFFFF7F3F1F0E000060F0F8F8FCFEA8
:10073000FFFFFFFFFFFFFE7C00000030797FFF7F9F
:10074000FF7D79310101000000000000000000C0C1
:10075000E0F0F0E0E0F0F0E0003078FCFEFEFFFFBB
:10076000FFFFFFFFFFFFFF7C38C0E0F2FFFFFFFF4E
:10077000FEFFFFFFFFF2E0C0000F1F3F7FFFFFFF04
:10078000FFFFFFFF7F3F1F0F0080C0E0F0F8FCFE7F
:10079000FEFEFEFCF8F0E0C08023777F7FFFFF7F46
:1007A0007F7F7FFFFF7F7F772330F8F8F8F8F8F03E
:1007B000FCFEFFFEFCFCFEFF020147EF7F7FFF7F98
:1007C0007FFF7F3F0F1F0F070018FCFEFEFCFEFFA0
:1007D000FFFFFFFFFEFCF8F0E0060F1F3F7FFFFF6B
:1007E000FFFFFFFFFF7F3F1F0F000000C0F8FCFE70
:1007F000FEFEFCFEFE7C38000000143E3F7FFF7FC3
:100800003F7FFF7F3F3F140000000080D8FCFEFFC9
:10081000FFFFFFFEFCC0800000060F1F7FFFFFFFF1
:100820007F7FFFFFFF7F1F0F062070F8F0E080E062
:10083000F0F8FCFCFCF8F0E0C00000010F1F3F7F67
:10084000FFFFFFFF7FFFFFFF6DE0F0F8FCFEFFFF03
:10085000FFFFFFFEFCF8F0C0007DFFFFFFFFFFFF82
:100860007F7FFFFFFFFFFFFD6060F0E0C0C0C0C002
:10087000DCFEFEFCFEFEFCF0C078FEFFFFFFFFFF8B
:100880007FFFFFFFFFFFFF6301C0F0F8F8FCFEFFF2
:10089000FEFCFCFEFCFEFFFE0C1E3F7FFF7F7F7F09
:1008A0007FFF7F7FFF7F3F07000000E0F0F8FCFC48
:1008B000FCFCFCFCF8F0E000000A1F3F7F7FFF7F9C
:1008C0007FFF7FFF7F7FFF700000C0E0F0F0F0F857
:1008D000FCFEFEFEFEFCF8E000060F1F3F7FFFFF60
:1008E000FF7FFFFFFF6F0F0600F0F8FCFEFFFFFE2B
:1008F000FCF8FCFEFFFF3E04000103277FFFFFFF23
:10090000FFFF7F3F1F07000000E0F0F8FCFEFEFF46
:10091000FEFEFEFFFEFEFCF8F0030F1F3F7FFFFF11
:10092000FFFFFFFFFF7F3B0100387CFEFEFEFCF86F
:10093000F0F8FCFEFEFEFCB800060F1F3F3F1F3F15
:100940007F7F7F7F7F3F1F0F00DAFFFEFCFEFFFFF0
:10095000FFFFFEFEFCF8F0E0803D7FFFFFFFFFFFA2
:100960007FFFFFFFFFFFFF6301C0E0F0E0F0F8FC56
:10097000FEFFFEFCFCFEFFFE003B7FFFFFFFFF7F54
:100980007FFFFF7F7FFFFFF7600080C0E0F0F8F897
:10099000F8FCFEFFFFFFFFFEF8070F7FFFFF7FFF62
:1009A000FF7FFFFF7FFFFF7F0000E0F0F8FCFEFE0F
:1009B000FFFFFFFEFEFCF8F0E00C1F3F7FFFFFFF94
:1009C000FFFFFFFFFFFFFF7F3B80C080C0E4FEFE14
:1009D000FFFFFFFFFEFEE4C08003070F1F3F7FFF06
:1009E000FF7F7FFFFF4F030703C0E0F0F8F0F0F850
:1009F000FCFEFFFFFFFEFCF0C01F3F1F1F3F7FFFFD
:100A0000FFFFFFFFFFFFFF6D00C0E8FCFEFEFFFEE3
:100A1000FCFCFCFEFFFEFEFCC800014BFF7F3F1FFD
:100A20001F1F1F1F1F3F7FFD4800C0F4FEFFFEFC7D
:100A3000FEFFFEFCFEFF7E34000F1F3F7FFFFFFF27
:100A4000FFFFFF7F3F1F0F000006030159090F063C
:100A5000002F00202000454E004552524F52002FDB
:100A6000005850004C56004552524F5200020505A6
:100A70000E050502000080C0A0A19F9F8F8984847D
:100A800084848C8C9494A4A4C4C48408081010207A
:100A90002040C080000101FF80B0B080FF80F88856
:100AA00088F880FF80B0B080FF81B1B1B181B1B171
:100AB000B181FF0101F80810083820202020203ED5
:100AC000223E203F213F081008F808100838202057
:100AD00038081008F8FF809B9B809B9B80F38BF865
:100AE0008BF3809B9B809B9B80FF809B9B809B9B31
:100AF000809B9B80FF806038444A2A2549492525F0
:100B00004949252549492525494925254949252A70
:100B10004A443860800102018242BE01922A91015A
:100B2000E212090912E201912A920181028201BEB8
:100B3000428201020120E01008840C144CA4120926
:100B400013A5491109850D15E52525A5252525267A
:100B5000A42428F02000FF809F909F80F08889FACD
:100B60008988F0809F909F80FF809F909F80809FCA
:100B7000909F80FF0038C8108F13CBBB000080808F
:100B8000800000B8C8108F13CBBB80000080B8C8AD
:100B9000108F13CB3B00FF809980FF8081F188F894
:100BA00088F18180FF809980FF809881819880FF03
:100BB000809980FF000098F4545434545474F860C1
:100BC000000039323F3F3F3F3F3D397600000C7A0D
:100BD000AAAA9AAAAABA7C30000002457F7F1F5FAA
:100BE0007D7C0700000018F454543454D474F86029
:100BF000000038303F3F3F3F3C3D3F70000088F8E9
:100C00002C5C2C5C2C2C9868000039323F313F3131
:100C1000333539760000047C96AE96AE96964C3409
:100C2000000002457F781F5A7D7C0700000008F80D
:100C30002C5C2C5CAC2C9868000038303F313F3382
:100C400034353F70000030E864246424C4048870A4
:100C50000000040A7F417F454A495E600000187425
:100C6000B292B29262824438000002057F407F4215
:100C7000454C5760000030E864246424C404887044
:100C80000000040A7F417F454A495E60000080FC05
:100C9000246464242404FC00000039323F21212113
:100CA000233539760000007E92B2B29292827E00A5
:100CB000000002457F701052757C0700000000FCA8
:100CC00024646424A404FC00000038303F21212364
:100CD00024353E700098FCFEFEFEFEFEFEFEFCF893
:100CE00060397F7F7F7F7F7F7F7F7FFF760C7EFFF6
:100CF000FFFFFFFFFFFFFE7C300247FFFFFF7FFF8C
:100D0000FFFF7F070018FCFEFEFEFEFEFEFEFCF865
:100D100060387C7F7F7F7F7F7F7F7FFF7088FCFCD8
:100D2000FEFEFEFEFEFEFCFC68397F7F7F7F7F7F3C
:100D30007F7F7FFF76047EFEFFFFFFFFFFFFFE7ECB
:100D4000340247FFFFFF7FFFFFFF7F070008FCFC27
:100D5000FEFEFEFEFEFEFCFC68387C7F7F7F7F7F10
:100D60007F7F7FFE7030F8FCFEFEFEFEFEFEFCF88C
:100D700070040E7FFFFFFFFFFFFFFFFE60187CFE89
:100D8000FFFFFFFFFFFFFE7C3802077FFFFFFFFF33
:100D9000FFFFFFF76030F8FCFEFEFEFEFEFEFCF8F3
:100DA00070040E7FFFFFFFFFFFFFFFFE6080FCFE71
:100DB000FEFEFEFEFEFEFEFC00397F7F7F7F7F7F12
:100DC0007F7F7FFF76007EFFFFFFFFFFFFFFFF7E3D
:100DD000000247FFFFFF7FFFFFFF7F070000FCFED1
:100DE000FEFEFEFEFEFEFEFC00387C7F7F7F7F7FE6
:100DF0007F7F7FFE70FC045404FC80F01050105084
:100E00001050105010F080FF0155015501FF80FC7B
:100E1000045404FC808C5291F191528C408C52917C
:100E2000F191528C408C5291F191528C408C5291A4
:100E3000F191528C4080402030301018383C3C18E2
:100E4000103048840201030707060C1C0C8850E090
:100E50007070204080FFFFFEFEFFFFF0F0F8F8F812
:100E6000F0F0F8F8F8F0F0F8F8F8F0F0F8F8F8F03A
:100E7000F0F8F8F8F0415245204E4F5720484541D0
:100E80004C454400414C4C20594F5552205041573D
:100E90004E5300594F5520474F5420414E2048454E
:100EA00052420047414D4520534156454400284297
:100EB0002953415645002841295041574E5300308F
:100EC000204D45544552530030004C4149523A00A0
:100ED000494E4E203A004E455854204445535449FB
:100EE0004E4154494F4E0030204D45544552530019
:100EF000300044495354414E4345205452415645D5
:100F00004C454400D5F08D14A1C881CFD9F1AF2054
:100F10000000B00000A170E150964F26900F1D0711
:100F20000C009669004AE44A00484440008068107A
:100F3000000F99FB8F9DBDBBFB77D4D4DF1F1A1A1E
:100F4000FE7F5D5DFF805A0000A0A4AA0010BA34A5
:100F500000FF5953F3FF9B9B9EFFB9B996FF9595F0
:100F6000D19FF4940FFC295F91FF1838F8FF9294F9
:100F7000FFFF95D5F7BFB5DDD7F18F81F1F788C8B1
:100F8000F779C6467909FD9B090196F800828182AE
:100F900080507162007756560076763700A2B7739C
:100FA0000107720600782750007334740077517679
:100FB000007F55F700477110003247720073647369
:100FC0000015A2750061679400009F6060F4F2F65E
:100FD000F24552524F52000F0B0B093C08103C785F
:100FE0004848303C367F6F7F363C0041225D225DB1
:100FF000221C0004085763750810002A554141411E
:10100000221C003F7F4777005555001F21495D494D
:10101000211F000E11214221110E003B787B606BD5
:10102000683B00037D6D75757360003C7EE7C3C34C
:10103000E77E3CC3E77E3C3C7EE7C3300052454C34
:1010400045415345002F3900484552422000544540
:10105000414D00330032003100534C4F5400534C8B
:101060004F54005049434B002842294E4F2100283D
:1010700041295945530052454C454153453F004F86
:101080005554205041574E5321004C454156452060
:101090005749544800594F552043414E4E4F540034
:1010A000414354494F4E2100444F20544849530076
:1010B000594F552043414E4E4F540000080C0E002E
:1010C000000000000000000E0C080000103070004E
:1010D0000000000000000070301000181C1E1F1FD0
:1010E0000000000000001F1F1E1C18183878F8F8B8
:1010F000000000000000F8F8783818010307030129
:1011000000000004060706040000002842294E4F94
:1011100000284129594553004B454550205041571F
:101120004E3F002842294E4F21002841295945535E
:101130000045524153452043555252454E54204795
:10114000414D453F004E45572B00434F4E54494EAD
:10115000554500284229002841294E4557001818B6
:1011600018FFFF18181880E0781C867E3C0008C421
:10117000E606068EFCF800F0F88C86063E1C0000A1
:10118000000000C0701C8EFE0008C4E606068EFC3F
:10119000F80000C0701C8EFE00F0F800000000FC9B
:1011A000FE00F0F818F8F000FCFE1F3F60606030B1
:1011B0001C0E007F7F030F3F7140001E3F61606087
:1011C000301C0E00707C1F0707037F7F00007F7FAD
:1011D00003030301707C1F0707037F7F003F7F60CD
:1011E000383C607F3F007F7F003F7F607F7FF0F86B
:1011F0008C86063E1C0000F0F818F8F000FCFE009B
:1012000008C4E606060EFCF81E3F616060301C0E46
:10121000007F7F003F7F607F7F00007F7F60607086
:101220003F1F303018F8FC0C0606F0F8000080C0B4
:10123000FCFE00F0F88C86063E1C000000007F7F5C
:101240000000007F7F060301007F7F001E3F61607A
:1012500060301C0E080B00020202000009040000AE
:10126000010202000005240010010524010101040F
:101270002402060524060001070581031000400929
:10128000040100020A0000000705020240000007F6
:101290000583024000000403090412010002EF026A
:1012A000014041233680000101020301417264754F
:1012B000696E6F204C4C430041726475696E6F20FB
:1012C0004C656F6E6172646F000070983C1C7C1CF2
:1012D0007C38D090000076392D2F2F292F2F3239CE
:1012E0000000384C9E8EBE8EBE9C68080000000731
:1012F0007C655714677F4502000070983C9C7C1CFD
:101300007C38D0100000703F2D2C2F292F2F303823
:101310000070F8FCFEFEFEFEFEFCF8F89076FF7F03
:101320007F7F7F7F7F7F7F7F39387CFEFFFFFFFFDE
:10133000FFFEFC7C0800077FFFFFFF7FFFFFFF47EA
:101340000270F8FCFEFEFEFEFEFCF8F81070FF7F57
:101350007F7F7F7F7F7F7F7C3800262411241FBE04
:10136000CFEFDAE0DEBFCDBF12E0A0E0B1E0E0E613
:10137000FEE602C005900D92A03AB107D9F727E02A
:10138000A0EAB2E001C01D92A13DB207E1F719E069
:10139000CEEAD9E004C02197FE010E941C37CD3A65
:1013A000D107C9F70E945E240C942E370C940000DC
:1013B000ECEBF3E080E0A0E0B8E000800EBC81112F
:1013C000012C1197A0FDFDCF0192B9F70DB408953E
:1013D0004F925F926F927F928F929F92AF92BF9245
:1013E000CF92DF92EF92FF920F931F93CF93DF93F1
:1013F000A22FB0E0EC01CA0FDB1F1C161D060CF07B
:101400009DC0803891050CF099C0603471050CF0D6
:1014100095C0162F1770E3E075956795EA95E1F78B
:10142000362FEE27FF27E81BF90B97FD02C0F0E0EF
:10143000E0E0C038D10514F020E8281B2E1B0695EB
:1014400006950695EB01C00FD11D299709F45EC0E2
:101450005B01B694BA2CAA24B794A794A80EB91E1F
:10146000AE0EBF1EE40FF51FC22FD0E0CC2061F0FE
:10147000AE0141505109E40FF51FAD014C1B5D0B4E
:1014800097FF47C0E41BF50B612E012E000C770877
:10149000C50184549C4F5D01AC1ABD0A2D014C0E50
:1014A0005D1ED0E0C0E0C21708F03CC04491442368
:1014B00041F150E0062C02C0440F551F0A94E2F798
:1014C00037FD0AC04C018C0E9D1ED401FC90EE200D
:1014D00019F1F42AD401FC92112399F037308CF4DD
:1014E0004E01B0E88B0E911C880E991ED401FC9021
:1014F0004F2D452BE11003C0452F40954F21D401BE
:101500004C93CC2069F031972196CDCF08E0061B93
:101510009FCFE40FF51FB8CFD42ED094FD20DACFA3
:101520003196F2CF3F5FCC20D1F0E40DF51D80580D
:101530009F4F432F461B401708F4B3CFDF91CF9145
:101540001F910F91FF90EF90DF90CF90BF90AF90E1
:101550009F908F907F906F905F904F900895EA0DCD
:10156000FB1DE5CF480F592F511D1416150684F5A4
:10157000803891056CF597FF02C090E080E041381B
:10158000510514F040E850E0481BFB01E770FF27CD
:1015900021E001C0220FEA95EAF777FF02C0695FF8
:1015A0007F4FFB0133E0F595E7953A95E1F7F69526
:1015B000FE2FEE27F795E795E80FF91FE454FC4F4F
:1015C000415030F08191DF011197822B8C93F8CF3D
:1015D0000895FC0180916A03882311F13FB7F894C4
:1015E00082E08093E9002091F200822F90E01816AB
:1015F000190614F481E090E0882339F0289844E635
:10160000409369034091F1004083222339F02091F7
:10161000F200211103C02BE62093E8003FBF08959C
:101620008FEF9FEF08952FB7F89483E08093E90040
:101630009091E800892F807295FF04C09091F2008C
:1016400080E4891B2FBF08958091610381110DC033
:1016500082E080935D0384E080935E0310926003D8
:1016600010925F0381E0809361038DE593E008951C
:10167000CF93DF931F92CDB7DEB76983DC01ED9185
:10168000FC910280F381E02D41E050E0BE016F5FEC
:101690007F4F09950F90DF91CF91089583E080935C
:1016A000E9008091F200882319F08AE38093E80032
:1016B00008950E94130B90E00895CF93DF931F923B
:1016C000CDB7DEB7FC018485958597FD08C02FEF67
:1016D0003FEF358724870F90DF91CF910895CE019A
:1016E00001960E94E90A019719F4898190E0F3CFED
:1016F0008FEF9FEFF0CF0F931F93CF93DF931F9246
:10170000CDB7DEB78C01FC018485958597FF0BC0B2
:10171000CE0101960E94E90A019771F4898190E057
:10172000F80195878487F801848595850F90DF916E
:10173000CF911F910F9108958FEF9FEFF1CFFC0193
:101740008485958597FD0BC09FB7F89482E08093C0
:10175000E9008091F2009FBF90E0019608959FB745
:10176000F89482E08093E9008091F2009FBF90E0BE
:10177000089540915703509158032091550330919B
:10178000560342175307B4F49091E8009570E1F3C3
:101790009091E80092FD19C08093F1008091570369
:1017A0009091580301968F739927892B19F48EEF26
:1017B0008093E8008091570390915803019690938D
:1017C00058038093570381E0089580E00895DF92E5
:1017D000EF92FF920F931F93CF93DF93D82E8A013E
:1017E000EB017B01E40EF51ECE15DF0559F0D7FEA7
:1017F00012C0FE0184910E94B90B21968111F4CF91
:101800000FEF1FEFC801DF91CF911F910F91FF9054
:10181000EF90DF9008958881EECF0F931F93CF93C1
:10182000DF931F92CDB7DEB782E0898342E450E0B8
:1018300064E572E180E80E94E70B0E94240BDC0162
:1018400012960D911C910115110589F0D801ED91A9
:10185000FC910280F381E02DBE016F5F7F4FC801D4
:10186000099597FD04C0F80100851185ECCF8981A9
:101870000F90DF91CF911F910F910895615030F03B
:101880002091F100FC0120830196F8CF289884E68E
:101890008093690308953FB7F89480915103909124
:1018A0005203A0915303B091540326B5A89B05C0E1
:1018B0002F3F19F00196A11DB11D3FBFBA2FA92FCF
:1018C000982F8827BC01CD01620F711D811D911DCC
:1018D00042E0660F771F881F991F4A95D1F7089538
:1018E0008F929F92AF92BF92CF92DF92EF92FF9230
:1018F0006B017C010E944B0C4B015C01C114D104B3
:10190000E104F104B9F00E944B0C681979098A09C5
:101910009B09683E73408105910580F321E0C21A5E
:10192000D108E108F10888EE880E83E0981EA11C1A
:10193000B11CE4CFFF90EF90DF90CF90BF90AF90BD
:101940009F908F9008958F929F92AF92BF92CF9267
:10195000DF92EF92FF920F931F93CF93DF936C016F
:101960007B018A0180911801882309F45CC0809171
:101970006A03882309F457C080915C0380FF05C087
:101980008091E00082608093E000E801B12C8AEF52
:10199000A82E93E0892E2AE3922E209711F4BB20E3
:1019A000D9F10E94130B81110AC0AA94AA20D9F17F
:1019B00061E070E080E090E00E94700CEECF8C1748
:1019C0001D0611F00CF08C2F9FB7F8948092E9005F
:1019D0002091E80025FD02C09FBFDFCF282F30E017
:1019E000C21BD30BF701815020F041914093F100CD
:1019F000FACFE20EF31EBB2021F09092E800B12C4A
:101A0000EBCF8091E80085FDE7CF9092E800BB2402
:101A1000B394209709F3F3CF5D9884E680935B033A
:101A2000101611063CF081E090E0F601938382836A
:101A300010E000E0C801DF91CF911F910F91FF905E
:101A4000EF90DF90CF90BF90AF909F908F900895D0
:101A5000AF92BF92CF92DF92EF92FF920F931F93BC
:101A6000CF93DF936C017B018B01040F151FEB01FA
:101A70005E01AE18BF08C017D10759F06991D601B1
:101A8000ED91FC910190F081E02DC6010995892B23
:101A900079F7C501DF91CF911F910F91FF90EF90E2
:101AA000DF90CF90BF90AF9008956F927F928F920A
:101AB0009F92AF92BF92CF92DF92EF92FF920F93DD
:101AC0001F93CF93DF934C017B01C22F102F98E01F
:101AD000A92EB12C642E669466946694712CCA016A
:101AE00087709927892B79F5D40117962D913C9110
:101AF000C7019927B9010E940837269DF001279D4B
:101B0000F00D369DF00D11248E0F9F1FD4011596F8
:101B1000ED91FC91E80FF91F2081111112C0C095C1
:101B2000C223C083DF91CF911F910F91FF90EF905F
:101B3000DF90CF90BF90AF909F908F907F906F90ED
:101B40000895C22BEECFD0E04770C42ED12C83E095
:101B5000660C771C8A95E1F79E0101C0220F4A9519
:101B6000EAF7012FA301B701C4010E94550DA3019B
:101B7000485F5F4FC5018C199D0902C0D595C79577
:101B80008A95E2F7A7CF5F926F927F928F929F9292
:101B9000AF92BF92CF92DF92EF92FF920F931F937B
:101BA000CF93DF93EC016A30F1F48D859E859C879D
:101BB0008B878C892F853889820F932F911D988B65
:101BC0008F8781E090E0DF91CF911F910F91FF907F
:101BD000EF90DF90CF90BF90AF909F908F907F90CD
:101BE0006F905F900895AB84BC84693031F429E034
:101BF000A20EB11CBC86AB86E4CF3DEFA3163FEF2F
:101C0000B3060CF45DC08F819885A816B9060CF058
:101C100057C0CF84D8888DEFC8168FEFD8060CF444
:101C20004FC089859A85C816D9060CF049C0603224
:101C300008F46FE780EE860F9FE9960F9A3118F44B
:101C40009FEFC91AD90A8C3011F08B3119F42FEF9C
:101C5000C21AD20A869534E0839FC00111249C01E8
:101C60002F5E304F7901912C812C162F1170F701C6
:101C7000E80DF91D549011112DC0352D3F70532ED4
:101C80003501680C791C8C81882361F001E0898919
:101C90009A89892B09F000E02FE0A601B301CE015B
:101CA0000E94550D0989252DA601B301CE010E9480
:101CB000550D8FEF881A980A94E089169104B9F6A9
:101CC0008B8990E004962B853C85820F931F9C871F
:101CD0008B8777CF52948FE05822D2CF0F931F93E8
:101CE000CF93DF938C01D0E0C0E0F801EC0FFD1F33
:101CF0006491662341F08CEB97E00E94C30D892B21
:101D000011F02196F2CFCE01DF91CF911F910F916B
:101D10000895BC0190E080E00C94700C8FB1809528
:101D2000807F669B88601C9B8460089590914A0325
:101D3000982329F490914B03982381E009F480E0E3
:101D400008952F923F924F925F926F927F928F925F
:101D50009F92AF92BF92CF92DF92EF92FF920F933A
:101D60001F93CF93DF93CDB7DEB728970FB6F894C4
:101D7000DEBF0FBECDBF822E912C9401280F391FDC
:101D8000121613060CF08BC0803891050CF087C03A
:101D9000603471050CF083C09B01277033273E83AC
:101DA0002D83069506950695202F30E03C832B83E6
:101DB0002B0123E0559447942A95E1F7920136953B
:101DC000322F222737952795280F391F24543C4F4F
:101DD0003A01D20148E050E0BA01ED81FE816E1B6C
:101DE0007F0B7A8369838C0170E060E01901F0E871
:101DF0002F0E311C17FD37C06901C60ED71EF60124
:101E0000F080A301460F571F58874F8351E0EF81A1
:101E1000F885E5125DC0A490B12C0D8002C0AA0C1B
:101E2000BB1C0A94E2F7AF28F601A0824D815E81C7
:101E3000452BC9F0A730B105B1F0A101460F571FDE
:101E4000FA01F080F1E0EF1251C0EF81F885D490F3
:101E5000ED2DF0E0098002C0F595E7950A94E2F7D0
:101E6000FE2AFA01F0826F5F7F4F0F5F1F4F6815E8
:101E7000790524F40038110509F0BCCF11962058DB
:101E80003F4F680C791CAD01441955096B817C8169
:101E90004617570724F4A830B10509F0A4CF2896B7
:101EA0000FB6F894DEBF0FBECDBFDF91CF911F916B
:101EB0000F91FF90EF90DF90CF90BF90AF909F90E9
:101EC0008F907F906F905F904F903F902F900895EC
:101ED000449150E00D8002C0440F551F0A94E2F770
:101EE000409550954F21F6014083A0CFEF81F885B2
:101EF000D490ED2DF0E0098002C0F595E7950A94A5
:101F0000E2F7E095F095FE22ACCFCF92DF92EF9210
:101F10000F93CF93DF93C0916B0398E1C99FE001CA
:101F20001124C82ED12CAE014F5E5C4EEE24E394FA
:101F300000E12CE068E170E0C6010E94A10EAE0154
:101F400047535D4EE12C2CE068E170E0C6010E9431
:101F5000A10EDF91CF910F91EF90DF90CF90089578
:101F600080389105B8F460347105A0F420E191E067
:101F700061FD94E060FD990F62FD9295687F269F58
:101F8000D0011124A80FA454BC4F8C9140FF03C072
:101F9000892B8C93089590958923FBCFFF920F9303
:101FA0001F93CF93DF93EC018B01F42E42FF0BC004
:101FB00041E001960E94B00F41E0B8016F5F7F4F92
:101FC000CE010E94B00FF1FE0DC041E0B801CE017C
:101FD00001960E94B00F41E0B80161507109CE0135
:101FE0000E94B00FF3FE0DC041E0B8016F5F7F4F5C
:101FF000CE010E94B00F41E0B801CE0101970E94CE
:10200000B00FF0FE12C0B8016150710941E0CE017D
:102010000E94B00F41E0B801CE010197DF91CF914E
:102020001F910F91FF900C94B00FDF91CF911F91F2
:102030000F91FF900895DF92EF92FF920F931F93FD
:10204000CF93DF937C01D22E8B01040F111DEB0186
:1020500077FF02C0D0E0C0E0C8010134110514F0E0
:1020600080E490E0C817D9073CF44D2DBE01C701AC
:102070000E94B00F2196F0CFDF91CF911F910F9169
:10208000FF90EF90DF900895CF92DF92EF92FF9252
:102090000F93CF937C01842F41E0420FC3E0C20F26
:1020A0009B01215031096901202F813081F4C70142
:1020B00001960E941B10202F4C2FB601C701CF9113
:1020C0000F91FF90EF90DF90CF900C941B10C70101
:1020D0000197EFCF4F925F926F927F928F929F9274
:1020E000BF92CF92DF92EF92FF920F931F93CF9305
:1020F000DF934C01EB01142FE22EB02E8EEF682EF1
:10210000640E64018FEFC81AD80A26016C0C7D2C6E
:10211000711C4614570454F42B2D4E2DBE01C201E0
:102120000E941B109FEF491A590AF3CF8E2D83503E
:10213000990B7C012196C401810F911D0B2D9701F4
:1021400041E0BE0102970E944410970142E0BE01A7
:10215000C6010E944410DF91CF911F910F91FF9013
:10216000EF90DF90CF90BF909F908F907F906F9077
:102170005F904F900895089590E080E008953F9219
:102180004F925F926F927F928F929F92AF92BF9287
:10219000CF92DF92EF92FF920F931F93CF93DF9333
:1021A00082E08093020142E050E063E070E0C12CE5
:1021B0000EE0A02E362FE8EBF2E020E0D42E1EEF4A
:1021C000B12EB60E2F01460E571ED2016C908DEF28
:1021D000860D33243394320E833008F094C0A69CCD
:1021E000D0011124AC50BD4F1A969C9180910601EC
:1021F000981708F088C0B1E0BB1508F401C122238C
:1022000009F44DC09FEF920F04E0909FE00111246C
:10221000DE01A854BD4F13968C918630A1F582E063
:10222000DE01A854BD4F7D01E40EF51EE7010881D3
:10223000033008F003C1D2E0DD1227C08E5FE32E29
:1022400000E0DF01A40FB51F8C9012E0181560F5B7
:10225000C6E08C16E9F1233009F407C19924939460
:10226000878016E08112912C1496AC91A33008F06F
:10227000F2C093949394891508F0F4C0932DE32E43
:10228000892D00E0EFC080E0CBCF8F5FD8CF063044
:1022900009F0DCC08111D3CF90E0E12C03C090E0C5
:1022A000E12C80E002E0CDCF9380D6E09D1669F06E
:1022B000D2E09D2E891578F670900301871459F2AB
:1022C000892D922FED2C01E0C6CFC3E09C2EF2CFDA
:1022D000823008F0C0CF922FED2C82E000E0BBCF1F
:1022E000843021F0B0910301AB136EC0233009F4A8
:1022F00076C0E201AC81A33008F46BC0A63008F0D0
:102300006EC093116CC0232D3496243009F05ACF3F
:10231000615071094150510908F04CCF8091020180
:10232000823009F087C09091B102911105C080916F
:10233000B0028F5F8093B0028091B0028F3011F0B5
:10234000992381F11092B1021092B00280910001A4
:102350000EE0809FF0011124EC50FD4F9681911109
:102360000EC0E4EFF2E080E09281992319F09681AB
:10237000911105C08F5F3E968330B1F786E0809360
:10238000C9021092AF02109204011092B70280911C
:102390000501853008F084E08B5F8093050186E0BD
:1023A00080930301DF91CF911F910F91FF90EF90E8
:1023B000DF90CF90BF90AF909F908F907F906F9065
:1023C0005F904F903F900895992DE32E01E084E0B7
:1023D0008DCF843021F0B0910301AB1326C0C81615
:1023E00008F091CF6092C90200930201E092B2021C
:1023F0009093B3023093B5022093B602C82E83CFD8
:102400008081833040F0863009F07DCF922FE12C1F
:1024100000E085E0E4CF90910301891709F473CFC0
:10242000922FE12C01E082E0DACF932DE32E01E040
:1024300084E0D5CF81E08093B702B4CF12960C919F
:1024400012971196AC91A33008F421CF90E0E12CC3
:1024500002E080E0F6CEB681A581A33018F4B63054
:1024600009F409CF222309F444CF99249A94920EB7
:10247000C4E09C9ED0011124A854BD4FA60FB71FE5
:10248000AC91A33008F42CCFA63008F02FCF9912CE
:102490002DCF922FE32E02E080E028CF8091F10231
:1024A000803249F09091F002903299F48093F002DA
:1024B00080E28093F1028091F202803279F0909173
:1024C000F102903249F48093F10280E28093F202AB
:1024D00008958913F0CFEACF8917A9F30895CF9310
:1024E000C82F80E80E94960E882339F0809107015A
:1024F000882319F081508093070180E10E94960E95
:10250000882339F0809107018C1718F48F5F80932E
:102510000701CF910895282FE4EFF2E090E081E0E9
:1025200052813581468160A974A5772319F0611124
:1025300001C08F5F291749F0552339F0442329F052
:10254000393018F4823008F081509F5F3E96933006
:1025500039F7089590914803911189E08093A10281
:102560008093A2028093A302089580916B0381302F
:1025700079F48091A002811108C082E080936B03FE
:1025800080916B038093A002089510926B03F8CFA3
:102590008093A00281E080936B030895CF92DF9235
:1025A000EF920F93CF93DF9390E1699F6001112425
:1025B000C82FD0E0249684E0CC0FDD1F8A95E1F788
:1025C000E12C00E120E14BED50E1B601CE010E948B
:1025D000A10EEE24E39420E14BEB50E1B601CE01D5
:1025E0000E94A10EDF91CF910F91EF90DF90CF90DD
:1025F0000895CF9380E80E94960EC091B30288237D
:1026000051F11C1644F5C150C093B3028091B3023E
:10261000082E000C990B2091B60228171906C9F450
:102620002091B50230E08091B202082E000C990B87
:102630002817390771F0E091C9024EE0E49FF001DC
:102640001124EC50FD4F41E0281739070CF440E00D
:102650004483CF91089580E10E94960E882311F063
:10266000C33084F080E20E94960EC091B2028111C4
:102670000BC080E40E94960E882341F2C33034F6EA
:10268000CF5F05C0CF5FC0CF1C169CF7C150C09371
:10269000B202BCCFDC01EC91E63048F48EE0E89F5A
:1026A000F0011124EC50FD4F868181110CC086E0B1
:1026B0008C93EC918EE0E89FF0011124EC50FD4FDB
:1026C00086818783089581E08587F3CFCF93DF9359
:1026D000F901A82FB0E094E0699F90011124E9016D
:1026E000C854DD4FCA0FDB1F9881973011F496E074
:1026F000988328543D4FA20FB31F9C91963088F4C5
:1027000020910301921301C011869185911115C08A
:102710009681992319F091E0958701C015869681DD
:102720009783833039F4633029F4FA018081811171
:102730001092B702DF91CF910895191684F7DA014C
:102740001C929185915091879681915096839585A1
:1027500021E09227E1CFA62FA21BBB0BFD01119711
:1027600011F0319611F4841769F0841B990B8130B4
:10277000910521F481E0621303C008950196D1F31D
:1027800080E0FBCF81E00895CF92DF92EF92FF923D
:102790000F931F93CF93DF93CDB7DEB7A7970FB6F5
:1027A000F894DEBF0FBECDBFCA8EDB8EEC8EFD8EE1
:1027B0000E8F1F8F28A339A34AA35BA36CA37DA30D
:1027C0008EA39FA389E1EDE1F1E0DE011196019076
:1027D0000D928A95E1F78B8D2BA941E050E04C0FCB
:1027E0005D1FE5E08E9F400D511D1124CA01820F2F
:1027F000911DFC0180818823F9F061E0823011F0A5
:1028000081E001C082E09DA1899FC001112470E098
:102810000E940837862F90910C01923079F49091A4
:10282000AF02923069F49D8D9130E9F0C8F0943098
:1028300039F4862F880F04C062E0E2CF977F99F3C6
:102840008F5FA7960FB6F894DEBF0FBECDBFDF91A6
:10285000CF911F910F91FF90EF90DF90CF9008954F
:1028600088AD8150EDCF8BEA689F812D112486952C
:10287000E7CF8F929F92BF92CF92DF92EF92FF921B
:102880000F931F93CF93DF93EC014B01FB01B680B5
:10289000B7822DB73EB72E5031090FB6F8943EBF20
:1028A0000FBE2DBFADB7BEB711968EE001900D9251
:1028B0008A95E1F7C880D980EA80FB800C811D8170
:1028C0002E813F81488559856A857B858C859D85CC
:1028D0000E94C4134DB75EB7425F5F4F0FB6F894C6
:1028E0005EBF0FBE4DBFEB2DE81BFF0BB81AF7FD07
:1028F000B12CF401B782DF91CF911F910F91FF901E
:10290000EF90DF90CF90BF909F908F9008952F927F
:102910003F924F925F926F927F928F929F92AF926F
:10292000BF92CF92DF92EF92FF920F931F93CF93BC
:10293000DF9300D01F92CDB7DEB7898322E08730C6
:1029400009F421E0E0910401F0E02090C902822C1A
:10295000912CEB5FFE4F9EE0989DA001999D500D3C
:1029600011244C505D4F5B834A838081DA011A96B3
:102970003C91831B821B80838091B3024090B20202
:10298000042C000C5508B4E08B0250011124F50111
:10299000E854FD4FE40DF51D3080632C712C969D9D
:1029A000F001979DF00D1124EC50FD4F2DB73EB76F
:1029B0002E5031090FB6F8943EBF0FBE2DBFADB7F4
:1029C000BEB7119601900D929A95E1F7AA81BB814D
:1029D000CC901196DC9011971296EC90129713966A
:1029E000FC90139714960C91149715961C911597BB
:1029F00016962C91169717963C91179718964C910E
:102A0000189719965C9119971A966C911A971B96BC
:102A10007C911B971C968C911C971D969C910E94F3
:102A2000C4130FB6F894DEBF0FBECDBFF981F830E6
:102A300008F5EF2FF0E0E15EFA4E0C941C37FB1521
:102A400086155715271527155215211627159EE0AF
:102A5000969DF001979DF00D1124EC50FD4F96814D
:102A6000492F481B550B14161506D4F0918782E0A8
:102A70008093B7020F900F900F90DF91CF911F912D
:102A80000F91FF90EF90DF90CF90BF90AF909F900D
:102A90008F907F906F905F904F903F902F90089510
:102AA0008187E5CF209203011092B702E3CF9EE029
:102AB000989DD001999DB00D1124AC50BD4F149636
:102AC0008C9114978093AD02969DF001979DF00D27
:102AD0001124EC50FD4F948114969C938483809133
:102AE000B602E091B50254E0859FC00111248854DC
:102AF0009D4FE80FF92FF11D8081D501A854BD4FDE
:102B00004A0E5B1ED2018C933082CECF84EFA82E6A
:102B100082E0B82E93E0692E712C2EE0522E589C44
:102B2000F001599CF00D1124EC50FD4FFB83EA831A
:102B3000569CF001579CF00D1124EC50FD4F2DB721
:102B40003EB72E5031090FB6F8943EBF0FBE2DBFD1
:102B5000ADB7BEB71196852D01900D928A95E1F71C
:102B6000AA81BB81CC901196DC9011971296EC90C3
:102B700012971396FC90139714960C911497159630
:102B80001C91159716962C91169717963C911797AE
:102B900018964C91189719965C9119971A966C9102
:102BA0001A971B967C911B971C968C911C971D96CF
:102BB0009C910E94C4130FB6F894DEBF0FBECDBF28
:102BC000D501D0969C91D097E92FE81BFF0B1E16DC
:102BD0001F0674F0D3969C93BFEF6B1A7B0AEEE04E
:102BE000AE0EB11CF6E06F16710409F0A1CF3FCF15
:102BF000D3968C93F1CF8EE0869DF001879DF00DEA
:102C00001124EC50FD4F96819187889DF001899D9C
:102C1000F00D1124EC50FD4F86818187E4EFF2E046
:102C200080E09281992341F09681992329F028161A
:102C300019F08093C9021BCF8F5F3E96833089F7CE
:102C400016CFE4EFF2E09681992361F02085822F80
:102C5000869530E0890F9927991F281739070CF4BA
:102C6000C90186833E9623E0EE31F20761F71CCF5F
:102C7000CF93DF93D82F8091AF02813009F45EC0EB
:102C800048F0823009F48AC0833009F410C1DF9122
:102C9000CF9108950E94F91288E00E94960E882331
:102CA000C9F18091B302E091B2020E2E000CFF0B2D
:102CB00024E08202C0011124DC01A854BD4FAE0FF4
:102CC000BF1F3C91383011F0363021F54091C902D8
:102CD0002EE0429FD0011124AC50BD4F2091050140
:102CE0001A965C91251B2093050188549D4FE80F8F
:102CF000F91F40838091B6022091B50244E0849F81
:102D0000C001112488549D4F820F911DFC01308316
:102D10001092B70284E00E94960E882309F4B7CF80
:102D2000E091C9022EE0E29FF0011124EC50FD4F2A
:102D30008091AD0284831092B702A9CF0E94F9124C
:102D40000E948E0E83FF1DC02091B3024091B202FB
:102D500084E02802F0011124E854FD4FE40FF11D36
:102D600047FDFA9580818350833058F46091B60214
:102D70008091B5020E94AB13882319F087E00E946E
:102D8000871484E00E94960E882309F480CFE09196
:102D9000C9029EE0E99FF0011124C8CFD73008F5A1
:102DA000ED2FF0E0EA52F94E0C941C37DD16551762
:102DB000F3162417DD1655173A170E94F9122091C1
:102DC000B3024091B20284E02802F0011124E854D9
:102DD000FD4FE40FF11D47FDFA958081835083304C
:102DE000A8F0C0E01AC00E94F9122091B3024091ED
:102DF000B20294E02902F0011124E854FD4FE40FDF
:102E0000F11D47FDFA958081863058F76091B60232
:102E10008091B5020E94AB13C82F88E00E94960EE5
:102E2000882329F0CC2319F08D2F0E94871484E089
:102E30000E94960E882309F42ACFE091C9024EE041
:102E4000E49FF001112472CF0E94F912E091B302C5
:102E50008091B20224E0E202F0011124E854FD4F17
:102E6000E80FF11D87FDFA9580818350C1E0833022
:102E7000A0F2B7CF8091FA029091FC02891711F06D
:102E8000811113C08091080390910A03891711F0F2
:102E900081110BC08091160390911803891711F0CE
:102EA000811103C01092B7029CCFC1E0B6CF8091D0
:102EB000C90280930001E4EFF2E083E094A5992336
:102EC00019F090A9911104C08F5F3E968630B1F73A
:102ED0008093C90284E08093AF0281E08093040173
:102EE0001092B7028091AC02811109C08091060155
:102EF000853008F084E08B5F80930601C8CE109285
:102F0000AC02C5CE8F929F92AF92BF92CF92EF92BA
:102F1000FF920F931F93CF93DF935B014A01122F10
:102F200090E2899FE0011124EE24E394E226AE01B1
:102F3000475B594FC02E00E120E1B401C5010E945A
:102F4000E809AE01475B5D4FE12E20E1B401C50108
:102F50000E94E809DF91CF911F910F91FF90EF90B0
:102F6000CF90BF90AF909F908F9008958A3020F4BB
:102F700087E492E00C946E0E0895EF92FF920F9307
:102F80001F93CF93DF93102FE62EF12CC82FD0E0A4
:102F9000B701CE010E946A10ECEBF7E001E01027C8
:102FA000012F10E0128B018B2196D687C587D4871D
:102FB000C3878FEFE81AF80AF08AE786DF91CF918E
:102FC0001F910F91FF90EF9008958F929F92AF9273
:102FD000BF920F931F93CF93DF93CDB7DEB7A19727
:102FE0000FB6F894DEBF0FBECDBF19A2423008F471
:102FF0004AE08E010F5D1F4F842E912CB12CA12C25
:10300000A50194010E94B536E62FB901CA01EA3044
:1030100044F5E05DD801EE938D01232B242B252B65
:1030200079F790E080E0109769F0FD0101900020B1
:10303000E9F73197AF014A1B5B0BBD018CEB97E0C1
:103040000E94280DA1960FB6F894DEBF0FBECDBF2B
:10305000DF91CF911F910F91BF90AF909F908F9074
:103060000895E95CD7CFFC0101900020E9F7319782
:10307000AF01481B590BBC018CEB97E00C94280D59
:10308000682F70E090E080E04AE00C94E517CF9262
:10309000DF92EF92FF92CF93DF936C01990FEE08CE
:1030A000FF08F7FE19C06DE28CEB97E00E94C30D9C
:1030B000EC0166277727CB016C197D098E099F09E2
:1030C0004AE00E94E5178C0F9D1FDF91CF91FF9082
:1030D000EF90DF90CF9008954AE0C701B601DF91ED
:1030E000CF91FF90EF90DF90CF900C94E517AF92C7
:1030F000BF92CF92DF92EF92FF920F931F93CF93E5
:10310000DF93EC01F62E01E029E244E361E080E088
:103110000E94BD178A81882309F4C4C1E88181ED2A
:103120009FE0E03238F4F0E0EE0FFF1FE75FFD4F65
:10313000808191810E946E0E81E090E09093CA0799
:103140008093C9079093C8078093C70787E090E0F2
:103150009093CC078093CB07E98187E69AE0E5302E
:1031600038F4F0E0EE0FFF1FE150FE4F80819181B7
:103170000E946E0E81E090E09093CA078093C90789
:103180009093C8078093C7078CE090E09093CC079A
:103190008093CB07EA8189E59AE0ED3038F4F0E0DE
:1031A000EE0FFF1FEB51FE4F808191810E946E0E4A
:1031B00001E010E01093CA070093C9071093C807F5
:1031C0000093C70781E190E09093CC078093CB07F1
:1031D00084E69AE00E946E0E8D810E944018109342
:1031E000CA070093C9071093C8070093C70786E171
:1031F00090E09093CC078093CB0781E69AE00E9401
:103200006E0E8C850E94B6178C850E9440188FE543
:103210009AE00E946E0E1D81193009F44AC0110F08
:103220001150812F0E94B617812F0E94401881E013
:1032300090E09093CA078093C9079093C807809342
:10324000C7078BE190E09093CC078093CB0786E58E
:103250009AE00E946E0E80910C0181112EC1FF2018
:1032600009F42BC14E812885421708F026C18091B0
:10327000ED029091EE0265E070E00E94F436892B39
:1032800021F48D8591E089278D878D85882399F09C
:10329000822F869530E0840F9927991F28173907C8
:1032A0000CF4C9018F830E94B6178F810E944018C9
:1032B00006C01FE0B6CF83E59AE00E946E0E81E55E
:1032C0009AE00E946E0E88850E94B61788850E943B
:1032D000401889E090E09093CA078093C9079093C3
:1032E000C8078093C70785E2A82EB12CB092CC07FF
:1032F000A092CB078A850E944018E12C08E028E0C4
:1033000043E250E161E270E081E090E00E94A10EB2
:1033100007E110E01093CA070093C9071093C8078C
:103320000093C70790E2C92ED12CD092CC07C0924F
:10333000CB078B858F5F0E94B6178B8590E0019637
:103340000E9447181093CA070093C9071093C80733
:103350000093C707B092CC07A092CB078A8590E074
:1033600001960E94471808E028E04BE150E161E235
:1033700070E08FE090E00E94A10E8AE290E09093CE
:10338000CA078093C9079093C8078093C707D09254
:10339000CC07C092CB078B81813021F083508230E3
:1033A00008F05DC088818F3109F459C02DB73EB750
:1033B0002E5031090FB6F8943EBF0FBE2DBFADB7EA
:1033C000BEB711968EE0FE0101900D928A95E1F74D
:1033D000C880D980EA80FB800C811D812E813F81CD
:1033E000488559856A857B858C859D850E94C41397
:1033F0002DB73EB7225F3F4F0FB6F8943EBF0FBECA
:103400002DBF0E94B6178DB79EB70E970FB6F894D2
:103410009EBF0FBE8DBFADB7BEB711968EE0FE0149
:1034200001900D928A95E1F7C880D980EA80FB80EF
:103430000C811D812E813F81488559856A857B8558
:103440008C859D850E94C4132DB73EB7225F3F4FE8
:103450000FB6F8943EBF0FBE2DBF0E9440188AE2FF
:1034600090E09093CA078093C9079093C807809310
:10347000C70785E290E09093CC078093CB078A85BD
:1034800090E002960E94471888818F31D9F4E12C90
:1034900008E028E049E45AE061E270E082E290E06E
:1034A0000E94A10EDF91CF911F910F91FF90EF909D
:1034B000DF90CF90BF90AF9008958E810E94B61795
:1034C0008E81F4CE4B8138E0439FA00111244D51F1
:1034D000504FE12C08E028E0DFCF8F929F92AF920F
:1034E000BF92CF92DF92EF920F931F93CF93DF9310
:1034F00080E00E94850F8091E702882369F0809127
:103500000A01823009F4E2C008F0CFC0882309F430
:103510003DC1813009F41CC1D0E0C0E010E040E8BA
:10352000A42EB12C50E2852E53E0952E8091E90215
:103530009091EA029C012F713327F501E21BF30BF6
:10354000EC1BFD0B6C0135E0D694C7943A95E1F77E
:10355000C10E2C2D2170C22EA09660E0803A9105FC
:1035600028F08C1B9D0BB4010E94F43680E2689F0A
:10357000A00111244B50524FEE24E39408E020E2C6
:1035800070E060E0CF010E94E8091F5F153071F61E
:10359000D0E0C0E041E068E270E0CE010E94B00FF0
:1035A0002196C138D105B1F701E025E140E86AE292
:1035B00080E00E94BD1782EF9EE00E946E0E81E0C7
:1035C00090E09093CA078093C9079093C8078093AF
:1035D000C70780E390E09093CC078093CB07C3E0CC
:1035E00001E010E0DAE0C801D89F8001D99F100DFA
:1035F00011248091E9029091EA028017910720F44A
:1036000080EF9EE00E946E0EC15069F76091E90262
:103610007091EA0290E080E04AE00E94E51787EEB0
:103620009EE00E946E0EC1E0D0E0D093CA07C09326
:10363000C907D093C807C093C70785E390E090936C
:10364000CC078093CB0786ED9EE00E946E0ED09350
:10365000CA07C093C907D093C807C093C7078AE3B6
:1036600090E09093CC078093CB078091E9029091F2
:10367000EA02C0E9D1E0BE010E94F436C81BD90BB2
:103680008AEC9EE060FD02C080ED9EE00E946E0E1E
:10369000CA30D10508F086C088EC9EE00E946E0E0C
:1036A00088EC9EE00E946E0E81C08330F1F0843081
:1036B00009F032CF6091E50270E08091E602EE24DD
:1036C000E39408E028E04DE65AE05CC04091E50252
:1036D00050E06091E602062E000C770B01E021E03D
:1036E0008091E3020E94821717CF8091E9029091A6
:1036F000EA0260E273E00E94F436862F880F680FBA
:103700008091CF02680F7727771F88E1869F50014D
:10371000879FB00C1124C090E502D12CC091E60225
:103720000C2E000CDD0BA5014B52534FEE24E394FD
:1037300000E12CE0B601CE010E94A10EA5014B5480
:10374000544FE12C2CE0B601CE010E94A10EE4CE34
:103750008091E9029091EA02409760E273E00E9452
:10376000F436AB0166E0440F551F6A95E1F74B5400
:10377000554F6091E50270E08091E602EE24E394FB
:1037800000E120E2082E000C990BDFCF6091E502EA
:1037900070E08091E602EE24E39400E120E245E748
:1037A0005AE0F0CFC436D10508F47ACFBE0190E0DC
:1037B00080E04AE00E94E5178FEB9EE00E946E0ECB
:1037C000C8E5D0E0D093CA07C093C907D093C80713
:1037D000C093C7078BE290E09093CC078093CB0710
:1037E00086EB9EE00E946E0ED093CA07C093C90775
:1037F000D093C807C093C70785E390E09093CC07A8
:103800008093CB078EEA9EE00E946E0E80910B01A2
:10381000843009F45BC078F4882309F468C0DF9130
:10382000CF911F910F91EF90DF90CF90BF90AF900D
:103830009F908F900895863061F1873081F7C09115
:1038400049031C2F110FD12CC12C20E0412F70E017
:1038500060E0C6010E941B109FEFC91AD90A20E838
:10386000C216D10491F78C2F90E0880F991F2FE397
:1038700030E06901C81AD90AD0E0C0E020E0412F49
:10388000B601CE010E941B102196C038D105B1F7B8
:10389000C6CF00E028E045E36EE086E20E94BD1757
:1038A00001E026E043E36FE087E20E94BD1783EA70
:1038B0009EE0DF91CF911F910F91EF90DF90CF901D
:1038C000BF90AF909F908F900C946E0E00E028E018
:1038D0004EE46EE089E10E94BD1701E026E04CE471
:1038E0006FE08AE10E94BD1783E99EE0E2CF00E02D
:1038F0002DE049E46EE08BE10E94BD1701E02BE072
:1039000047E46FE08CE10E94BD1784E89EE00E94CE
:103910006E0E8DE190E09093CA078093C907909353
:10392000C8078093C70785E190E09093CC07809308
:10393000CB0785E79EE0BDCFCF92DF92EF92FF925B
:103940000F931F93CF93DF93CDB7DEB767970FB673
:10395000F894DEBF0FBECDBFCA86DB86EC86FD863F
:103960000E871F87288B398B4A8B5B8B6C8B7D8BEB
:103970008E8B9F8B8D2D99E0E6E3F1E0DE011196B1
:1039800001900D929A95E1F7DD2099F18430C1F410
:103990000E94153627E030E040E050E00E94833678
:1039A000862F67960FB6F894DEBF0FBECDBFDF91AE
:1039B000CF911F910F91FF90EF90DF90CF900895DE
:1039C000815090E0EC85E150FF0BF595E795F5957A
:1039D000E7959C01220F331F820F931F21E030E0F7
:1039E0002C0F3D1F820F931FE80FF92FF11D8081CF
:1039F000D8CF80E0D6CFCF92DF92EF92FF920F9395
:103A00001F93CF93DF93EC012A81E881AFEFAE0FD4
:103A100080E0AF3120F4B0E0A15CBE4F8C9189838F
:103A20000D8110E030E0F0E0C901880F991F280FE8
:103A3000391F22543E4FD9014C91CF01880F991F55
:103A4000E80FF91FE25AFE4F8081480F5527551F96
:103A50004C5F5F4F409FC001419F900D509F900D64
:103A600011240F9665E070E00E9408376887D9013D
:103A700011964C918181480F5527551F4C5F5F4F20
:103A8000409FC001419F900D509F900D11240F96B3
:103A90006AE070E00E9408376B87D90112966C913A
:103AA0008281680F7727771F759567957195619566
:103AB0007109695F6A87C880D980EA80FB800C81C0
:103AC0001D812E813F81488559857B858C859D850B
:103AD0000E949C1C8B83DF91CF911F910F91FF90CF
:103AE000EF90DF90CF9008952F923F924F925F9288
:103AF0006F927F928F929F92AF92BF92CF92DF92FE
:103B0000EF92FF920F931F93CF93DF93E091E9021F
:103B1000F091EA0280914803811148C0CF0160E929
:103B200071E00E94F43632E0332E360ECF0160E2AF
:103B300073E00E94F436623041F06330C9F110E066
:103B400021E0613021F422E002C011E023E0212CC9
:103B5000C0E2E03639E0F30770F4CF0160E273E0D1
:103B60000E94F436CAE06C9F202C11242394C69F37
:103B7000C00D1124CF5F30910A01323009F4C4C066
:103B80003330C1F0313009F0D3C0CF0160E273E0CF
:103B90000E94F4366230710509F4FCC008F0CAC016
:103BA0006130710509F409C113E062C029E0322EC9
:103BB00012E0CCCF822E912CB12CA12C412E512C75
:103BC000712C612C481459046A047B048CF4841809
:103BD0009508A608B70841F00E941536A501940182
:103BE0000E9483364B015C01480C591C6A1C7B1CEB
:103BF000142D00E0CC2ED12CF12CE12C822C912C18
:103C0000B12CA12C8C149D04AE04BF049CF426019D
:103C10003701481859086A087B0841F00E94153698
:103C2000A30192010E9483362B013C01840C951C58
:103C3000A61CB71CC02FD0E0FE01E955FD4F8082C5
:103C40000E941536FE01EC55FD4F5F012CE030E07F
:103C500040E050E00E9483366F5F7F4F8F4F9F4F51
:103C6000F5016083CF55DD4F38820F5F101730F6B6
:103C7000C4EFD2E0F12CE12C07E089E0D82E9FE0E0
:103C8000C92E1CA61E1528F1F701EF55FD4F8081A6
:103C9000F701E955FD4F9081F701EC55FD4F20816B
:103CA0002CA79AA78FA7893029F0883029F48EA9EC
:103CB0008F3011F4DFA6CEAA8CA5882351F0CE0157
:103CC0008A960E94FB1C0DA78AA988AB8CA98150FB
:103CD0008CABFFEFEF1AFF0A2E9623E0E216F104F9
:103CE00081F6DF91CF911F910F91FF90EF90DF90C0
:103CF000CF90BF90AF909F908F907F906F905F908C
:103D00004F903F902F9008958091E3028093A702F7
:103D10000E9415362CE030E040E050E00E948336EF
:103D20006F5F7F4F8F4F9F4F6093A4023092A1022D
:103D300010E09ECF63307105B9F06430710509F071
:103D400033CF8FE18093A70289E08093A40284E1BE
:103D50008093A8023093A5028DE18093A90285E0AB
:103D60008093A60289E013C08CE18093A70287E0CC
:103D70008093A40286E18093A80286E08093A50246
:103D80008AE18093A90283E08093A60288E00E94E2
:103D9000AA120ACF83E18093A7028CE08093A40249
:103DA0008BE08093A8028093A5028EE08093A90205
:103DB0008AE08093A60286E0EACF3093A70282E0F1
:103DC0008093A4028093A80284E08093A50280934C
:103DD000A90288E08093A60284E0D9CF0C946D36C6
:103DE0000F931F93CF93DF938C01EB010E946D36ED
:103DF0008883C80101960E946D368983CE01DF91C8
:103E0000CF911F910F910895CF93DF9300D0CDB73D
:103E1000DEB71A821982BE016F5F7F4F88EB92E096
:103E20000E94F01E8AEB92E00E94EE1E982F2981DC
:103E30003A8121383C4018F481E09B3008F080E062
:103E40000F900F90DF91CF910895EF92FF920F9313
:103E50001F93CF93DF9300D0CDB7DEB78C0183E003
:103E6000689F70011124BE016F5F7F4FC701885AA0
:103E70009D4F0E94F01EC701865A9D4F0E94EE1E64
:103E8000F801868389819A81282F27702F5F2583E7
:103E9000AC0183E0569547958A95E1F74F714083D1
:103EA000392F3F7034873F3021F4283011F429E056
:103EB0002583892F82958F70F80182830F900F9050
:103EC000DF91CF911F910F91FF90EF9008951F9375
:103ED000CF93DF93EC01162F0E946D36181739F03F
:103EE000612FCE01DF91CF911F910C947536DF9138
:103EF000CF911F91089581EC80937C0085B1806FF4
:103F000085B984B1877E84B984B1876E84B95E9A9D
:103F10005F988AB1806D8AB9769A6E9881B3806F06
:103F200081BB899880B38D7080BB80E58CBD81E0BA
:103F30008DBD85E090E00E94890E5F9A85E090E05B
:103F40000E94890E5E985C98E4E0FFE081E19FE0CA
:103F500024912EBD00000DB407FEFDCF31968E17C3
:103F60009F07B1F75C9A81E88093640080916500B7
:103F70008160809365000E94D8090E948E0E87FFA1
:103F800015C05C9885EA8EBD00000DB407FEFDCF1C
:103F90005C9A2E982F982D9880916400806280936F
:103FA000640081E083BF889513BEFCCF0E948E0E13
:103FB00082FF3AC02D980E948E0E84788438A9F42E
:103FC0002D9A88EC90E00E94890E2F986FEF82E086
:103FD00090E00E94671F84EF91E00E94890E2F9A63
:103FE0000E948E0E84788438D9F30E948E0E8471DC
:103FF0008431A9F42D9A88EC90E00E94890E2E98C5
:1040000060E082E090E00E94671F84EF91E00E94F0
:10401000890E2E9A0E948E0E84718431D9F388EC19
:1040200090E00E94890EC2CF2D9A82E090E00E941B
:10403000EE1E882319F03E9A3F9A08953E983F98C5
:104040000895CF93DF93C0EFD2E0688180EC92E0D7
:104050000E94671F698181EC92E00E94671F6A815C
:1040600082EC92E0DF91CF910C94671FFF920F9347
:104070001F93CF93DF93EC018B01FB01F0800E9433
:104080006D36F81621F06F2DCE010E947536F801BD
:10409000F1802196CE010E946D36F81621F06F2D29
:1040A000CE010E947536C801DF91CF911F910F910B
:1040B000FF900895AF92CF92DF92EF92FF920F930D
:1040C0001F93CF93DF93CDB7DEB760970FB6F89409
:1040D000DEBF0FBECDBFCB82ED8229878F87412FF8
:1040E00063E0A69E80011124C801885A9D4F493083
:1040F000A0F54150550B2B8168E0269F90011124BB
:104100006D8170E0762F66277295707F260F371FBE
:104110006F8570E0762F6627260F371F240F351F17
:104120003A832983BE016F5F7F4F0E9436206985E5
:10413000C801865A9D4F0E94671F60960FB6F8947B
:10414000DEBF0FBECDBFDF91CF911F910F91FF90CA
:10415000EF90DF90CF90AF90089547E050E0CBCF45
:104160008F929F92AF92BF92CF92DF92EF92FF9287
:104170000F931F93CF93DF93CDB7DEB72E970FB674
:10418000F894DEBF0FBECDBF84EF882E82E0982E5C
:10419000B12C6B2DCE0101960E94251FCE010196F8
:1041A0000E94FB1C8B81882311F089858F83AB2CA7
:1041B000C980DA80EB80FC800D811E812F813885DB
:1041C00049855A856B857C858D859E850E945A2000
:1041D00082E08B1518F0F40180858683B394FEE0AD
:1041E0008F0E911C80E2B812D4CF2E960FB6F894A1
:1041F000DEBF0FBECDBFDF91CF911F910F91FF901A
:10420000EF90DF90CF90BF90AF909F908F900895E8
:104210001F920F920FB60F9211248F939F9380914C
:10422000E1009091E100937F9093E10083FF0FC044
:104230001092E90091E09093EB001092EC0092E371
:104240009093ED0010926A0398E09093F00082FF43
:1042500022C093E09093E9009091F200992319F025
:104260009AE39093E80090915B03992341F0909139
:104270005B03915090935B03911101C05D9A909103
:104280006903992341F090916903915090936903D8
:10429000911101C0289A84FF18C08091E2008E7E9F
:1042A00081608093E2008091E1008F7E8093E10045
:1042B00080915C038E7E806180935C039F918F91DF
:1042C0000F900FBE0F901F90189580FFF7CF809131
:1042D000E2008E7E80618093E2008091E1008E7E1C
:1042E0008093E10080915C038E7E8160E5CF1F9218
:1042F0000F920FB60F921124CF92DF92EF92FF929E
:104300000F931F932F933F934F935F936F937F93DD
:104310008F939F93AF93BF93EF93FF93CF93DF93CD
:10432000CDB7DEB76C97DEBFCDBF1092E9008091AC
:10433000E80083FF25C068E0CE0145960E943E0C50
:1043400082EF8093E8008D8987FF39C09091E80063
:1043500090FFFCCF982F907609F034C19E894F8949
:10436000588D2F89F88C911131C0803861F580917A
:104370005A038093F1001092F1008EEF8093E800D1
:104380006C960FB6F894DEBF0FBECDBFDF91CF9114
:10439000FF91EF91BF91AF919F918F917F916F911D
:1043A0005F914F913F912F911F910F91FF90EF904F
:1043B000DF90CF900F900FBE0F901F9018959EEF3B
:1043C0009093E800C7CF1092F100D5CF913059F407
:1043D0008111D3CF4130510581F680915A038D7FF1
:1043E00080935A03CACF933049F48111C6CF41302C
:1043F000510519F680915A038260F2CF953041F44D
:104400008091E80080FFFCCF20682093E300B5CFC7
:10441000963009F0A9C00B8D1C8D22E01092E900A6
:104420001092580310925703F2122EC010925603A6
:10443000109255030E940D0C1F8299E09983FA8215
:1044400091E09E8390EA98879AEF9987209157038D
:1044500030915803275F3F4F3C832B838D8310920D
:10446000E9001092580310925703109356030093DB
:10447000550349E050E0BE016F5F7F4F80E00E942E
:10448000E70B0E940D0C79CF109356030093550350
:104490000E94240BDC0112960D911C91011511054F
:1044A00009F451C1D801ED91FC910480F581E02D12
:1044B000BE016B5E7F4FC8010995009709F03EC1B0
:1044C000F80100851185EACFF3E0FF120EC08F8955
:1044D000882309F440C0823061F440E860E188EB51
:1044E00092E10E94F323811148CF81E28093EB0097
:1044F00047CF813029F440E86BE08CEA92E1F1CFBC
:10450000833099F70E94240BDC011296ED90FC9009
:104510008E010F5F1F4F6801E114F10479F0D7019C
:10452000ED91FC910680F781E02DB801C701099556
:10453000080F111DF701E084F184EECFD8011C9221
:10454000F60101900020E9F73197BF016C197D0950
:1045500040E0C601C6CF66E972E1FB01449150E03C
:1045600080E80E94E70B09CF973009F4BECF98305E
:1045700021F481E08093F10000CF993009F0FDCE65
:10458000837009F0B2CFEAE4F2E081E031E096E333
:104590002191222371F08093E9003093EB00DF0139
:1045A00011972C912093EC009093ED008F5F873052
:1045B00079F78EE78093EA001092EA008F89809362
:1045C0006A03DBCE8B8D9C8D1092E900109258030C
:1045D000109257039093560380935503898D811150
:1045E00092C08E899D89913A49F4813209F07DCF3C
:1045F00047E050E061E171E080E0B3CF913209F033
:1046000074CF833269F48F89988DB0E0A0E08093F5
:104610000D0190930E01A0930F01B0931001ADCE48
:10462000803269F48091E80082FFFCCF67E081E18D
:1046300091E00E943E0C8BEF8093E8009ECE823288
:1046400009F09BCE8F8980931801EEEFFFE78591EB
:1046500094918B3F9C4D51F1E0E0F8E08091110185
:1046600090911201A0911301B0911401803B9440EC
:10467000A105B105F1F48091180180FD1AC0EE3F4B
:104680008AE0F80789F587E797E79183808380912F
:1046900060008093590388E19BE00FB6F894A895D9
:1046A000809360000FBE9093600067CEEEEFFAE05B
:1046B000D5CF808191818737974709F05ECEA89545
:1046C000809160008861809360008091590380939D
:1046D0006000EE3F2AE0F20789F08091FE0A909197
:1046E000FF0A9183808349CE808191818737980723
:1046F00051F29093FF0A8093FE0AC5CF1092FF0AF1
:104700001092FE0A3ACE0E94240BDC0112960D9103
:104710001C910115110509F4E8CED801ED91FC9129
:104720000190F081E02DBE016B5E7F4FC8010995BD
:10473000811123CEF80100851185EBCF18161906DB
:104740000CF41BCED2CEF1E0FF12BECE6AE972E1CC
:1047500004CF1F920F920FB60F9211242F933F9305
:104760008F939F93AF93BF9380914D0390914E038E
:10477000A0914F03B091500330914C0323E0230FDD
:104780002D3758F50196A11DB11D20934C03809340
:104790004D0390934E03A0934F03B0935003809129
:1047A000510390915203A0915303B0915403019689
:1047B000A11DB11D8093510390935203A093530305
:1047C000B0935403BF91AF919F918F913F912F91DF
:1047D0000F900FBE0F901F90189526E8230F02969A
:1047E000A11DB11DD2CFEF92FF920F931F93CF93D4
:1047F000DF93F82E192FE62E042F81E0860F880F05
:104800000E94B90B83E00E94B90BCF2DD12FEC0E83
:10481000FD2EF11CCE15DF05B9F007FF13C0FE0118
:1048200084910E94B90B182F80E00E94B90B81235C
:1048300021968111EFCFDF91CF911F910F91FF90C2
:10484000EF9008958881EDCF81E0F5CFECE6F3E0BD
:104850001382128288EE93E0A0E0B0E08483958317
:10486000A683B78384E592E0918380838FEF9FEFE7
:1048700095878487ECEBF7E01382128286E692E05C
:10488000918380838CEB93E09683858380E890E02E
:104890009087878380E490E09287818785E0848B8E
:1048A00081E0838B16861586108A178614861386F8
:1048B00081E090E0928B818B14820895CF93DF93F7
:1048C000CDB7DEB7A1970FB6F894DEBF0FBECDBF50
:1048D000789484B5826084BD84B5816084BD85B5DB
:1048E000826085BD85B5816085BD80916E008160E7
:1048F00080936E001092810080918100826080938D
:10490000810080918100816080938100809180008E
:1049100081608093800080919100826080939100FB
:1049200080919100816080939100809190008160DE
:10493000809390008091C10084608093C100809139
:10494000C10082608093C1008091C100816080932A
:10495000C1008091C30081608093C3008091C0003A
:1049600082608093C0008091C20081608093C20009
:1049700080917A00846080937A0080917A008260CE
:1049800080937A0080917A00816080937A00809190
:104990007A00806880937A0010926A0310925A031A
:1049A00010925C038091D70081608093D70080EAE9
:1049B0008093D80089B5806189BD89B5826089BD41
:1049C00009B400FEFDCF61E070E080E090E00E945D
:1049D000700C8091D8008F7C80618093D80080918A
:1049E000E000807F8093E0008091E1008E7E8093E4
:1049F000E1008DE08093E200559A209A0E947B1F8F
:104A000084E180930101809164008E7F8093640033
:104A100080917A00806480937A0080917A0086FD8C
:104A2000FCCF00917800109179000E944B0CAB01F3
:104A3000BC01C801B0E0A0E0DC01992788278C0107
:104A40009D01040F151F261F371FC901B8012091B2
:104A50006400216020936400611571058105910552
:104A600011F00E9464368FB7F89440914D03509135
:104A70004E0360914F03709150038FBF9090AA0234
:104A8000992049F01092AA0280E090E0892B59F316
:104A90000E940000E8CF8091AB02142F181B812FD9
:104AA00090910101191740F48F5F891768F781E031
:104AB00083BF889513BEE8CF81E08093AA0240931C
:104AC000AB020091ED021091EE020F5F1F4F1093A9
:104AD000EE020093ED02892DECEBF3E081118FEFF4
:104AE000002481938193819381930394D1F78091E2
:104AF0004B0380934A030E948E0E80934B03E091F8
:104B00000C01EC3008F0A8C0F0E0E757FA4D0C9427
:104B10001C37C22E95253A26AC2BD82C242D722E6C
:104B2000F23256327D330D3409351092490385E057
:104B300080930B01E8EBF2E02CEB32E086E081930E
:104B40008383878383872E173F07C9F754EF652E2A
:104B500052E0752E5301912C812C4424439463E040
:104B6000362E7EE0272E582CD5011D961C921D97BF
:104B700019961C92199712968C911297882399F185
:104B80001D964C921D97882D632D0E94E63681302C
:104B900009F465C08C918F31C9F4289CF001299CDF
:104BA000F00D1124EC50FD4FC080D180E280F380E5
:104BB0000481158126813781408551856285738501
:104BC000848595850E949C1CF5018383D5011496EC
:104BD0001C928091BC028093B8028091C0028093A5
:104BE000BC025092C002FFEF8F1A9F0A0EE0A00E87
:104BF000B11C16E08116910409F0B5CF10920401A2
:104C000081E08093AC0285E08093050180930601EA
:104C100082E080930C0180E0D30112969C91129760
:104C2000992321F016969C91911107C08F5FBEE0E9
:104C30006B0E711C833081F786E08093C90210925D
:104C4000AF021092CD021092B0021092B1021092F7
:104C5000AE0286E0809303010E94D80915CFF501CA
:104C60008483F401EE0FFF1FEE0FFF1FED54FD4F85
:104C70008082B9CF80910401813009F48EC108F49B
:104C8000B9C0823009F4E3C181E08983C80165E0DD
:104C900070E00E94F4365C0128EB822E22E0922E16
:104CA000712C552453940EE037E0332E7401612C9F
:104CB000D7011C914090C902141104C07092B50232
:104CC0006092B602BBEA1B9F812D1124869509F4E0
:104CD000CEC1813009F4EDC180910401813009F425
:104CE00001C308F40AC2823009F401C36394B4E03A
:104CF000EB0EF11CE4E06E12DBCF7394FFEF8F1A22
:104D00009F0A7E12D3CF04EFE02E02E0F02EB12CEA
:104D1000D12C8BEA982E97E0A92E03E0D01202C086
:104D200013E0B12E8091C902B3E0CB2E8D11C12CBE
:104D3000D70112968C911297882309F404C3B99C69
:104D4000112D1124169501E016968C91811101C048
:104D500000E0612F660F660F660FBA9C600D11248C
:104D600026E04DE38C2D0E94BD17D701EC9181ED1B
:104D70009FE0E03238F4F0E0EE0FFF1FE75FFD4FF9
:104D8000808191810E946E0E8C2D90E0C39690934D
:104D9000CA078093C9079093C8078093C707B8E0F4
:104DA0001B9FC0011124BA9C800D911D11240196F6
:104DB0009093CC078093CB078091B7029091030129
:104DC000813009F0B3C28091B402823009F4AEC2DE
:104DD00008F091C2882309F4A9C2813009F493C272
:104DE000D70116968C911697882309F49FC21D96B9
:104DF0008C9193C3F090C9028091B702882369F027
:104E0000813009F041CFAEE0FA9EF0011124EC5060
:104E1000FD4F83810E94381637CF80E80E94960E9E
:104E20008823A9F0FF2099F0EFEFEF0DFEE0EF02ED
:104E3000D0011124AC50BD4FE7FD09C016968C91EE
:104E400016971E97882309F471C0E093C90280E188
:104E50000E94960E8823A9F08091C902823088F4BE
:104E60008F5F2EE0829FF0011124EC50FD4F968160
:104E7000992309F45DC09281992309F459C0809364
:104E8000C90280E20E94960E882339F08091AF0219
:104E9000882319F081508093AF0280E40E94960E1F
:104EA000882339F08091AF02833018F48F5F8093AC
:104EB000AF02E091C902EE2EF12C3EE0E39FF0013B
:104EC0001124EC50FD4FC284D090AF0241E0D412C7
:104ED00035C0C39488E00E94960E8823C1F180916A
:104EE00005018C1518F483E0D81231C08091B50209
:104EF0008093B2028091B6028093B3028EE08E9DC1
:104F0000F0018F9DF00D1124EC50FD4F84818093B2
:104F1000AD0281E08093B702D81609F43CC0D816E0
:104F200098F092E0D916E9F087E00FC0E15084CF05
:104F30003E96823009F4A5CF82E099CF52E0D51297
:104F4000C9CFC394C394C6CF80E08093B40284E0F9
:104F50000E94960E882309F497CE83E08093AF02D7
:104F600093CEE381E83000F7F0E0E754F84D0C947D
:104F70001C37CB27C527C927C127CB27C727C3275E
:104F8000CB2783E0E2CF85E0E0CF84E0DECF86E090
:104F9000DCCF82E0DACF81E0D8CF8091AE028F5FA4
:104FA0008093AE028A3029F08091B002882309F400
:104FB0006BCE1092AE028091B7028823D9F0813077
:104FC00009F062CE8093B102A091C902EEE0AE9FDB
:104FD000D0011124AC50BD4F14968C93149780913E
:104FE0000201882351F0813009F04ECE87E00E9403
:104FF00087144ACE0E94BF1047CE8091B6022091FE
:10500000B502F4E08F9FC001112488549D4F820F98
:10501000911DFC012081E091B3023091B20244E085
:10502000E402F0011124E854FD4FE30FF11D37FDB8
:10503000FA95208326E0FC012083809106011A96D0
:105040009C91891B809306011092B7021DCE88E0C7
:105050000E94960E882309F417CE8091C8028130F1
:1050600021F483E080930C010FCE84E0FBCF80918C
:105070002003882329F08091240381110C949A3510
:1050800080912E03882329F08091320381110C94A2
:105090009A3580913C03882329F080914003811147
:1050A0000C949A35E2E0E0930401F1E0F093C80239
:1050B00013CE8091F602882329F08091FA028111A3
:1050C0000C94A03580910403882329F08091080373
:1050D00081110C94A03580911203882329F08091CE
:1050E000160381110C94A03524E02093AF0232E026
:1050F000309304011092C802EFCD8091B702813045
:1051000091F008F4F4C0823009F0F0CD109F9001C6
:1051100011242C503D4FAE014F5F5F4F662D872D00
:105120000E946613E3CDC12ED12C163048F40C9D9D
:10513000F0010D9DF00D1124EC50FD4F8681878309
:10514000109FC0011124AC014C505D4F5E8F4D8FFC
:10515000E091B3028091B20254E0E502F001112423
:10516000E854FD4FE80FF11D87FDFA9520808091EE
:10517000B402873008F0BACDE82FF0E0EE53F74DD7
:105180000C941C37C928E1285029122912293129E9
:105190004A29262D472D6091B6028091B5020E94C2
:1051A000AB138130C9F5163008F4A0CDA114B104B9
:1051B00009F09CCD88E0163009F086E0D7018C9389
:1051C00095CD262D472D6091B6028091B5020E94A3
:1051D000AB138823A1F0813009F088CD1630F0F5AB
:1051E000133008F483CD121125C0409EC001112454
:1051F0006D8D7E8D8C509D4F0E9439141BC08DEF9C
:10520000810F833048F40C9DF0010D9DF00D1124A9
:10521000EC50FD4F55866ACD163008F467CDF70186
:10522000308264CD9DEF910F933098F41215E9F21E
:105230008430D9F2A114B10409F058CD0C9DF001CD
:105240000D9DF00D1124EC50FD4F8585852585873A
:105250004DCD1630C0F2833009F048CDD7013C92D5
:1052600045CD1330C8F40C9DF0010D9DF00D1124B7
:10527000EC50FD4F36818085381728F6282F26956B
:1052800090E0230F3327331F821793070CF49C0100
:105290002783D0CF141571F2163008F027CDB3CF85
:1052A000262D472D6091B6028091B5020E94AB1366
:1052B0008823A1F0813009F019CD163008F0AFCF66
:1052C000A114B10409F012CD0C9DF0010D9DF00D5B
:1052D0001124EC50FD4F95858927B9CF163008F081
:1052E000BDCF91CF8091B702823009F40FCFC701B3
:1052F0000E944A13FBCC853009F405C18630B1F019
:10530000833009F06DCDE091B3028091B20204E0E8
:10531000E002F0011124E854FD4FE80FF11D87FD74
:10532000FA958081D7018D1509F461CD9D1509F499
:10533000F6C0F70187810E94B617D70117968C91A6
:105340000E944018B394D394BEE0EB0EF11CE6E04B
:10535000DE12E3CC8091C9022EE0289FC001112407
:105360008C509D4FFC01DE011F9601900D922A95F5
:10537000E1F7DC0113962C9113971A963C9010924A
:10538000CE071092CD07B8E02B9F90011124F901B0
:10539000ED51F04FFE8FED8FD12CC12C10E0E5E3E5
:1053A0004E2E512CFBE38F2E912CA32CB12C3501CA
:1053B000F2E06F0E711C0FEFA01AB00A8091AF02DD
:1053C0008113B4C083E0E82EF12CB2016E197F097D
:1053D00001E02BE04EE0C6010E946A10C60109966A
:1053E0009093CA078093C9079093C8078093C70713
:1053F000C4018E199F099093CC078093CB0712307C
:1054000009F49EC0C601019667E370E06E197F093A
:10541000E12C08E0133009F4B8C028E0113009F499
:1054200087C043E250E10E94A10E832D0E944018E4
:105430001F5F20E1C20ED11C143009F0BFCF01E084
:1054400026E040E165E180E00E94BD1781E792E03F
:105450000E943318809105010E94401826E040E127
:1054600066E18DE20E94BD1781E792E00E94331849
:10547000809106010E94401880910401813009F05A
:1054800088C08091B102811192C08091B0028823BE
:1054900009F48DC001E026E045E166E184E10E9467
:1054A000BD1784E792E00E94331860E5862E912CA8
:1054B000B12CA12C7EE0772E6A2CA4014051510919
:1054C00058A34F8FC4010C979E8F8D8FD501A85480
:1054D000BD4F2D018501D12CC12CB02FB619B9A318
:1054E000E02FE1703E2EEF8CF8A0E814F90409F4E7
:1054F0006BC0232D40E1B601C7010E941B10FFEFD6
:10550000EF1AFF0AF2CFF70186812085821709F48E
:105510000DCF882309F40ACF8585811107CF9D110E
:1055200011CF8EE692E00E9433180CCF80E04BCF73
:105530004BE150E10E94A10EC5010E94471878CFAF
:1055400080910401813031F0823081F48091C80271
:1055500081110CC0E12C08E028E043E350E167E34F
:1055600070E0C60103960E94A10E62CF67E370E06F
:105570006E197F09E12C08E028E04D8D5E8DC60193
:1055800001960E94A10EC301D8CF2CE047ED5FE049
:10559000EACF823029F48091C802882309F471CFC0
:1055A000EE24E39408E028E043E051E106C0EE2455
:1055B000E39408E028E04BEF50E167E170E08CE114
:1055C00090E00E94A10E71CFD2018C91F80131962A
:1055D0001F01873009F472C008F044C0863008F417
:1055E0004DC0F0900401F11008C08091B7028823EB
:1055F00009F474C0813009F478C0B4E04B0E511C3A
:10560000E0E1CE0ED11C8101F0E4CF16D10409F007
:1056100064CF0FEFA01AB00A10E1810E911C24E0B4
:10562000A216B10409F048CF32E0F31215CB8091F5
:10563000C802882309F47FC0813009F00DCB00E057
:1056400028E046E26CE18DE20E94BD1701E026E011
:1056500044E26DE18EE20E94BD1789E792E00E946C
:105660003318FACA883009F0BCCF7F0101E0E0228C
:10567000FF2408E028E04BE250E128C0482F50E02A
:10568000749EF001759EF00D1124EC50FD4F958530
:10569000992309F4A6CF21E0833008F420E0749E1A
:1056A000D001759EB00D1124AC50BD4F0481A601F0
:1056B0006F8D78A18C910E94821793CF7F01F1E0CA
:1056C000EF22FF2408E028E043E350E1B6016C5FDD
:1056D0007F4F8D8D9E8D0E94A10E83CF6091B6026B
:1056E0008091B5020E94CE1288CF8091B40285309D
:1056F00069F0863099F38430C9F4D2018C918350DB
:10570000833008F07ACF69A1862DECCFD201EC91DD
:10571000E33008F072CF7E9EF0011124EC50FD4F73
:1057200096818085981708F068CFEDCF6091B3021D
:105730008091B202D7CF00E028E041E26CE180E343
:105740000E94BD1701E026E04FE16DE181E30E9478
:10575000BD1781E892E083CF8091CD02882309F4C0
:1057600084C0813009F4D0C044EFE42E42E0F42E2E
:10577000B12CA12C88248394912C7A2CD7011596D6
:105780001C91193008F0F3C0110F1150F7018281FC
:10579000882309F45EC000E020E0650134E0CC0C11
:1057A000DD1C3A95E1F7A60170E060E080810E947F
:1057B00082179092CE078092CD0721E130E030939E
:1057C000CA072093C9073093C8072093C707D09210
:1057D000CC07C092CB0788E892E00E943318D7012B
:1057E00015968C910E944018E1E1F0E0F093CA0711
:1057F000E093C907F093C807E093C707F5E0CF0E21
:10580000D11CD092CC07C092CB078BE892E00E94CB
:105810003318D7011C968C910E94B617F701848526
:105820000E9440188EE892E00E943318812F0E9457
:10583000B617812F0E944018D70116968C918823A5
:1058400041F08091CD02882309F493C0813009F49E
:10585000A3C0FFEFAF1ABF0A0EE0E00EF11C13E089
:10586000A116B10409F089CFF7C984E00E94960E11
:10587000811106C088E00E94960E882309F474CF37
:1058800004EF12E0F12CE12CD80112968C911297C2
:10589000882359F116968C911697882331F1159625
:1058A000DC90B8E0BD1508F18E2D0E948B12F80136
:1058B0009485890F84872D2D220F2150821710F196
:1058C00091E09D0D9583821B993009F48FE0D801FA
:1058D0001C968C93C8010E94FB1CF801808586836E
:1058E00081E0F701E653FD4F8083FFEFEF1AFF0AD7
:1058F000025F1F4F23E0E216F10431F681E080934E
:10590000CD0232CF80E0EDCF84E00E94960E81116F
:1059100006C088E00E94960E882309F425CF1092D5
:10592000CA021092CB021092CC028091E9029091AF
:10593000EA0280389C4021F48BE080930C0114CF64
:105940008091D002882331F080912403811102C01C
:1059500088E0F3CF80910A01813039F486E08093AA
:105960000B011092EF0287E0E8CF85E0E6CF1FE061
:105970000DCF80E992E00E943318F70185818930CC
:1059800030F4872D0E948B120E94401862CF8BE367
:1059900090E10E946E0E5DCFF501E653FD4F8081D0
:1059A000882309F456CF83E992E00E94331851CF3F
:1059B0000E94B0201092E70281E08093E80280917B
:1059C000480381113CC08091E9029091EA0220E9EC
:1059D00031E0B9010E94F436629FC001639F900DCF
:1059E000729F900D11249093EA028093E902209116
:1059F0000A01213031F4805991409093EA0280935A
:105A0000E9028091E9029091EA02803921E092074F
:105A100090F021E02093E7028059914060E971E025
:105A20000E94F436617060930A0188E08093E50279
:105A30008FE08093E60285E080930C010DC91092FF
:105A4000EA021092E902F7CF80910B01883008F04A
:105A500047C1E82FF0E0E15DF24D0C941C37512E68
:105A6000252E252E252E332E372D432E5E2E80916A
:105A7000E8028F5F8093E8021091E7028A3001F517
:105A80000E94B5122091E9023091EA02112381F0BF
:105A90004091CF02C90160E273E00E94F4366230A7
:105AA000710509F06EC0413009F07EC01092CF023E
:105AB0001092E8022F5F3F4F3093EA022093E902F1
:105AC000113009F4B9C01092E60285E080930A0112
:105AD000E091E902F091EA02CF0160E971E00E94F1
