:100000000C948E090C94B6090C94B6090C94B6099C
:100010000C94B6090C94B6090C94B6090C94B60964
:100020000C94B6090C94B6090C94F0200C945F2142
:100030000C94B6090C94B6090C94B6090C94B60944
:100040000C94B6090C94B6090C94B6090C94B60934
:100050000C94B6090C94B6090C94B6090C9491232F
:100060000C94B6090C94B6090C94B6090C94B60914
:100070000C94B6090C94B6090C94B6090C94B60904
:100080000C94B6090C94B6090C94B6090C94B609F4
:100090000C94B6090C94B6090C94B6090C94B609E4
:1000A0000C94B6090C94B6090C94B609534147490F
:1000B00054544152492E0053434F5250494F004C23
:1000C0004942524100564952474F004C454F004368
:1000D000414E4345520047454D494E490054415514
:1000E00052555300415249455300504953434553DB
:1000F00000415155415249555300434150524943E3
:100100004F524E004E4F4E45004F4D4E49004D59F7
:1001100053544943004E41545552450053594E548F
:1001200048004E554C4C005452494B55524E0053CA
:10013000515545414D41534B005343415244524167
:10014000005241565541434B00504F4C544552527A
:100150004F52005045475348495245004D41555272
:100160004F41480047524946454C494F530046418C
:1001700045464C554646004455414C445241004387
:10018000484956414D5045524100544552525550F0
:1001900054494F4E004E45435241574C4552004D35
:1001A000415948414D00444153484F554E44004346
:1001B0005249424249540043484C4F524F41520029
:1001C0004348414D50414E5A4F4E0042554E4E45C8
:1001D00052494E4100425542424C55450042454528
:1001E0005448524F4E450058454E415543455200E4
:1001F0005350594D45524100534C5547414D4D4187
:10020000004F55544C454354524943004F445249C2
:100210004F4E004D494352554E54004C554D494E9A
:1002200041540044524942425900424F4C544E45B9
:1002300054494300415544494F55534500564F4991
:100240004449534D414C0030000000C0E0F0F8FC40
:10025000FCFCFCF8F0E0C0000000000F1F3F3D3F39
:100260003D3F3F3D3F1D0F00000078E878003844D7
:10027000D404581494586080000000070810101E21
:100280002140482C20425A6D0000C0C0409E12F20E
:100290005AF41A9E40C0C00000000C0C0B04033F2F
:1002A000553F03040B0C0C0000000000F0086466CE
:1002B000868E846870C00000000006096856506091
:1002C00021226150516E09060000709020F82452DE
:1002D00022022254F820907000000C10170D054DDA
:1002E00035057D050D17100C0000000000C0201022
:1002F000981410A8C40000000000000E0D4364789C
:10030000080B7B64430D0E0000008040A050084A9B
:10031000848A4890A0C0000000000F102F50404079
:100320004845645425190E000000006090103844C0
:10033000FE829AC29A827C00000000003029652665
:1003400064283000000000000000000000000000F1
:10035000C0A0E000C0A0E00000003048444C424F84
:1003600046524A53524A54380000C020120A8A4A60
:100370002C2A2A4A9220C00000000F102040474833
:100380005053534827100F0000008040A07088246D
:10039000441444A870A04080000021321C446A39F3
:1003A0000909396A441C3221000030509030D0A035
:1003B000C03CB2307830FC02000001472D1B4D3AA2
:1003C0000D5A250904090700000018FC1C0844C642
:1003D000C66E1EBE9C68D0E00000060F1F2F464070
:1003E00040464D4A4A2D160F0000000000C03884D8
:1003F0003424B8F424380000000000141A3F5A3A9C
:100400001A3B5A3E1B1400000000000080D87C56A6
:100410004AD64A7CC0800000000006090D63567A67
:100420001A157A56630D090600002050A08000803E
:10043000601068088810A0C000000000010E112F95
:100440004044596E22665A6D0000E010084452A2E2
:10045000020202A45870C00000007D4256664C6C37
:100460002D256D4C6E465D60000060C00080808070
:10047000809CB448AC0CB0C0000078465168596A02
:1004800008794258685F61010000C030B0808CF28A
:10049000042868ACA86CF20C00001E214021202327
:1004A000264B2A2B4B3A070000000000E010C8C87A
:1004B000D82808C8D0E0000000000A05370C7119E0
:1004C000256C3C6D251F7000000000C060202010CE
:1004D00038C4B4A48498E0000000060910385456CB
:1004E000753750506F0506000000F00804324AA42A
:1004F000106018A4C23A04000000010224485061B0
:1005000045422519070000000000E0F008C4244619
:100510001C442CF61C4428F00000030D1224494210
:1005200042464942463A010000003844840488505B
:10053000203028946444B8000000060910100F1001
:100540002223202422130F000000DA3498402226B0
:10055000CA3204246890608000003D425169596AA3
:1005600009714254745F61010000C020C000F0A80E
:10057000A4AEB884B8A4FE0000003B4443526324F8
:1005800028494C2A2C49576000000080C0201010D8
:100590003048F40AA60A26F8000007087F413949C6
:1005A0007A0A794038497F00000000E01008C4E46E
:1005B000A2420244A4E8D0E000000C172072567654
:1005C0004C464C464C76563B0000800080C0647C14
:1005D000FEEEFE7EECE4C080000003070D1A3B5BDC
:1005E0004B1B3D5F4E0101030000C020102040F076
:1005F000A8F40A6E4A0C30C000001F080C12266CCA
:10060000404A5C73515F6D000000C00894E412C85A
:1006100068C808C872E414C8000000014835020424
:1006200009080E0805033548000000C0344A74402C
:10063000344A7440B44A340000000F102040424B4A
:1006400050504A23100F00000000C0E0F0F8FCFEFC
:10065000FEFEFEFCF8F0E0C000000F1F3F7F7F7F32
:100660007F7F7F7F7F3F1F0F0078FCFCFCF8FCFE44
:10067000FEFEFCFEFEFCF8E08000070F1F3F3F3F40
:100680007FFFFF7F7FFFFFFF6DC0E0E0FEFFFFFF0A
:10069000FFFEFFFFFEE0E0C0000C1F1F1F0F3F7FAB
:1006A000FF7F3F0F1F1F1F0C000000F0F8FCFEFF34
:1006B000FFFFFEFCF8F0C00000060F7FFFFFFFFF0A
:1006C0007F7FFFFFFFFF7F0F0670F8F8F8FCFEFF4B
:1006D000FFFFFFFEFCF8F8F8700C1E3F3F1F4FFFB6
:1006E0007F7FFF7F1F3F3F1E0C000000C0E0F0F83F
:1006F000FCFEFCFCEEC4000000000E1F5FFFFFFFCD
:100700007F7FFFFFFF5F1F0E0080C0E0F0F8FEFF5D
:10071000FEFFFEF8F0E0C000000F1F3F7FFFFFFF6D
:10072000FFFFFFFF7F3F1F0E000060F0F8F8FCFEA8
:10073000FFFFFFFFFFFFFE7C00000030797FFF7F9F
:10074000FF7D79310101000000000000000000C0C1
:10075000E0F0F0E0E0F0F0E0003078FCFEFEFFFFBB
:10076000FFFFFFFFFFFFFF7C38C0E0F2FFFFFFFF4E
:10077000FEFFFFFFFFF2E0C0000F1F3F7FFFFFFF04
:10078000FFFFFFFF7F3F1F0F0080C0E0F0F8FCFE7F
:10079000FEFEFEFCF8F0E0C08023777F7FFFFF7F46
:1007A0007F7F7FFFFF7F7F772330F8F8F8F8F8F03E
:1007B000FCFEFFFEFCFCFEFF020147EF7F7FFF7F98
:1007C0007FFF7F3F0F1F0F070018FCFEFEFCFEFFA0
:1007D000FFFFFFFFFEFCF8F0E0060F1F3F7FFFFF6B
:1007E000FFFFFFFFFF7F3F1F0F000000C0F8FCFE70
:1007F000FEFEFCFEFE7C38000000143E3F7FFF7FC3
:100800003F7FFF7F3F3F140000000080D8FCFEFFC9
:10081000FFFFFFFEFCC0800000060F1F7FFFFFFFF1
:100820007F7FFFFFFF7F1F0F062070F8F0E080E062
:10083000F0F8FCFCFCF8F0E0C00000010F1F3F7F67
:10084000FFFFFFFF7FFFFFFF6DE0F0F8FCFEFFFF03
:10085000FFFFFFFEFCF8F0C0007DFFFFFFFFFFFF82
:100860007F7FFFFFFFFFFFFD6060F0E0C0C0C0C002
:10087000DCFEFEFCFEFEFCF0C078FEFFFFFFFFFF8B
:100880007FFFFFFFFFFFFF6301C0F0F8F8FCFEFFF2
:10089000FEFCFCFEFCFEFFFE0C1E3F7FFF7F7F7F09
:1008A0007FFF7F7FFF7F3F07000000E0F0F8FCFC48
:1008B000FCFCFCFCF8F0E000000A1F3F7F7FFF7F9C
:1008C0007FFF7FFF7F7FFF700000C0E0F0F0F0F857
:1008D000FCFEFEFEFEFCF8E000060F1F3F7FFFFF60
:1008E000FF7FFFFFFF6F0F0600F0F8FCFEFFFFFE2B
:1008F000FCF8FCFEFFFF3E04000103277FFFFFFF23
:10090000FFFF7F3F1F07000000E0F0F8FCFEFEFF46
:10091000FEFEFEFFFEFEFCF8F0030F1F3F7FFFFF11
:10092000FFFFFFFFFF7F3B0100387CFEFEFEFCF86F
:10093000F0F8FCFEFEFEFCB800060F1F3F3F1F3F15
:100940007F7F7F7F7F3F1F0F00DAFFFEFCFEFFFFF0
:10095000FFFFFEFEFCF8F0E0803D7FFFFFFFFFFFA2
:100960007FFFFFFFFFFFFF6301C0E0F0E0F0F8FC56
:10097000FEFFFEFCFCFEFFFE003B7FFFFFFFFF7F54
:100980007FFFFF7F7FFFFFF7600080C0E0F0F8F897
:10099000F8FCFEFFFFFFFFFEF8070F7FFFFF7FFF62
:1009A000FF7FFFFF7FFFFF7F0000E0F0F8FCFEFE0F
:1009B000FFFFFFFEFEFCF8F0E00C1F3F7FFFFFFF94
:1009C000FFFFFFFFFFFFFF7F3B80C080C0E4FEFE14
:1009D000FFFFFFFFFEFEE4C08003070F1F3F7FFF06
:1009E000FF7F7FFFFF4F030703C0E0F0F8F0F0F850
:1009F000FCFEFFFFFFFEFCF0C01F3F1F1F3F7FFFFD
:100A0000FFFFFFFFFFFFFF6D00C0E8FCFEFEFFFEE3
:100A1000FCFCFCFEFFFEFEFCC800014BFF7F3F1FFD
:100A20001F1F1F1F1F3F7FFD4800C0F4FEFFFEFC7D
:100A3000FEFFFEFCFEFF7E34000F1F3F7FFFFFFF27
:100A4000FFFFFF7F3F1F0F000006030159090F063C
:100A5000002F00202000454E004552524F52002FDB
:100A6000005850004C56004552524F5200D5F08D60
:100A700014A1C881CFD9F1AF200000B00000A1704F
:100A8000E150964F26900F1D070C009669004AE42E
:100A90004A0048444000806810000F99FB8F9DBDBC
:100AA000BBFB77D4D4DF1F1A1AFE7F5D5DFF805A2F
:100AB0000000A0A4AA0010BA3400FF5953F3FF9B12
:100AC0009B9EFFB9B996FF9595D19FF4940FFC2991
:100AD0005F91FF1838F8FF9294FFFF95D5F7BFB5E7
:100AE000DDD7F18F81F1F788C8F779C6467909FD1E
:100AF0009B090196F80082818280507162007756CE
:100B0000560076763700A2B7730107720600782781
:100B1000500073347400775176007F55F7004771A9
:100B20001000324772007364730015A2750061678C
:100B30009400009F6060F4F2F6F24552524F52006A
:100B40000F0B0B093C08103C784848303C367F6F4F
:100B50007F363C0041225D225D221C000408576361
:100B6000750810002A55414141221C003F7F4777FC
:100B7000005555001F21495D49211F000E112142DA
:100B800021110E003B787B606B683B00037D6D7527
:100B9000757360003C7EE7C3C3E77E3CC3E77E3CE1
:100BA0003C7EE7C330000205050E0505020000800B
:100BB000C0A0A19F9F8F89848484848C8C9494A4EA
:100BC000A4C4C48408081010202040C08000010183
:100BD000FF80B0B080FF80F88888F880FF80B0B0D8
:100BE00080FF81B1B1B181B1B1B181FF0101F808DC
:100BF00010083820202020203E223E203F213F08A0
:100C00001008F808100838202038081008F8FF806D
:100C10009B9B809B9B80F38BF88BF3809B9B809BA3
:100C20009B80FF809B9B809B9B809B9B80FF806029
:100C300038444A2A25494925254949252549492530
:100C400025494925254949252A4A44386080010219
:100C5000018242BE01922A9101E212090912E201C7
:100C6000912A920181028201BE428201020120E0AA
:100C70001008840C144CA4120913A5491109850D00
:100C800015E52525A525252526A42428F02000FFE7
:100C9000809F909F80F08889FA8988F0809F909F3C
:100CA00080FF809F909F80809F909F80FF0038C82A
:100CB000108F13CBBB00008080800000B8C8108F5D
:100CC00013CBBB80000080B8C8108F13CB3B00FF54
:100CD000809980FF8081F188F888F18180FF809978
:100CE00080FF809881819880FF809980FF00009824
:100CF000F4545434545474F860000039323F3F3F88
:100D00003F3F3D397600000C7AAAAA9AAAAABA7C7B
:100D100030000002457F7F1F5F7D7C0700000018C8
:100D2000F454543454D474F860000038303F3F3FDA
:100D30003F3C3D3F70000088F82C5C2C5C2C2C98CC
:100D400068000039323F313F3133353976000004D5
:100D50007C96AE96AE96964C34000002457F781F86
:100D60005A7D7C0700000008F82C5C2C5CAC2C98A9
:100D700068000038303F313F3334353F7000003079
:100D8000E864246424C40488700000040A7F417F5E
:100D9000454A495E6000001874B292B29262824481
:100DA00038000002057F407F42454C57600000300C
:100DB000E864246424C40488700000040A7F417F2E
:100DC000454A495E60000080FC246464242404FCDD
:100DD00000000039323F21212123353976000000FF
:100DE0007E92B2B29292827E00000002457F701025
:100DF00052757C0700000000FC24646424A404FCF9
:100E000000000038303F21212324353E700098FC3B
:100E1000FEFEFEFEFEFEFEFCF860397F7F7F7F7FD8
:100E20007F7F7F7FFF760C7EFFFFFFFFFFFFFFFED0
:100E30007C300247FFFFFF7FFFFFFF7F070018FCAA
:100E4000FEFEFEFEFEFEFEFCF860387C7F7F7F7FAC
:100E50007F7F7F7FFF7088FCFCFEFEFEFEFEFEFCB7
:100E6000FC68397F7F7F7F7F7F7F7F7FFF76047E77
:100E7000FEFFFFFFFFFFFFFE7E340247FFFFFF7F05
:100E8000FFFFFF7F070008FCFCFEFEFEFEFEFEFCEF
:100E9000FC68387C7F7F7F7F7F7F7F7FFE7030F8AC
:100EA000FCFEFEFEFEFEFEFCF870040E7FFFFFFF60
:100EB000FFFFFFFFFE60187CFEFFFFFFFFFFFFFE4E
:100EC0007C3802077FFFFFFFFFFFFFFFF76030F86E
:100ED000FCFEFEFEFEFEFEFCF870040E7FFFFFFF30
:100EE000FFFFFFFFFE6080FCFEFEFEFEFEFEFEFE3C
:100EF000FC00397F7F7F7F7F7F7F7F7FFF76007E53
:100F0000FFFFFFFFFFFFFFFF7E000247FFFFFF7FA6
:100F1000FFFFFF7F070000FCFEFEFEFEFEFEFEFE62
:100F2000FC00387C7F7F7F7F7F7F7F7FFE70FC04AB
:100F30005404FC80F0105010501050105010F080ED
:100F4000FF0155015501FF80FC045404FC808C52C4
:100F500091F191528C408C5291F191528C408C5273
:100F600091F191528C408C5291F191528C40804081
:100F70002030301018383C3C1810304884020103EF
:100F80000707060C1C0C8850E07070204080FFFFA3
:100F9000FEFEFFFFF0F0F8F8F8F0F0F8F8F8F0F0E7
:100FA000F8F8F8F0F0F8F8F8F0F0F8F8F8F0594F31
:100FB0005552205041574E532041524520484541FB
:100FC0004C454400594F5520474F5420414E20482E
:100FD0004552420047414D45205341564544002863
:100FE000422953415645002841295041574E53004C
:100FF00030204D45544552530030004C4149523A3F
:1010000000494E4E203A004E455854204445535412
:10101000494E4154494F4E0030204D45544552539E
:1010200000300044495354414E43452054524156E8
:10103000454C45440052454C45415345002F39002D
:101040004845524220005445414D00534C4F5400F6
:101050005049434B002842294E4F00284129594509
:10106000530052454C454153453F004E4F20544597
:10107000414D00444F20414354494F4E00594F5574
:10108000204841564500554E41424C4520544F00A2
:1010900000080C0E00000000000000000E0C08000C
:1010A00000103070000000000000000070301000E0
:1010B000181C1E1F1F0000000000001F1F1E1C1810
:1010C000183878F8F8000000000000F8F8783818B0
:1010D00001030703010000000406070604000000E6
:1010E00028422946524545002841294B4545500094
:1010F0002842294E4F002841295945530052455353
:10110000544152543F004E45572B00434F4E5449D3
:101110004E554500284229002841294E45570018C0
:101120001818FFFF18181880E0781C867E3C00080D
:10113000C4E606068EFCF800F0F88C86063E1C001D
:1011400000000000C0701C8EFE0008C4E606068E7B
:10115000FCF80000C0701C8EFE00F0F800000000DB
:10116000FCFE00F0F818F8F000FCFE1F3F60606025
:10117000301C0E007F7F030F3F7140001E3F6160F7
:1011800060301C0E00707C1F0707037F7F00007F0C
:101190007F03030301707C1F0707037F7F003F7FEE
:1011A00060383C607F3F007F7F003F7F607F7FF043
:1011B000F88C86063E1C0000F0F818F8F000FCFEE3
:1011C0000008C4E606060EFCF81E3F616060301C95
:1011D0000E007F7F003F7F607F7F00007F7F606029
:1011E000703F1F303018F8FC0C0606F0F800008045
:1011F000C0FCFE00F0F88C86063E1C000000007F5C
:101200007F0000007F7F060301007F7F001E3F619B
:101210006060301C0E080B0002020200000904008E
:101220000001020200000524001001052401010153
:10123000042402060524060001070581031000406E
:1012400009040100020A0000000705020240000034
:10125000070583024000000403090412010002EFA5
:101260000201404123368000010102030141726402
:1012700075696E6F204C4C430041726475696E6FE6
:10128000204C656F6E6172646F000070983C1C7C2E
:101290001C7C38D090000076392D2F2F292F2F322B
:1012A000390000384C9E8EBE8EBE9C68080000003F
:1012B000077C655714677F4502000070983C9C7C52
:1012C0001C7C38D0100000703F2D2C2F292F2F3080
:1012D000380070F8FCFEFEFEFEFEFCF8F89076FF8B
:1012E0007F7F7F7F7F7F7F7F7F39387CFEFFFFFF9F
:1012F000FFFFFEFC7C0800077FFFFFFF7FFFFFFF73
:10130000470270F8FCFEFEFEFEFEFCF8F81070FFCF
:101310007F7F7F7F7F7F7F7F7C380E2411241FBEDD
:10132000CFEFDAE0DEBFCDBF12E0A0E0B1E0E2E255
:10133000FEE602C005900D92AA39B107D9F727E061
:10134000AAE9B2E001C01D92AC3CB207E1F719E096
:10135000CEE8D9E004C02197FE010E94FD36CD38C9
:10136000D107C9F70E9446240C940F370C94000053
:10137000E7EBF3E080E0A0E0B8E000800EBC811174
:10138000012C1197A0FDFDCF0192B9F70DB408957E
:101390004F925F926F927F928F929F92AF92BF9285
:1013A000CF92DF92EF92FF920F931F93CF93DF9331
:1013B000A22FB0E0EC01CA0FDB1F1C161D060CF0BB
:1013C0009DC0803891050CF099C0603471050CF017
:1013D00095C0162F1770E3E075956795EA95E1F7CC
:1013E000362FEE27FF27E81BF90B97FD02C0F0E030
:1013F000E0E0C038D10514F020E8281B2E1B06952C
:1014000006950695EB01C00FD11D299709F45EC022
:101410005B01B694BA2CAA24B794A794A80EB91E5F
:10142000AE0EBF1EE40FF51FC22FD0E0CC2061F03E
:10143000AE0141505109E40FF51FAD014C1B5D0B8E
:1014400097FF47C0E41BF50B612E012E000C7708B7
:10145000C50189549C4F5D01AC1ABD0A2D014C0E8B
:101460005D1ED0E0C0E0C21708F03CC044914423A8
:1014700041F150E0062C02C0440F551F0A94E2F7D8
:1014800037FD0AC04C018C0E9D1ED401FC90EE204D
:1014900019F1F42AD401FC92112399F037308CF41D
:1014A0004E01B0E88B0E911C880E991ED401FC9061
:1014B0004F2D452BE11003C0452F40954F21D401FE
:1014C0004C93CC2069F031972196CDCF08E0061BD4
:1014D0009FCFE40FF51FB8CFD42ED094FD20DACFE4
:1014E0003196F2CF3F5FCC20D1F0E40DF51D80584E
:1014F0009F4F432F461B401708F4B3CFDF91CF9186
:101500001F910F91FF90EF90DF90CF90BF90AF9021
:101510009F908F907F906F905F904F900895EA0D0D
:10152000FB1DE5CF480F592F511D1416150684F5E4
:10153000803891056CF597FF02C090E080E041385B
:10154000510514F040E850E0481BFB01E770FF270D
:1015500021E001C0220FEA95EAF777FF02C0695F38
:101560007F4FFB0133E0F595E7953A95E1F7F69566
:10157000FE2FEE27F795E795E80FF91FE954FC4F8A
:10158000415030F08191DF011197822B8C93F8CF7D
:101590000895FC0180916503882311F13FB7F89409
:1015A00082E08093E9002091F200822F90E01816EB
:1015B000190614F481E090E0882339F0289844E675
:1015C000409364034091F1004083222339F020913D
:1015D000F200211103C02BE62093E8003FBF0895DD
:1015E0008FEF9FEF08952FB7F89483E08093E90081
:1015F0009091E800892F807295FF04C09091F200CD
:1016000080E4891B2FBF089580915C0381110DC078
:1016100082E08093580384E08093590310925B0327
:1016200010925A0381E080935C0388E593E008956B
:10163000CF93DF931F92CDB7DEB76983DC01ED91C5
:10164000FC910280F381E02D41E050E0BE016F5F2C
:101650007F4F09950F90DF91CF91089583E080939C
:10166000E9008091F200882319F08AE38093E80072
:1016700008950E94F30A90E00895CF93DF931F929C
:10168000CDB7DEB7FC018485958597FD08C02FEFA7
:101690003FEF358724870F90DF91CF910895CE01DA
:1016A00001960E94C90A019719F4898190E0F3CF4D
:1016B0008FEF9FEFF0CF0F931F93CF93DF931F9286
:1016C000CDB7DEB78C01FC018485958597FF0BC0F3
:1016D000CE0101960E94C90A019771F4898190E0B8
:1016E000F80195878487F801848595850F90DF91AF
:1016F000CF911F910F9108958FEF9FEFF1CFFC01D4
:101700008485958597FD0BC09FB7F89482E0809300
:10171000E9008091F2009FBF90E0019608959FB785
:10172000F89482E08093E9008091F2009FBF90E0FE
:1017300008954091520350915303209150033091EA
:10174000510342175307B4F49091E8009570E1F308
:101750009091E80092FD19C08093F10080915203AE
:101760009091530301968F739927892B19F48EEF6B
:101770008093E800809152039091530301969093D7
:1017800053038093520381E0089580E00895DF922F
:10179000EF92FF920F931F93CF93DF93D82E8A017E
:1017A000EB017B01E40EF51ECE15DF0559F0D7FEE7
:1017B00012C0FE0184910E94990B21968111F4CFF1
:1017C0000FEF1FEFC801DF91CF911F910F91FF9095
:1017D000EF90DF9008958881EECF0F931F93CF9302
:1017E000DF931F92CDB7DEB782E0898342E450E0F9
:1017F00065E172E180E80E94C70B0E94040BDC01E6
:1018000012960D911C910115110589F0D801ED91E9
:10181000FC910280F381E02DBE016F5F7F4FC80114
:10182000099597FD04C0F80100851185ECCF8981E9
:101830000F90DF91CF911F910F910895615030F07B
:101840002091F100FC0120830196F8CF289884E6CE
:101850008093640308953FB7F89480914C0390916E
:101860004D03A0914E03B0914F0326B5A89B05C030
:101870002F3F19F00196A11DB11D3FBFBA2FA92F0F
:10188000982F8827BC01CD01620F711D811D911D0C
:1018900042E0660F771F881F991F4A95D1F7089578
:1018A0008F929F92AF92BF92CF92DF92EF92FF9270
:1018B0006B017C010E942B0C4B015C01C114D10413
:1018C000E104F104B9F00E942B0C681979098A0926
:1018D0009B09683E73408105910580F321E0C21A9F
:1018E000D108E108F10888EE880E83E0981EA11C5B
:1018F000B11CE4CFFF90EF90DF90CF90BF90AF90FE
:101900009F908F9008958F929F92AF92BF92CF92A7
:10191000DF92EF92FF920F931F93CF93DF936C01AF
:101920007B018A0180911701882309F45CC08091B2
:101930006503882309F457C08091570380FF05C0D1
:101940008091E00082608093E000E801B12C8AEF92
:10195000A82E93E0892E2AE3922E209711F4BB2023
:10196000D9F10E94F30A81110AC0AA94AA20D9F1E0
:1019700061E070E080E090E00E94500CEECF8C17A8
:101980001D0611F00CF08C2F9FB7F8948092E9009F
:101990002091E80025FD02C09FBFDFCF282F30E057
:1019A000C21BD30BF701815020F041914093F1000D
:1019B000FACFE20EF31EBB2021F09092E800B12C8A
:1019C000EBCF8091E80085FDE7CF9092E800BB2443
:1019D000B394209709F3F3CF5D9884E68093560380
:1019E000101611063CF081E090E0F60193838283AB
:1019F00010E000E0C801DF91CF911F910F91FF909F
:101A0000EF90DF90CF90BF90AF909F908F90089510
:101A1000AF92BF92CF92DF92EF92FF920F931F93FC
:101A2000CF93DF936C017B018B01040F151FEB013A
:101A30005E01AE18BF08C017D10759F06991D601F1
:101A4000ED91FC910190F081E02DC6010995892B63
:101A500079F7C501DF91CF911F910F91FF90EF9022
:101A6000DF90CF90BF90AF9008956F927F928F924A
:101A70009F92AF92BF92CF92DF92EF92FF920F931D
:101A80001F93CF93DF934C017B01C22F102F98E05F
:101A9000A92EB12C642E669466946694712CCA01AA
:101AA00087709927892B79F5D40117962D913C9150
:101AB000C7019927B9010E94E936269DF001279DAB
:101AC000F00D369DF00D11248E0F9F1FD401159639
:101AD000ED91FC91E80FF91F2081111112C0C09502
:101AE000C223C083DF91CF911F910F91FF90EF90A0
:101AF000DF90CF90BF90AF909F908F907F906F902E
:101B00000895C22BEECFD0E04770C42ED12C83E0D5
:101B1000660C771C8A95E1F79E0101C0220F4A9559
:101B2000EAF7012FA301B701C4010E94350DA301FB
:101B3000485F5F4FC5018C199D0902C0D595C795B7
:101B40008A95E2F7A7CF5F926F927F928F929F92D2
:101B5000AF92BF92CF92DF92EF92FF920F931F93BB
:101B6000CF93DF93EC016A30F1F48D859E859C87DD
:101B70008B878C892F853889820F932F911D988BA5
:101B80008F8781E090E0DF91CF911F910F91FF90BF
:101B9000EF90DF90CF90BF90AF909F908F907F900D
:101BA0006F905F900895AB84BC84693031F429E074
:101BB000A20EB11CBC86AB86E4CF3DEFA3163FEF6F
:101BC000B3060CF45DC08F819885A816B9060CF099
:101BD00057C0CF84D8888DEFC8168FEFD8060CF485
:101BE0004FC089859A85C816D9060CF049C0603265
:101BF00008F46FE780EE860F9FE9960F9A3118F48C
:101C00009FEFC91AD90A8C3011F08B3119F42FEFDC
:101C1000C21AD20A869534E0839FC00111249C0128
:101C20002658354F7901912C812C162F1170F70110
:101C3000E80DF91D549011112DC0352D3F70532E14
:101C40003501680C791C8C81882361F001E0898959
:101C50009A89892B09F000E02FE0A601B301CE019B
:101C60000E94350D0989252DA601B301CE010E94E0
:101C7000350D8FEF881A980A94E089169104B9F609
:101C80008B8990E004962B853C85820F931F9C875F
:101C90008B8777CF52948FE05822D2CF0F931F9328
:101CA000CF93DF938C01D0E0C0E0F801EC0FFD1F73
:101CB0006491662341F087EB97E00E94A30D892B86
:101CC00011F02196F2CFCE01DF91CF911F910F91AC
:101CD0000895BC0190E080E00C94500C8FB1809589
:101CE000807F669B88601C9B84600895909145036B
:101CF000982329F490914603982381E009F480E029
:101D000008952F923F924F925F926F927F928F929F
:101D10009F92AF92BF92CF92DF92EF92FF920F937A
:101D20001F93CF93DF93CDB7DEB728970FB6F89404
:101D3000DEBF0FBECDBF822E912C9401280F391F1C
:101D4000121613060CF08BC0803891050CF087C07A
:101D5000603471050CF083C09B01277033273E83EC
:101D60002D83069506950695202F30E03C832B8326
:101D70002B0123E0559447942A95E1F7920136957B
:101D8000322F222737952795280F391F29543C4F8A
:101D90003A01D20148E050E0BA01ED81FE816E1BAC
:101DA0007F0B7A8369838C0170E060E01901F0E8B1
:101DB0002F0E311C17FD37C06901C60ED71EF60164
:101DC000F080A301460F571F58874F8351E0EF81E2
:101DD000F885E5125DC0A490B12C0D8002C0AA0C5C
:101DE000BB1C0A94E2F7AF28F601A0824D815E8108
:101DF000452BC9F0A730B105B1F0A101460F571F1F
:101E0000FA01F080F1E0EF1251C0EF81F885D49033
:101E1000ED2DF0E0098002C0F595E7950A94E2F710
:101E2000FE2AFA01F0826F5F7F4F0F5F1F4F681528
:101E3000790524F40038110509F0BCCF119620581B
:101E40003F4F680C791CAD01441955096B817C81A9
:101E50004617570724F4A830B10509F0A4CF2896F7
:101E60000FB6F894DEBF0FBECDBFDF91CF911F91AB
:101E70000F91FF90EF90DF90CF90BF90AF909F9029
:101E80008F907F906F905F904F903F902F9008952C
:101E9000449150E00D8002C0440F551F0A94E2F7B0
:101EA000409550954F21F6014083A0CFEF81F885F2
:101EB000D490ED2DF0E0098002C0F595E7950A94E5
:101EC000E2F7E095F095FE22ACCFCF92DF92EF9251
:101ED0000F93CF93DF93C091660398E1C99FE00110
:101EE0001124C82ED12CAE014E525D4EEE24E39447
:101EF00000E12CE068E170E0C6010E94810EAE01B5
:101F000046575D4EE12C2CE068E170E0C6010E946E
:101F1000810EDF91CF910F91EF90DF90CF900895D8
:101F200080389105B8F460347105A0F420E191E0A7
:101F300061FD94E060FD990F62FD9295687F269F98
:101F4000D0011124A80FA954BC4F8C9140FF03C0AD
:101F5000892B8C93089590958923FBCFFF920F9343
:101F60001F93CF93DF93EC018B01F42E42FF0BC044
:101F700041E001960E94900F41E0B8016F5F7F4FF2
:101F8000CE010E94900FF1FE0DC041E0B801CE01DC
:101F900001960E94900F41E0B80161507109CE0195
:101FA0000E94900FF3FE0DC041E0B8016F5F7F4FBC
:101FB000CE010E94900F41E0B801CE0101970E942E
:101FC000900FF0FE12C0B8016150710941E0CE01DE
:101FD0000E94900F41E0B801CE010197DF91CF91AF
:101FE0001F910F91FF900C94900FDF91CF911F9153
:101FF0000F91FF900895DF92EF92FF920F931F933E
:10200000CF93DF937C01D22E8B01040F111DEB01C6
:1020100077FF02C0D0E0C0E0C8010134110514F020
:1020200080E490E0C817D9073CF44D2DBE01C701EC
:102030000E94900F2196F0CFDF91CF911F910F91C9
:10204000FF90EF90DF900895CF92DF92EF92FF9292
:102050000F93CF937C01842F41E0420FC3E0C20F66
:102060009B01215031096901202F813081F4C70182
:1020700001960E94FB0F202F4C2FB601C701CF9174
:102080000F91FF90EF90DF90CF900C94FB0FC70162
:102090000197EFCF4F925F926F927F928F929F92B4
:1020A000BF92CF92DF92EF92FF920F931F93CF9345
:1020B000DF934C01EB01142FE22EB02E8EEF682E31
:1020C000640E64018FEFC81AD80A26016C0C7D2CAF
:1020D000711C4614570454F42B2D4E2DBE01C20121
:1020E0000E94FB0F9FEF491A590AF3CF8E2D8350A0
:1020F000990B7C012196C401810F911D0B2D970135
:1021000041E0BE0102970E942410970142E0BE0107
:10211000C6010E942410DF91CF911F910F91FF9073
:10212000EF90DF90CF90BF909F908F907F906F90B7
:102130005F904F900895089590E080E00895809119
:10214000EC02803249F09091EB02903299F4809346
:10215000EB0280E28093EC028091ED02803279F014
:102160009091EC02903249F48093EC0280E28093EB
:10217000ED0208958913F0CFEACF8917A9F30895E6
:10218000E82FF0E08091EB02E551FD4F681759F020
:102190008091EC02681771F08091ED02681761F090
:1021A00060830C949F1080E09081961307C080E2BA
:1021B0008083F7CF81E0F8CF82E0F6CF6083E82F0D
:1021C000F0E0E551FD4F9083ECCFCF93C82F80E82E
:1021D0000E94760E882339F080910601882319F039
:1021E00081508093060180E10E94760E882339F0A9
:1021F000809106018C1718F48F5F80930601CF91B0
:1022000008953091ED0282E0303209F481E040918E
:10221000EC02403209F481509091C9022091EB0206
:10222000921749F0941739F0931729F0823019F07A
:10223000203209F08F5F0895282FEFEEF2E090E052
:1022400081E052813581468160A974A5772319F018
:10225000611101C08F5F291749F0552339F04423DC
:1022600029F0393018F4823008F081509F5F3E9693
:10227000933039F7089590914303911189E0809349
:102280009D0280939E0280939F0208958091660331
:10229000813079F480919B02811108C082E08093A3
:1022A00066038091660380939B02089510926603F3
:1022B000F8CF80939B0281E0809366030895CF92CC
:1022C000DF92EF920F93CF93DF9390E1699F6001CC
:1022D0001124C82FD0E0249684E0CC0FDD1F8A950E
:1022E000E1F7E12C00E120E140EB50E1B601CE0145
:1022F0000E94810EEE24E39420E140E950E1B60112
:10230000CE010E94810EDF91CF910F91EF90DF906F
:10231000CF900895FA0194E0699FD0011124AF5441
:10232000BD4FA80FB11D9C91933068F490819330FC
:1023300050F49091A702911106C093E0908391E030
:102340009183828363830895A1EBB2E0FD019281C2
:102350002DEF290F233090F0349692E0E13CF907FD
:10236000B1F713969C9113972DEF290F233050F05E
:102370001496EA17FB07A9F781E00895891761F31E
:1023800080E008958917A1F3FBCFAF92BF92CF925F
:10239000DF92EF92FF920F931F93CF93DF93D82F8B
:1023A000B62E842FA22EE62EF12CCD2ED12CF701A5
:1023B000EE0FFF1FEE0FFF1FAA2009F452C0EB54CF
:1023C000FD4FEC0DFD1D9081C2E0933008F0C3E09D
:1023D0000E94A4119701220F331F220F331FD23006
:1023E00040F4F901EF54FD4F9381963051F481117F
:1023F00008C0F901EF54FD4FEC0DFD1D90819630A2
:1024000009F4C150882311F0A110C150F901EF5413
:10241000FD4FDF01AC0DBD1D8C91833030F081810B
:102420008330A0F48281863089F42F543D4FF90126
:10243000EC0DFD1D8181863049F4F80180818C17F7
:1024400028F4C0831182DF5FD283B382DF91CF9102
:102450001F910F91FF90EF90DF90CF90BF90AF90C2
:102460000895E355FD4FADCF2F923F924F925F926B
:102470006F927F928F929F92AF92BF92CF92DF9294
:10248000EF92FF920F931F93CF93DF9300D000D072
:10249000CDB7DEB782E08093020192E0C92ED12C45
:1024A000512C22E0422E33243394EC2C6624639486
:1024B0006C0C81EBA82E82E0B82EC6018E549D4F85
:1024C0004C01F12C22242A942C0C19824A821B8262
:1024D0001C82F40140818DEF840F772473947F0C6C
:1024E000833008F04EC08EE0849FF0011124E1514A
:1024F000FD4F928580910501981708F042C091E048
:10250000921508F4EBC0FF2049F08E010F5F1F4FBA
:1025100021E06FEF6F0D8E2D0E94C5111981F5011D
:10252000EC0DFD1D8081833008F494C0863009F4E1
:10253000AFC08981181710F4EB82FC82F3E0FF1220
:10254000B9C0AE014F5F5F4F6FEF6F0D862D0E94D8
:102550008A1183E0F812BAC08981581690F4F40108
:1025600090819093C2029A81909302019B819093F3
:10257000AB029C819093AC026092AE02F092AF02EB
:10258000582EF72CF4E08F0E911C84E0A80EB11C9D
:1025900094E079129ACFE1E0CE1AD10808F085CF05
:1025A00080910201823009F0B0C09091AA0291118D
:1025B00005C08091A9028F5F8093A9028091A90232
:1025C0008F3011F0992379F11092AA021092A9028A
:1025D000809100019EE0899FF0011124E151FD4F9F
:1025E000968191110EC0EFEEF2E080E09281992386
:1025F00019F09681911105C08F5F3E968330B1F737
:1026000086E08093C2021092A802109203011092F9
:10261000B00280910401873008F086E08D5F8093DE
:1026200004011092A7020F900F900F900F90DF916E
:10263000CF911F910F91FF90EF90DF90CF90BF90BF
:10264000AF909F908F907F906F905F904F903F9052
:102650002F90089581810E94A411811117C0F50166
:102660008381863099F081E0F2E0EF1621F0F501E8
:102670009381963009F48F5F181708F05ACF909124
:10268000A702911156CF89833A8253CF82E0ECCFD3
:10269000F1E0EF120DC0F50182810E94A4118111B9
:1026A00007C081E0181708F044CF89831A8241CF10
:1026B00082E0F8CF8E010F5F1F4F20E0F4014081D0
:1026C000672D8E2D0E94C511F1103BCFAE014F5FDB
:1026D0005F4F672D862D0E948A113ECFF5018081C4
:1026E000833040F0863069F08981882309F449CF2E
:1026F000FC8232CF8091A7028111F6CF49823A82C3
:10270000F3CFF4E0F9831A82EFCF81E08093B00237
:102710008ACFCF9380E80E94760EC091AC028823C6
:1027200051F11C1644F5C150C093AC028091AC022B
:10273000082E000C990B2091AF0228171906C9F436
:102740002091AE0230E08091AB02082E000C990B74
:102750002817390771F0E091C2024EE0E49FF001C2
:102760001124E151FD4F41E0281739070CF440E0F6
:102770004483CF91089580E10E94760E882311F062
:10278000C33084F080E20E94760EC091AB028111CA
:102790000BC080E40E94760E882341F2C33034F6E9
:1027A000CF5F05C0CF5FC0CF1C169CF7C150C09350
:1027B000AB02BCCF0F931F93CF93DF9380E80E94AF
:1027C000760E8823A1F08091C202882381F0815087
:1027D0009EE08902F0011124E151FD4F87FD07C001
:1027E00096813E97992309F471C08093C20280E1DB
:1027F0000E94760E8823A9F08091C202823088F46C
:102800008F5F9EE0899FF0011124E151FD4F968179
:10281000992309F45DC09281992309F459C08093EA
:10282000C20280E20E94760E882339F08091A802CD
:10283000882319F081508093A80280E40E94760ECC
:10284000882339F08091A802833018F48F5F809339
:10285000A802E091C2020E2F10E08EE0E89FF00186
:102860001124E151FD4FD285C091A802C130B1F5CC
:10287000DF5F88E00E94760E882309F446C08091CD
:1028800004018D1718F4C33009F03FC08091AE02E7
:102890008093AB028091AF028093AC028EE0809F68
:1028A000F001819FF00D1124E151FD4F848180934F
:1028B0009A0281E08093B002C13009F43BC080E00D
:1028C000C13008F1C23071F087E01DC0815086CF61
:1028D0003E96823009F4A5CF82E099CFC23049F606
:1028E000DE5FC7CFE381E83078F7F0E0E658FB4ED3
:1028F0000C94FD369A149614981482149A14921417
:1029000094149A1483E08093AD0284E00E94760EC2
:10291000882319F083E08093A802DF91CF911F9163
:102920000F91089586E0EFCF85E0EDCF84E0EBCF07
:1029300082E0E9CF81E0E7CFDC01EC91E63048F4BA
:102940008EE0E89FF0011124E151FD4F8681811155
:102950000CC086E08C93EC918EE0E89FF00111248E
:10296000E151FD4F86818783089581E08587F3CF0C
:10297000CF93DF93F901A82FB0E094E0699F900115
:102980001124E901CF54DD4FCA0FDB1F9881973026
:1029900011F496E098832F543D4FA20FB31F9C91E2
:1029A000963080F49091A702911111869185911132
:1029B00015C09681992319F091E0958701C015867D
:1029C00096819783833039F4633029F4FA0180814A
:1029D00081111092B002DF91CF910895191684F7FA
:1029E000DA011C929185915091879681915096833E
:1029F000958521E09227E1CFA62FA21BBB0BFD01FD
:102A0000119711F0319611F4841769F0841B990B1A
:102A10008130910521F481E0621303C0089501968D
:102A2000D1F380E0FBCF81E00895CF92DF92EF9267
:102A3000FF920F931F93CF93DF93CDB7DEB7A79786
:102A40000FB6F894DEBF0FBECDBFCA8EDB8EEC8E04
:102A5000FD8E0E8F1F8F28A339A34AA35BA36CA3FF
:102A60007DA38EA39FA389E1ECE1F1E0DE01119645
:102A700001900D928A95E1F78B8D2BA941E050E0F2
:102A80004C0F5D1FE5E08E9F400D511D1124CA01C2
:102A9000820F911DFC0180818823F9F061E0823072
:102AA00011F081E001C082E09DA1899FC001112445
:102AB00070E00E94E936862F90910B01923079F4F4
:102AC0009091A802923069F49D8D9130E9F0C8F0A0
:102AD000943039F4862F880F04C062E0E2CF977FEC
:102AE00099F38F5FA7960FB6F894DEBF0FBECDBFE8
:102AF000DF91CF911F910F91FF90EF90DF90CF90DA
:102B0000089588AD8150EDCF8BEA689F812D112407
:102B10008695E7CF8F929F92BF92CF92DF92EF92EE
:102B2000FF920F931F93CF93DF93EC014B01FB01B7
:102B3000B680B7822DB73EB72E5031090FB6F89444
:102B40003EBF0FBE2DBFADB7BEB711968EE0019050
:102B50000D928A95E1F7C880D980EA80FB800C81CC
:102B60001D812E813F81488559856A857B858C85AD
:102B70009D850E9415154DB75EB7425F5F4F0FB63A
:102B8000F8945EBF0FBE4DBFEB2DE81BFF0BB81ACC
:102B9000F7FDB12CF401B782DF91CF911F910F9116
:102BA000FF90EF90DF90CF90BF909F908F9008950F
:102BB0002F923F924F925F926F927F928F929F924D
:102BC000AF92BF92CF92DF92EF92FF920F931F933B
:102BD000CF93DF9300D01F92CDB7DEB7898322E079
:102BE000873009F421E0E0910301F0E03090C20267
:102BF000832C912CEC5FFE4F9EE0989DA001999D47
:102C0000500D112441515D4F5B834A838081DA016D
:102C10001A963C91831B821B80838091AC0240906A
:102C2000AB02042C000C5508B4E08B0250011124B7
:102C3000F501EF54FD4FE40DF51D2080622C712C41
:102C4000969DF001979DF00D1124E151FD4F2DB798
:102C50003EB72E5031090FB6F8943EBF0FBE2DBFC0
:102C6000ADB7BEB7119601900D929A95E1F7AA8182
:102C7000BB81CC901196DC9011971296EC90129734
:102C80001396FC90139714960C91149715961C911B
:102C9000159716962C91169717963C91179718969C
:102CA0004C91189719965C9119971A966C911A97EE
:102CB0001B967C911B971C968C911C971D969C9142
:102CC0000E9415150FB6F894DEBF0FBECDBFF98177
:102CD000F83008F5EF2FF0E0E059F94E0C94FD368E
:102CE0004D17D816A91678167816A31673177816E6
:102CF0009EE0969DF001979DF00D1124E151FD4F4E
:102D00009681492F481B550B14161506D4F0918750
:102D100082E08093B0020F900F900F90DF91CF91DF
:102D20001F910F91FF90EF90DF90CF90BF90AF90E9
:102D30009F908F907F906F905F904F903F902F90DB
:102D400008958187E5CF81E08093A7021092B002B9
:102D5000E2CF9EE0989DD001999DB00D1124A15124
:102D6000BD4F14968C91149780939A02969DF00112
:102D7000979DF00D1124E151FD4F948114969C9381
:102D800084838091AF02E091AE0254E0859FC00140
:102D900011248F549D4FE80FF92FF11D8081D5012B
:102DA000AF54BD4F4A0E5B1ED2018C932082CECF12
:102DB0008FEEA82E82E0B82E93E0692E712C2EE0C3
:102DC000522E589CF001599CF00D1124E151FD4FF9
:102DD000FB83EA83569CF001579CF00D1124E151CE
:102DE000FD4F2DB73EB72E5031090FB6F8943EBFB8
:102DF0000FBE2DBFADB7BEB71196852D01900D92B8
:102E00008A95E1F7AA81BB81CC901196DC9011974D
:102E10001296EC9012971396FC90139714960C91BF
:102E2000149715961C91159716962C911697179630
:102E30003C91179718964C91189719965C91199791
:102E40001A966C911A971B967C911B971C968C91E5
:102E50001C971D969C910E9415150FB6F894DEBF25
:102E60000FBECDBFD501D0969C91D097E92FE81B1E
:102E7000FF0B1E161F0674F0D3969C93BFEF6B1AC0
:102E80007B0AEEE0AE0EB11CF6E06F16710409F09D
:102E9000A1CF3ECFD3968C93F1CF8EE0869DF001EB
:102EA000879DF00D1124E151FD4F96819187889DFA
:102EB000F001899DF00D1124E151FD4F868181873C
:102EC000EFEEF2E080E09281992341F09681992320
:102ED00029F0381619F08093C2021ACF8F5F3E9600
:102EE000833089F715CFEFEEF2E08681882311F069
:102EF000808586833E9623E0E931F207B1F726CF3D
:102F0000CF93DF93D82F8091A802813009F45EC05F
:102F100048F0823009F48AC0833009F410C1DF918F
:102F2000CF9108950E94891388E00E94760E88232D
:102F3000C9F18091AC02E091AB020E2E000CFF0BA8
:102F400024E08202C0011124DC01AF54BD4FAE0F5A
:102F5000BF1F3C91383011F0363021F54091C2024C
:102F60002EE0429FD0011124A151BD4F20910401B8
:102F70001A965C91251B209304018F549D4FE80FF6
:102F8000F91F40838091AF022091AE0244E0849FFC
:102F9000C00111248F549D4F820F911DFC0130837D
:102FA0001092B00284E00E94760E882309F4B7CF15
:102FB000E091C2022EE0E29FF0011124E151FD4FA9
:102FC00080919A0284831092B002A9CF0E94891343
:102FD0000E946E0E83FF1DC02091AC024091AB0297
:102FE00084E02802F0011124EF54FD4FE40FF11D9D
:102FF00047FDFA9580818350833058F46091AF0289
:103000008091AE020E94FC14882319F087E00E9490
:10301000D81584E00E94760E882309F480CFE091D1
:10302000C2029EE0E99FF0011124C8CFD73008F515
:10303000ED2FF0E0E25EF74E0C94FD3625189D185A
:103040003B186C1825189D1882180E94891320912E
:10305000AC024091AB0284E02802F0011124EF544D
:10306000FD4FE40FF11D47FDFA95808183508330B9
:10307000A8F0C0E01AC00E9489132091AC024091D0
:10308000AB0294E02902F0011124EF54FD4FE40F4C
:10309000F11D47FDFA958081863058F76091AF02A7
:1030A0008091AE020E94FC14C82F88E00E94760E28
:1030B000882329F0CC2319F08D2F0E94D81584E0A5
:1030C0000E94760E882309F42ACFE091C2024EE0D6
:1030D000E49FF001112472CF0E948913E091AC02A9
:1030E0008091AB0224E0E202F0011124EF54FD4F85
:1030F000E80FF11D87FDFA9580818350C1E0833090
:10310000A0F2B7CF8091F5029091F702891711F0E4
:10311000811113C08091030390910503891711F069
:1031200081110BC08091110390911303891711F045
:10313000811103C01092B0029CCFC1E0B6CF809144
:10314000C20280930001EFEEF2E083E094A59923A0
:1031500019F090A9911104C08F5F3E968630B1F7A7
:103160008093C20284E08093A80281E080930301EF
:103170001092B0028091A502811109C080910501D1
:10318000873008F086E08D5F80930501C8CE1092ED
:10319000A502C5CE8F929F92AF92BF92CF92EF922F
:1031A000FF920F931F93CF93DF935B014A01122F7E
:1031B00090E2899FE0011124EE24E394E226AE011F
:1031C000475B594FC02E00E120E1B401C5010E94C8
:1031D000C809AE01475B5D4FE12E20E1B401C50196
:1031E0000E94C809DF91CF911F910F91FF90EF903E
:1031F000CF90BF90AF909F908F9008958A3020F429
:1032000087E492E00C944E0E0895EF92FF920F9394
:103210001F93CF93DF93102FE62EF12CC82FD0E011
:10322000B701CE010E944A10E7EBF7E001E010275A
:10323000012F10E0128B018B2196D687C587D4878A
:10324000C3878FEFE81AF80AF08AE786DF91CF91FB
:103250001F910F91FF90EF9008958F929F92AF92E0
:10326000BF920F931F93CF93DF93CDB7DEB7A19794
:103270000FB6F894DEBF0FBECDBF19A2423008F4DE
:103280004AE08E010F5D1F4F842E912CB12CA12C92
:10329000A50194010E949636E62FB901CA01EA30D1
:1032A00044F5E05DD801EE938D01232B242B252BD3
:1032B00079F790E080E0109769F0FD01019000201F
:1032C000E9F73197AF014A1B5B0BBD0187EB97E034
:1032D0000E94080DA1960FB6F894DEBF0FBECDBFB9
:1032E000DF91CF911F910F91BF90AF909F908F90E2
:1032F0000895E95CD7CFFC0101900020E9F73197F0
:10330000AF01481B590BBC0187EB97E00C94080DEB
:10331000682F70E090E080E04AE00C942D19CF9285
:10332000DF92EF92FF92CF93DF936C01990FEE083B
:10333000FF08F7FE19C06DE287EB97E00E94A30D2E
:10334000EC0166277727CB016C197D098E099F094F
:103350004AE00E942D198C0F9D1FDF91CF91FF90A5
:10336000EF90DF90CF9008954AE0C701B601DF915A
:10337000CF91FF90EF90DF90CF900C942D19AF92EA
:10338000BF92CF92DF92EF92FF920F931F93CF9352
:10339000DF93EC01F62E01E029E244E361E080E0F6
:1033A0000E9405198A81882309F4C4C1E8818AE34F
:1033B0009BE0E03238F4F0E0EE0FFF1FE85FFD4FD6
:1033C000808191810E944E0E81E090E09093C5072C
:1033D0008093C4079093C3078093C20787E090E06F
:1033E0009093C7078093C607E98187E69AE0E530A6
:1033F00038F4F0E0EE0FFF1FE250FE4F8081918124
:103400000E944E0E81E090E09093C5078093C40720
:103410009093C3078093C2078CE090E09093C70716
:103420008093C607EA8189E59AE0ED3038F4F0E050
:10343000EE0FFF1FEC51FE4F808191810E944E0ED6
:1034400001E010E01093C5070093C4071093C30771
:103450000093C20781E190E09093C7078093C6076D
:1034600084E69AE00E944E0E8D810E948819109386
:10347000C5070093C4071093C3070093C20786E1F2
:1034800090E09093C7078093C60781E69AE00E9478
:103490004E0E8C850E94FE188C850E9488198FE53F
:1034A0009AE00E944E0E1D81193009F44AC0110F96
:1034B0001150812F0E94FE18812F0E94881981E0EF
:1034C00090E09093C5078093C4079093C3078093BF
:1034D000C2078BE190E09093C7078093C60786E50B
:1034E0009AE00E944E0E80910B0181112EC1FF20A7
:1034F00009F42BC14E812885421708F026C180911E
:10350000E8029091E90265E070E00E94D536892BCF
:1035100021F48D8591E089278D878D85882399F009
:10352000822F869530E0840F9927991F2817390735
:103530000CF4C9018F830E94FE188F810E948819A4
:1035400006C01FE0B6CF83E59AE00E944E0E81E5EB
:103550009AE00E944E0E88850E94FE1888850E947F
:10356000881989E090E09093C5078093C4079093F1
:10357000C3078093C20785E2A82EB12CB092C7077B
:10358000A092C6078A850E948819E12C08E028E0ED
:103590004CE85BE061E270E081E090E00E94810E27
:1035A00007E110E01093C5070093C4071093C30709
:1035B0000093C20790E2C92ED12CD092C707C092C7
:1035C000C6078B858F5F0E94FE188B8590E0019661
:1035D0000E948F191093C5070093C4071093C30767
:1035E0000093C207B092C707A092C6078A8590E0F1
:1035F00001960E948F1908E028E044E85BE061E250
:1036000070E08FE090E00E94810E8AE290E090935B
:10361000C5078093C4079093C3078093C207D092D5
:10362000C707C092C6078B81813021F0835082305A
:1036300008F05DC088818F3109F459C02DB73EB7BD
:103640002E5031090FB6F8943EBF0FBE2DBFADB757
:10365000BEB711968EE0FE0101900D928A95E1F7BA
:10366000C880D980EA80FB800C811D812E813F813A
:10367000488559856A857B858C859D850E941515B1
:103680002DB73EB7225F3F4F0FB6F8943EBF0FBE37
:103690002DBF0E94FE188DB79EB70E970FB6F894F7
:1036A0009EBF0FBE8DBFADB7BEB711968EE0FE01B7
:1036B00001900D928A95E1F7C880D980EA80FB805D
:1036C0000C811D812E813F81488559856A857B85C6
:1036D0008C859D850E9415152DB73EB7225F3F4F03
:1036E0000FB6F8943EBF0FBE2DBF0E9488198AE224
:1036F00090E09093C5078093C4079093C30780938D
:10370000C20785E290E09093C7078093C6078A8539
:1037100090E002960E948F1988818F31D9F4E12CB4
:1037200008E028E049E45AE061E270E082E290E0DB
:103730000E94810EDF91CF911F910F91FF90EF902A
:10374000DF90CF90BF90AF9008958E810E94FE18B9
:103750008E81F4CE4B8138E0439FA0011124445B5D
:10376000544FE12C08E028E0DFCF0C944E360F9345
:103770001F93CF93DF938C01EB010E944E36888319
:10378000C80101960E944E368983CE01DF91CF9108
:103790001F910F910895CF93DF9300D0CDB7DEB77F
:1037A0001A821982BE016F5F7F4F88EB92E00E9400
:1037B000B71B8AEB92E00E94B51B982F29813A81B2
:1037C00021383C4018F481E09B3008F080E00F90F5
:1037D0000F90DF91CF910895EF92FF920F931F9377
:1037E000CF93DF9300D0CDB7DEB78C0183E0689F25
:1037F00070011124BE016F5F7F4FC701885A9D4F32
:103800000E94B71BC701865A9D4F0E94B51BF80145
:10381000868389819A81282F27702F5F2583AC01A9
:1038200083E0569547958A95E1F74F714083392F8C
:103830003F7034873F3021F4283011F429E025838C
:10384000892F82958F70F80182830F900F90DF91FE
:10385000CF911F910F91FF90EF9008951F93CF93F9
:10386000DF93EC01162F0E944E36181739F0612FA6
:10387000CE01DF91CF911F910C945636DF91CF91FD
:103880001F91089581EC80937C0085B1806F85B98C
:1038900084B1877E84B984B1876E84B95E9A5F985B
:1038A0008AB1806D8AB9769A6E9881B3806F81BB38
:1038B000899880B38D7080BB80E58CBD81E08DBD23
:1038C00085E090E00E94690E5F9A85E090E00E949A
:1038D000690E5E985C98EDE6FAE08AE79AE024913A
:1038E0002EBD00000DB407FEFDCF31968E179F0749
:1038F000B1F75C9A81E880936400809165008160F3
:10390000809365000E94B8090E946E0E87FF15C063
:103910005C9885EA8EBD00000DB407FEFDCF5C9A71
:103920002E982F982D988091640080628093640077
:1039300081E083BF889513BEFCCF0E946E0E82FF8C
:103940003AC02D980E946E0E84788438A9F42D9A7E
:1039500088EC90E00E94690E2F986FEF82E090E073
:103960000E942E1C84EF91E00E94690E2F9A0E9403
:103970006E0E84788438D9F30E946E0E847184317F
:10398000A9F42D9A88EC90E00E94690E2E9860E0D0
:1039900082E090E00E942E1C84EF91E00E94690E6C
:1039A0002E9A0E946E0E84718431D9F388EC90E0D7
:1039B0000E94690EC2CF2D9A82E090E00E94B51B52
:1039C000882319F03E9A3F9A08953E983F980895AB
:1039D000CF93DF93CBEED2E0688180EC92E00E943F
:1039E0002E1C698181EC92E00E942E1C6A8182EC7F
:1039F00092E0DF91CF910C942E1CFF920F931F93B6
:103A0000CF93DF93EC018B01FB01F0800E944E36D7
:103A1000F81621F06F2DCE010E945636F801F18084
:103A20002196CE010E944E36F81621F06F2DCE0160
:103A30000E945636C801DF91CF911F910F91FF90E0
:103A40000895AF92CF92DF92EF92FF920F931F9360
:103A5000CF93DF93CDB7DEB760970FB6F894DEBF94
:103A60000FBECDBFCB82ED8229878F87412F63E0C8
:103A7000A69E80011124C801885A9D4F4930A0F5A7
:103A80004150550B2B8168E0269F900111246D81D8
:103A900070E0762F66277295707F260F371F6F852F
:103AA00070E0762F6627260F371F240F351F3A83C5
:103AB0002983BE016F5F7F4F0E94FD1C6985C8018D
:103AC000865A9D4F0E942E1C60960FB6F894DEBF5A
:103AD0000FBECDBFDF91CF911F910F91FF90EF905F
:103AE000DF90CF90AF90089547E050E0CBCFCF93D9
:103AF000DF938091E3028F5F8093E302C091E20243
:103B00008A3001F50E9446112091E4023091E502CD
:103B1000CC2381F04091C802C90160E273E00E94A9
:103B2000D5366230710509F056C0413009F066C0E3
:103B30001092C8021092E3022F5F3F4F3093E502CC
:103B40002093E402C13009F4A4C01092E10285E0A0
:103B500080930901E091E402F091E502CF0160E970
:103B600071E00E94D536EC012091E30221114AC098
:103B7000CF016AE070E00E94D536099749F40E94AF
:103B8000F63520E130E040E050E00E946436262F18
:103B9000C53881E0D807C1F588E08093E0028FE75F
:103BA0008093E1028091E4029091E50260E971E086
:103BB0000E94D536617081E08093E2026093090132
:103BC0008091E102803121F48091090180930A0102
:103BD000DF91CF910895413079F480919C02811159
:103BE00008C082E08093C8028091C80280939C0242
:103BF000A1CF1092C802F8CF40939C0281E080933D
:103C0000C80298CF20E0C4CFC637D140C8F62A30CA
:103C1000B8F26BEA269F212D11242695215020937E
:103C20000901233059F1243059F12230D9F40E948E
:103C3000F63520E230E040E050E00E9464366093C8
:103C4000DE020E94F6352CE030E040E050E00E94B9
:103C500064366F5F7F4F8F4F9F4F6093DB0289E128
:103C60008093E00280910901843061F48091DF0249
:103C7000893041F485E080930901A2CF88E1F0CF3B
:103C800084E2EECF81E08093E2028FE78093E1024D
:103C900097CF8091E102803E14F08150F7CF1092CF
:103CA000E2028ECFCF92DF92EF92FF920F931F939B
:103CB000CF93DF93CDB7DEB767970FB6F894DEBF2B
:103CC0000FBECDBFCA86DB86EC86FD860E871F87BA
:103CD000288B398B4A8B5B8B6C8B7D8B8E8B9F8B70
:103CE0008D2D99E0E5E3F1E0DE01119601900D9252
:103CF0009A95E1F7DD2099F18430C1F40E94F63500
:103D000027E030E040E050E00E946436862F67965E
:103D10000FB6F894DEBF0FBECDBFDF91CF911F91DC
:103D20000F91FF90EF90DF90CF900895815090E039
:103D3000EC85E150FF0BF595E795F595E7959C012E
:103D4000220F331F820F931F21E030E02C0F3D1F05
:103D5000820F931FE80FF92FF11D8081D8CF80E0EB
:103D6000D6CFCF92DF92EF92FF920F931F93CF9314
:103D7000DF93EC012A81E881AFEFAE0F80E0AF3135
:103D800020F4B0E0A25CBE4F8C9189830D8110E0DD
:103D900030E0F0E0C901880F991F280F391F235424
:103DA0003E4FD9014C91CF01880F991FE80FF91FA1
:103DB000E35AFE4F8081480F5527551F4C5F5F4FD8
:103DC000409FC001419F900D509F900D11240F9670
:103DD00065E070E00E94E9366887D90111964C9140
:103DE0008181480F5527551F4C5F5F4F409FC00191
:103DF000419F900D509F900D11240F966AE070E046
:103E00000E94E9366B87D90112966C918281680F06
:103E10007727771F6F5F7F4F7595679571956195D0
:103E20007109695F6A87C880D980EA80FB800C814C
:103E30001D812E813F81488559857B858C859D8597
:103E40000E94521E8B83DF91CF911F910F91FF90A3
:103E5000EF90DF90CF9008952F923F924F925F9214
:103E60006F927F928F929F92AF92BF92CF92DF928A
:103E7000EF92FF920F931F93CF93DF93E091E402B1
:103E8000F091E50280914303811148C0CF0160E9C0
:103E900071E00E94D53632E0332E360ECF0160E25B
:103EA00073E00E94D536623041F06330C9F110E012
:103EB00021E0613021F422E002C011E023E0212C56
:103EC000C0E2E03639E0F30770F4CF0160E273E05E
:103ED0000E94D536CAE06C9F202C11242394C69FE3
:103EE000C00D1124CF5F30910901323009F4C4C0F4
:103EF0003330C1F0313009F0C5C0CF0160E273E06A
:103F00000E94D5366230710509F4EEC008F0BCC0DD
:103F10006130710509F4FBC013E062C029E0322E64
:103F200012E0CCCF822E912CB12CA12C412E512C01
:103F3000712C612C481459046A047B048CF4841895
:103F40009508A608B70841F00E94F635A50194012E
:103F50000E9464364B015C01480C591C6A1C7B1C96
:103F6000142D00E0CC2ED12CF12CE12C822C912CA4
:103F7000B12CA12C8C149D04AE04BF049CF426012A
:103F80003701481859086A087B0841F00E94F63545
:103F9000A30192010E9464362B013C01840C951C04
:103FA000A61CB71CC02FD0E0FE01E056FD4F80825A
:103FB0000E94F635FE01E552FD4F5F012CE030E036
:103FC00040E050E00E9464366F5F7F4F8F4F9F4FFD
:103FD000F5016083C356DD4F38820F5F101730F64E
:103FE000CFEED2E0F12CE12C07E089E0D82E9FE063
:103FF000C92E1CA61E1528F1F701E356FD4F80813E
:10400000F701E056FD4F9081F701E552FD4F208109
:104010002CA79AA78FA7893029F0883029F48EA978
:104020008F3011F4DFA6CEAA8CA5882351F0CE01E3
:104030008A960E94B11E0DA78AA988AB8CA98150CF
:104040008CABFFEFEF1AFF0A2E9623E0E216F10485
:1040500081F6DF91CF911F910F91FF90EF90DF904C
:10406000CF90BF90AF909F908F907F906F905F9018
:104070004F903F902F9008958091DE028093A00290
:1040800030929D0210E0ACCF63307105B9F064301E
:10409000710509F041CF8FE18093A00289E0809300
:1040A000DB0284E18093A1023093DC028DE18093F6
:1040B000A20285E08093DD0289E013C08CE1809349
:1040C000A00287E08093DB0286E18093A10286E074
:1040D0008093DC028AE18093A20283E08093DD0278
:1040E00088E00E943B1118CF83E18093A0028CE00E
:1040F0008093DB028BE08093A1028093DC028EE050
:104100008093A2028AE08093DD0286E0EACF3093BA
:10411000A00282E08093DB028093A10284E080937E
:10412000DC028093A20288E08093DD0284E0D9CF94
:104130008F929F92AF92BF92CF92DF92EF92FF92B7
:104140000F931F93CF93DF93CDB7DEB72E970FB6A4
:10415000F894DEBF0FBECDBF8FEE882E82E0982E82
:10416000B12C6B2DCE0101960E94EC1BCE01019665
:104170000E94B11E8B81882311F089858F83AB2C1F
:10418000C980DA80EB80FC800D811E812F8138850B
:1041900049855A856B857C858D859E850E94211D6C
:1041A00082E08B1518F0F40180858683B394FEE0DD
:1041B0008F0E911C80E2B812D4CF2E960FB6F894D1
:1041C000DEBF0FBECDBFDF91CF911F910F91FF904A
:1041D000EF90DF90CF90BF90AF909F908F90089519
:1041E0001F920F920FB60F9211248F939F9380917D
:1041F000E1009091E100937F9093E10083FF0FC075
:104200001092E90091E09093EB001092EC0092E3A1
:104210009093ED001092650398E09093F00082FF78
:1042200022C093E09093E9009091F200992319F055
:104230009AE39093E80090915603992341F090916E
:104240005603915090935603911101C05D9A90913D
:104250006403992341F09091640391509093640317
:10426000911101C0289A84FF18C08091E2008E7ECF
:1042700081608093E2008091E1008F7E8093E10075
:10428000809157038E7E8061809357039F918F9119
:104290000F900FBE0F901F90189580FFF7CF809161
:1042A000E2008E7E80618093E2008091E1008E7E4C
:1042B0008093E100809157038E7E8160E5CF1F924D
:1042C0000F920FB60F921124CF92DF92EF92FF92CE
:1042D0000F931F932F933F934F935F936F937F930E
:1042E0008F939F93AF93BF93EF93FF93CF93DF93FE
:1042F000CDB7DEB76C97DEBFCDBF1092E9008091DD
:10430000E80083FF25C068E0CE0145960E941E0CA0
:1043100082EF8093E8008D8987FF39C09091E80093
:1043200090FFFCCF982F907609F034C19E894F8979
:10433000588D2F89F88C911131C0803861F58091AA
:1043400055038093F1001092F1008EEF8093E80006
:104350006C960FB6F894DEBF0FBECDBFDF91CF9144
:10436000FF91EF91BF91AF919F918F917F916F914D
:104370005F914F913F912F911F910F91FF90EF907F
:10438000DF90CF900F900FBE0F901F9018959EEF6B
:104390009093E800C7CF1092F100D5CF913059F437
:1043A0008111D3CF4130510581F6809155038D7F26
:1043B00080935503CACF933049F48111C6CF413061
:1043C000510519F6809155038260F2CF953041F482
:1043D0008091E80080FFFCCF20682093E300B5CFF8
:1043E000963009F0A9C00B8D1C8D22E01092E900D7
:1043F0001092530310925203F2122EC010925103E6
:10440000109250030E94ED0B1F8299E09983FA826B
:1044100091E09E8390EA98879AEF998720915203C2
:1044200030915303275F3F4F3C832B838D83109242
:10443000E90010925303109252031093510300931A
:10444000500349E050E0BE016F5F7F4F80E00E9463
:10445000C70B0E94ED0B79CF1093510300935003CB
:104460000E94040BDC0112960D911C91011511059F
:1044700009F451C1D801ED91FC910480F581E02D42
:10448000BE016B5E7F4FC8010995009709F03EC1E0
:10449000F80100851185EACFF3E0FF120EC08F8985
:1044A000882309F440C0823061F440E860E189E784
:1044B00092E10E94DB23811148CF81E28093EB00DF
:1044C00047CF813029F440E86BE08DE692E1F1CFEF
:1044D000833099F70E94040BDC011296ED90FC905A
:1044E0008E010F5F1F4F6801E114F10479F0D701CD
:1044F000ED91FC910680F781E02DB801C701099587
:10450000080F111DF701E084F184EECFD8011C9251
:10451000F60101900020E9F73197BF016C197D0980
:1045200040E0C601C6CF67E572E1FB01449150E06F
:1045300080E80E94C70B09CF973009F4BECF9830AE
:1045400021F481E08093F10000CF993009F0FDCE95
:10455000837009F0B2CFE9E4F2E081E031E096E364
:104560002191222371F08093E9003093EB00DF0169
:1045700011972C912093EC009093ED008F5F873082
:1045800079F78EE78093EA001092EA008F89809392
:104590006503DBCE8B8D9C8D1092E9001092530346
:1045A000109252039093510380935003898D81118F
:1045B00092C08E899D89913A49F4813209F07DCF6C
:1045C00047E050E060E171E080E0B3CF913209F064
:1045D00074CF833269F48F89988DB0E0A0E0809326
:1045E0000C0190930D01A0930E01B0930F01ADCE7D
:1045F000803269F48091E80082FFFCCF67E080E1BF
:1046000091E00E941E0C8BEF8093E8009ECE8232D8
:1046100009F09BCE8F8980931701EEEFFFE785911C
:1046200094918B3F9C4D51F1E0E0F8E080911001B6
:1046300090911101A0911201B0911301803B94401F
:10464000A105B105F1F48091170180FD1AC0EE3F7C
:104650008AE0F80789F587E797E79183808380915F
:1046600060008093540388E19BE00FB6F894A8950E
:10467000809360000FBE9093600067CEEEEFFAE08B
:10468000D5CF808191818737974709F05ECEA89575
:1046900080916000886180936000809154038093D2
:1046A0006000EE3F2AE0F20789F08091FE0A9091C7
:1046B000FF0A9183808349CE808191818737980753
:1046C00051F29093FF0A8093FE0AC5CF1092FF0A21
:1046D0001092FE0A3ACE0E94040BDC0112960D9154
:1046E0001C910115110509F4E8CED801ED91FC915A
:1046F0000190F081E02DBE016B5E7F4FC8010995EE
:10470000811123CEF80100851185EBCF181619060B
:104710000CF41BCED2CEF1E0FF12BECE6BE572E1FF
:1047200004CF1F920F920FB60F9211242F933F9335
:104730008F939F93AF93BF938091480390914903C8
:10474000A0914A03B0914B033091470323E0230F1C
:104750002D3758F50196A11DB11D20934703809375
:10476000480390934903A0934A03B0934B0380916D
:104770004C0390914D03A0914E03B0914F030196CD
:10478000A11DB11D80934C0390934D03A0934E0344
:10479000B0934F03BF91AF919F918F913F912F9114
:1047A0000F900FBE0F901F90189526E8230F0296CA
:1047B000A11DB11DD2CFEF92FF920F931F93CF9304
:1047C000DF93F82E192FE62E042F81E0860F880F35
:1047D0000E94990B83E00E94990BCF2DD12FEC0EF4
:1047E000FD2EF11CCE15DF05B9F007FF13C0FE0149
:1047F00084910E94990B182F80E00E94990B8123CD
:1048000021968111EFCFDF91CF911F910F91FF90F2
:10481000EF9008958881EDCF81E0F5CFE7E6F3E0F2
:104820001382128288EE93E0A0E0B0E08483958347
:10483000A683B78383E592E0918380838FEF9FEF18
:1048400095878487E7EBF7E01382128285E692E092
:104850009183808387EB93E09683858380E890E063
:104860009087878380E490E09287818785E0848BBE
:1048700081E0838B16861586108A17861486138628
:1048800081E090E0928B818B14820895CF93DF9327
:10489000CDB7DEB7A0970FB6F894DEBF0FBECDBF81
:1048A000789484B5826084BD84B5816084BD85B50B
:1048B000826085BD85B5816085BD80916E00816017
:1048C00080936E00109281008091810082608093BD
:1048D00081008091810081608093810080918000BF
:1048E000816080938000809191008260809391002C
:1048F000809191008160809391008091900081600F
:10490000809390008091C10084608093C100809169
:10491000C10082608093C1008091C100816080935A
:10492000C1008091C30081608093C3008091C0006A
:1049300082608093C0008091C20081608093C20039
:1049400080917A00846080937A0080917A008260FE
:1049500080937A0080917A00816080937A008091C0
:104960007A00806880937A00109265031092550354
:10497000109257038091D70081608093D70080EA1E
:104980008093D80089B5806189BD89B5826089BD71
:1049900009B400FEFDCF61E070E080E090E00E948D
:1049A000500C8091D8008F7C80618093D8008091DA
:1049B000E000807F8093E0008091E1008E7E809314
:1049C000E1008DE08093E200559A209A0E94421CFB
:1049D00084E180930101809164008E7F8093640064
:1049E00080917A00806480937A0080917A0086FDBD
:1049F000FCCF00917800109179000E942B0CAB0144
:104A0000BC01C801B0E0A0E0DC01992788278C0137
:104A10009D01040F151F261F371FC901B8012091E2
:104A20006400216020936400611571058105910582
:104A300011F00E9445368FB7F89440914803509189
:104A4000490360914A0370914B038FBF9090A3027A
:104A5000992049F01092A30280E090E0892B59F34D
:104A60000E940000E8CF8091A402142F181B812F10
:104A700090910101191740F48F5F891768F781E061
:104A800083BF889513BEE8CF81E08093A302409353
:104A9000A4020091E8021091E9020F5F1F4F1093EA
:104AA000E9020093E802892DE7EBF3E081118FEF33
:104AB000002481938193819381930394D1F7809112
:104AC0004603809345030E946E0E80934603E09157
:104AD0000B01EC3008F0A7C0F0E0EF58FA4D0C9451
:104AE000FD36222F7D252126DA2A062C572CD22EA0
:104AF000CC323A325D33F033EC341092440385E02B
:104B000080930A01E1EBF2E025EB32E086E081934D
:104B10008383878383872E173F07C9F7BFEE6B2EEA
:104B2000B2E07B2E5301912C812C4424439413E05A
:104B3000312E0EE0202E582CD5011D961C921D976B
:104B400019961C92199712968C911297882399F1B5
:104B50001D964C921D97882D632D0E94C73681307B
:104B600009F464C08C918F31C9F4289CF001299C10
:104B7000F00D1124E151FD4FC080D180E280F3801F
:104B80000481158126813781408551856285738531
:104B9000848595850E94521EF5018383D501149664
:104BA0001C928091B5028093B1028091B9028093EA
:104BB000B5025092B902FFEF8F1A9F0A0EE0A00EC5
:104BC000B11C16E08116910409F0B5CF10920301D3
:104BD00081E08093A50286E0809304018093050123
:104BE00082E080930B0180E0D30112969C91129792
:104BF000992321F016969C91911107C08F5FBEE01A
:104C00006B0E711C833081F786E08093C202109294
:104C1000A8021092C6021092A9021092AA02109243
:104C2000A6021092A7020E94B80916CFF50184834C
:104C3000F401EE0FFF1FEE0FFF1FE455FD4F8082C2
:104C4000BACF80910301813009F4CFC008F4B7C016
:104C5000823009F424C181E08983C80165E070E0F5
:104C60000E94D5365C0171EB872E72E0972E712C75
:104C7000552453940EE0E7E03E2E7401612CD701D9
:104C80001C914090C202141104C07092AE02609256
:104C9000AF02BBEA1B9F812D1124869509F40FC139
:104CA000813009F42EC180910301813009F43BC2A7
:104CB00008F44BC1823009F43BC26394B4E0EB0EBC
:104CC000F11CE4E06E12DBCF7394FFEF8F1A9F0AA2
:104CD0007E12D3CF4FEEE42E42E0F42EB12CD12C35
:104CE0005BEA952E67E0A62E03E0D01202C033E007
:104CF000B32E8091C20223E0C22E8D11C12CD701A8
:104D000012968C911297882309F442C2B99C112DF6
:104D10001124169501E016968C91811101C000E0D6
:104D2000612F660F660F660FBA9C600D112426E096
:104D30004DE38C2D0E940519D701EC918AE39BE08D
:104D4000E03238F4F0E0EE0FFF1FE85FFD4F8081A6
:104D500091810E944E0E8C2D90E0C3969093C507D2
:104D60008093C4079093C3078093C207B8E01B9F4A
:104D7000C0011124BA9C800D911D112401969093BD
:104D8000C7078093C6078091B002813009F0EFC158
:104D90008091AD02823009F4EAC108F0CDC18823C8
:104DA00009F4E5C1813009F4CFC1D70116968C9181
:104DB0001697882309F4DBC11D968C91D2C280918D
:104DC000B002882379F0813009F045CFE091C2022A
:104DD0002EE0E29FF0011124E151FD4F83810E94FA
:104DE000801739CF0E94DA1336CF8091A6028F5FE9
:104DF0008093A6028A3029F08091A902882309F4C1
:104E00002ACF1092A6028091B0028823D9F0813077
:104E100009F021CF8093AA02A091C2023EE0A39F95
:104E2000D0011124A151BD4F14968C9314978091F9
:104E30000201882351F0813009F00DCF87E00E94F4
:104E4000D81509CF0E94341206CF8091AF0220916D
:104E5000AE0244E0849FC00111248F549D4F820F05
:104E6000911DFC012081E091AC023091AB0244E045
:104E7000E402F0011124EF54FD4FE30FF11D37FD63
:104E8000FA95208326E0FC012083809105011A9683
:104E90009C91891B809305011092B002DCCE88E0C2
:104EA0000E94760E882309F4D6CE8091C10281300B
:104EB00021F483E080930B01CECE84E0FBCF809180
:104EC0001B03882329F080911F0381110C947C35EA
:104ED00080912903882329F080912D0381110C945E
:104EE0007C3580913703882329F080913B03811121
:104EF0000C947C35E2E0E0930301F1E0F093C10211
:104F0000D2CE8091F102882329F08091F50281119F
:104F10000C9482358091FF02882329F0809103034D
:104F200081110C94823580910D03882329F08091A2
:104F3000110381110C94823524E02093A80232E001
:104F4000309303011092C102AECE8091B002813045
:104F500091F008F4EDC0823009F0AFCE109F9001BF
:104F6000112421513D4FAE014F5F5F4F662D872DBC
:104F70000E94B814A2CEC12ED12C163048F40C9D3C
:104F8000F0010D9DF00D1124E151FD4F86818783C5
:104F9000109FC0011124AC0141515D4F5E8F4D8FB8
:104FA000E091AC028091AB0254E0E502F0011124E3
:104FB000EF54FD4FE80FF11D87FDFA952080809199
:104FC000AD02873008F079CEE82FF0E0E651F84DD9
:104FD0000C94FD36F127092872283A283A285628D9
:104FE0006C28262D472D6091AF028091AE020E9461
:104FF000FC148130C9F5163008F45FCEA114B10459
:1050000009F05BCE88E0163009F086E0D7018C937A
:1050100054CE262D472D6091AF028091AE020E94A2
:10502000FC148823A1F0813009F047CE1630D8F562
:10503000133008F442CE121125C0409EC001112445
:105040006D8D7E8D81519D4F0E948A151BC08DEF05
:10505000810F833048F40C9DF0010D9DF00D11245B
:10506000E151FD4F558629CE163008F426CEF701C2
:10507000308223CE9DEF910F933080F41215E9F228
:105080008430D9F2A114B10409F017CE0C9DF001BF
:105090000D9DF00D1124E151FD4F1AC01630D8F2CC
:1050A000833009F00ACED7013C9207CE1330B0F41A
:1050B0000C9DF0010D9DF00D1124E151FD4F8085F7
:1050C0009681981740F68783A114B10409F0F5CDB5
:1050D000858585258587F1CD1330A0F2163008F03F
:1050E000ECCDB9CF262D472D6091AF028091AE0255
:1050F0000E94FC148823A1F0813009F0DECD163027
:1051000008F0B5CFA114B10409F0D7CD0C9DF00182
:105110000D9DF00D1124E151FD4F95858927DACFC2
:10512000163008F698CF8091B002823009F416CF7D
:10513000C7010E949C14C1CD853009F408C1863096
:10514000B1F0833009F031CEE091AC028091AB0236
:1051500004E0E002F0011124EF54FD4FE80FF11DCF
:1051600087FDFA958081D7018D1509F425CEB2E02F
:10517000BD1520F08091A7028111F5C0F70187814C
:105180000E94FE18D70117968C910E948819B3943B
:10519000D394EEE0EE0EF11CF6E0DF12A5CD809187
:1051A000C2022EE0289FC001112481519D4FFC01B5
:1051B000DE011F9601900D922A95E1F7DC0113960E
:1051C0002C9113971A963C901092C9071092C80719
:1051D000B8E02B9F90011124F901E45BF44FFE8F9E
:1051E000ED8FD12CC12C10E005E3402E512C8BE328
:1051F000882E912CA32CB12C3501F2E06F0E711C7E
:105200000FEFA01AB00A8091A8028113BAC083E000
:10521000E82EF12CB2016E197F0901E02BE04EE07F
:10522000C6010E944A10C60109969093C507809353
:10523000C4079093C3078093C207C4018E199F09C6
:105240009093C7078093C607123009F4A4C0C60123
:10525000019667E370E06E197F09E12C08E01330D6
:1052600009F4BEC028E0113009F48DC04CE85BE0C1
:105270000E94810E832D0E9488191F5F20E1C20EBB
:10528000D11C143009F0BFCF01E026E040E165E118
:1052900080E00E94051980E792E00E947B198091CE
:1052A00004010E94881926E040E166E18DE20E9437
:1052B000051980E792E00E947B19809105010E9408
:1052C000881980910301813009F08EC08091AA0273
:1052D000811198C08091A902882309F493C001E04C
:1052E00026E045E166E184E10E94051983E792E04A
:1052F0000E947B19A0E58A2E912CB12CA12CBEE036
:105300005B2EFA2CA4014051510958A34F8FC401C0
:105310000C979E8F8D8FD501AF54BD4F1D01850118
:10532000D12CC12C402E4F18B02FB170EB2E6F8CAA
:1053300078A06814790409F472C02E2D40E1B601FA
:10534000C3010E94FB0FEFEF6E1A7E0AF2CFF70146
:1053500086819085891709F40ACF882309F407CF3D
:105360008585811104CF8091A702882309F40FCF8E
:10537000B2E0BD1508F40BCF8DE692E00E947B19D8
:1053800006CF80E045CF44E85BE00E94810EC50176
:105390000E948F1972CF80910301813031F08230E9
:1053A00081F48091C10281110CC0E12C08E028E059
:1053B0004CE95BE067E370E0C60103960E94810E52
:1053C0005CCF67E370E06E197F09E12C08E028E00C
:1053D0004D8D5E8DC60101960E94810EC301D8CF0E
:1053E0002CE040E45BE0EACF823029F48091C102F6
:1053F000882309F46BCFEE24E39408E028E048ED1D
:1054000050E106C0EE24E39408E028E040ED50E1CE
:1054100067E170E08CE190E00E94810E6BCFD101DA
:105420008C91F80131963F01873009F472C008F081
:1054300044C0863008F44DC0E0900301E11008C07C
:105440008091B002882309F474C0813009F478C0D7
:10545000B4E02B0E311CE0E1CE0ED11C8301F0E450
:10546000CF16D10409F05ECF0FEFA01AB00A10E1F9
:10547000810E911C24E0A216B10409F042CF32E063
:10548000E312D1CB8091C102882309F482C081301C
:1054900009F0C9CB00E028E046E26CE18DE20E9411
:1054A000051901E026E044E26DE18EE20E94051953
:1054B00088E792E00E947B19B6CB883009F0BCCF18
:1054C000CF0181709927E82E08E028E044E95BE0ED
:1054D00028C0482F50E0549EF001559EF00D112435
:1054E000E151FD4F9585992309F4A6CF21E0833042
:1054F00008F420E0549ED001559EB00D1124A15116
:10550000BD4F0481A6016F8D78A18C910E94CA18AD
:1055100093CFCF0181709927E82E08E028E04CE96D
:105520005BE0B6016C5F7F4F8D8D9E8D0E94810E7A
:1055300083CF6091AF028091AE020E945F1188CF4D
:105540008091AD02853081F0863031F08430E1F415
:10555000F1018081835002C0D1018C91833008F029
:1055600077CF642D8F2DE9CFD101EC91E33008F096
:105570006FCF5E9EF0011124E151FD4F9681808531
:10558000981708F065CFEDCF6091AC028091AB0227
:10559000D4CF00E028E041E26CE180E30E940519ED
:1055A00001E026E04FE16DE181E30E94051980E80A
:1055B00092E080CF8091C602882309F484C08130B4
:1055C00009F4D0C0EFEEEE2EE2E0FE2EB12CA12CBD
:1055D00088248394912C7A2CD70115961C9119302C
:1055E00008F0F3C0110F1150F7018281882309F4EC
:1055F0005EC000E020E0650174E0CC0CDD1C7A9513
:10560000E1F7A60170E060E080810E94CA189092E4
:10561000C9078092C80721E130E03093C507209385
:10562000C4073093C3072093C207D092C707C09224
:10563000C60787E892E00E947B19D70115968C91E6
:105640000E948819E1E1F0E0F093C507E093C407F8
:10565000F093C307E093C207F5E0CF0ED11CD092C0
:10566000C707C092C6078AE892E00E947B19D7015B
:105670001C968C910E94FE18F70184850E9488195F
:105680008DE892E00E947B19812F0E94FE18812FE5
:105690000E948819D70116968C91882341F0809139
:1056A000C602882309F493C0813009F4A3C0FFEF38
:1056B000AF1ABF0A0EE0E00EF11C13E0A116B10410
:1056C00009F089CFB0CA84E00E94760E811106C02D
:1056D00088E00E94760E882309F474CF0FEE12E062
:1056E000F12CE12CD80112968C911297882359F154
:1056F00016968C911697882331F11596DC90B8E0B8
:10570000BD1508F18E2D0E941C11F8019485890F9A
:1057100084872D2D220F2150821710F191E09D0DCD
:105720009583821B993009F48FE0D8011C968C93E5
:10573000C8010E94B11EF8018085868381E0F701CF
:10574000ED53FD4F8083FFEFEF1AFF0A025F1F4FFB
:1057500023E0E216F10431F681E08093C60232CFF5
:1057600080E0EDCF84E00E94760E811106C088E0D3
:105770000E94760E882309F425CF1092C30210925E
:10578000C4021092C5028091E4029091E502803833
:105790009C4021F48BE080930B0114CF8091C702D1
:1057A000882331F080911F03811102C088E0F3CF7C
:1057B00080910901813039F486E080930A011092CA
:1057C000EA0287E0E8CF85E0E6CF1FE00DCF8FE863
:1057D00092E00E947B19F7018581893030F4872D92
:1057E0000E941C110E94881962CF84EA9BE00E94EB
:1057F0004E0E5DCFF501ED53FD4F8081882309F4F6
:1058000056CF82E992E00E947B1951CF0E949820E6
:105810001092E20281E08093E302809143038111C0
:1058200041C08091E4029091E50220E931E0B901A4
:105830000E94D536629FC001639F900D729F900DAC
:1058400011249093E5028093E40220910901213014
:1058500031F4805991409093E5028093E402809165
:10586000E4029091E502803921E0920790F021E076
:105870002093E2028059914060E971E00E94D536A0
:1058800061706093090188E08093E0028FE080936B
:10589000E10286E080930A011092EA0287E0809399
:1058A0000B01C1C91092E5021092E402F2CF80917F
:1058B0000A01883008F02FC1E82FF0E0EE59F34DCF
:1058C0000C94FD368D2D622D622D622D702D6A2C6B
:1058D000802D9B2D88E00E94760E882339F081E090
:1058E0008093EA0287E080930B010DC084E00E9460
:1058F000760E882331F086E080930A011092EA0246
:10590000F1CF0E94771D80E00E94650F8091E20236
:10591000882369F080910901823009F430C108F0D0
:105920001DC1882309F48BC1813009F46AC1B12CEF
:10593000A12C10E050E8852E912C8091E4029091EA
:10594000E5029C012F713327F401E21BF30BEA19E6
:10595000FB096C0145E0D694C7944A95E1F7C10E66
:105960003C2D3170C32EA501405E5F4F5A0160E0AF
:10597000803A910530F0841B950B60E273E00E9441
:10598000D53680E2689FA0011124425D504FEE247D
:10599000E39408E020E270E060E0CF010E94C809D3
:1059A0001F5F153051F610E000E041E068E270E062
:1059B000C8010E94900F0F5F1F4F01381105A9F712
:1059C00001E025E140E86AE280E00E94051983E2F7
:1059D00090E10E944E0E81E090E09093C507809385
:1059E000C4079093C3078093C20780E390E090932D
:1059F000C7078093C60713E0EE24E394F12C0AE076
:105A0000D7010A9F70010B9FF00C11248091E402D2
:105A10009091E5028E159F0520F481E290E10E94AD
:105A20004E0E115069F76091E4027091E50290E02A
:105A300080E04AE00E942D1988E190E10E944E0E1C
:105A400001E010E01093C5070093C4071093C3074B
:105A50000093C20785E390E09093C7078093C60741
:105A600087E090E10E944E0E1093C5070093C40793
:105A70001093C3070093C2078AE390E09093C7078F
:105A80008093C6078091E4029091E50200E911E05D
:105A9000B8010E94D536081B190B8BEF9FE060FD03
:105AA00002C081E090E10E944E0E0A30110508F01C
:105AB000D2C089EF9FE00E944E0E89EF9FE00E94C6
:105AC0004E0ECDC0823049F481E08093C7020E941F
:105AD0002C1F87E080930A0116CF1092C702F7CFE0
