:100000000C94AE090C94D6090C94D6090C94D6091C
:100010000C94D6090C94D6090C94D6090C94D609E4
:100020000C94D6090C94D6090C94C9200C94382150
:100030000C94D6090C94D6090C94D6090C94D609C4
:100040000C94D6090C94D6090C94D6090C94D609B4
:100050000C94D6090C94D6090C94D6090C946A23F6
:100060000C94D6090C94D6090C94D6090C94D60994
:100070000C94D6090C94D6090C94D6090C94D60984
:100080000C94D6090C94D6090C94D6090C94D60974
:100090000C94D6090C94D6090C94D6090C94D60964
:1000A0000C94D6090C94D6090C94D60953414749AF
:1000B00054544152492E0053434F5250494F004C23
:1000C0004942524100564952474F004C454F004368
:1000D000414E4345520047454D494E490054415514
:1000E00052555300415249455300504953434553DB
:1000F00000415155415249555300434150524943E3
:100100004F524E004E4F4E45004F4D4E49004D59F7
:1001100053544943004E41545552450053594E548F
:1001200048004E554C4C005452494B55524E0053CA
:10013000515545414D41534B005343415244524167
:10014000005241565541434B00504F4C544552527A
:100150004F52005045475348495245004D41555272
:100160004F41480047524946454C494F530046418C
:1001700045464C554646004455414C445241004387
:10018000484956414D5045524100544552525550F0
:1001900054494F4E004E45435241574C4552004D35
:1001A000415948414D00444153484F554E44004346
:1001B0005249424249540043484C4F524F41520029
:1001C0004348414D50414E5A4F4E0042554E4E45C8
:1001D00052494E4100425542424C55450042454528
:1001E0005448524F4E450058454E415543455200E4
:1001F0005350594D45524100534C5547414D4D4187
:10020000004F55544C454354524943004F445249C2
:100210004F4E004D494352554E54004C554D494E9A
:1002200041540044524942425900424F4C544E45B9
:1002300054494300415544494F55534500564F4991
:100240004449534D414C0030000000C0E0F0F8FC40
:10025000FCFCFCF8F0E0C0000000000F1F3F3D3F39
:100260003D3F3F3D3F1D0F00000078E878003844D7
:10027000D404581494586080000000070810101E21
:100280002140482C20425A6D0000C0C0409E12F20E
:100290005AF41A9E40C0C00000000C0C0B04033F2F
:1002A000553F03040B0C0C0000000000F0086466CE
:1002B000868E846870C00000000006096856506091
:1002C00021226150516E09060000709020F82452DE
:1002D00022022254F820907000000C10170D054DDA
:1002E00035057D050D17100C0000000000C0201022
:1002F000981410A8C40000000000000E0D4364789C
:10030000080B7B64430D0E0000008040A050084A9B
:10031000848A4890A0C0000000000F102F50404079
:100320004845645425190E000000006090103844C0
:10033000FE829AC29A827C00000000003029652665
:1003400064283000000000000000000000000000F1
:10035000C0A0E000C0A0E00000003048444C424F84
:1003600046524A53524A54380000C020120A8A4A60
:100370002C2A2A4A9220C00000000F102040474833
:100380005053534827100F0000008040A07088246D
:10039000441444A870A04080000021321C446A39F3
:1003A0000909396A441C3221000030509030D0A035
:1003B000C03CB2307830FC02000001472D1B4D3AA2
:1003C0000D5A250904090700000018FC1C0844C642
:1003D000C66E1EBE9C68D0E00000060F1F2F464070
:1003E00040464D4A4A2D160F0000000000C03884D8
:1003F0003424B8F424380000000000141A3F5A3A9C
:100400001A3B5A3E1B1400000000000080D87C56A6
:100410004AD64A7CC0800000000006090D63567A67
:100420001A157A56630D090600002050A08000803E
:10043000601068088810A0C000000000010E112F95
:100440004044596E22665A6D0000E010084452A2E2
:10045000020202A45870C00000007D4256664C6C37
:100460002D256D4C6E465D60000060C00080808070
:10047000809CB448AC0CB0C0000078465168596A02
:1004800008794258685F61010000C030B0808CF28A
:10049000042868ACA86CF20C00001E214021202327
:1004A000264B2A2B4B3A070000000000E010C8C87A
:1004B000D82808C8D0E0000000000A05370C7119E0
:1004C000256C3C6D251F7000000000C060202010CE
:1004D00038C4B4A48498E0000000060910385456CB
:1004E000753750506F0506000000F00804324AA42A
:1004F000106018A4C23A04000000010224485061B0
:1005000045422519070000000000E0F008C4244619
:100510001C442CF61C4428F00000030D1224494210
:1005200042464942463A010000003844840488505B
:10053000203028946444B8000000060910100F1001
:100540002223202422130F000000DA3498402226B0
:10055000CA3204246890608000003D425169596AA3
:1005600009714254745F61010000C020C000F0A80E
:10057000A4AEB884B8A4FE0000003B4443526324F8
:1005800028494C2A2C49576000000080C0201010D8
:100590003048F40AA60A26F8000007087F413949C6
:1005A0007A0A794038497F00000000E01008C4E46E
:1005B000A2420244A4E8D0E000000C172072567654
:1005C0004C464C464C76563B0000800080C0647C14
:1005D000FEEEFE7EECE4C080000003070D1A3B5BDC
:1005E0004B1B3D5F4E0101030000C020102040F076
:1005F000A8F40A6E4A0C30C000001F080C12266CCA
:10060000404A5C73515F6D000000C00894E412C85A
:1006100068C808C872E414C8000000014835020424
:1006200009080E0805033548000000C0344A74402C
:10063000344A7440B44A340000000F102040424B4A
:1006400050504A23100F00000000C0E0F0F8FCFEFC
:10065000FEFEFEFCF8F0E0C000000F1F3F7F7F7F32
:100660007F7F7F7F7F3F1F0F0078FCFCFCF8FCFE44
:10067000FEFEFCFEFEFCF8E08000070F1F3F3F3F40
:100680007FFFFF7F7FFFFFFF6DC0E0E0FEFFFFFF0A
:10069000FFFEFFFFFEE0E0C0000C1F1F1F0F3F7FAB
:1006A000FF7F3F0F1F1F1F0C000000F0F8FCFEFF34
:1006B000FFFFFEFCF8F0C00000060F7FFFFFFFFF0A
:1006C0007F7FFFFFFFFF7F0F0670F8F8F8FCFEFF4B
:1006D000FFFFFFFEFCF8F8F8700C1E3F3F1F4FFFB6
:1006E0007F7FFF7F1F3F3F1E0C000000C0E0F0F83F
:1006F000FCFEFCFCEEC4000000000E1F5FFFFFFFCD
:100700007F7FFFFFFF5F1F0E0080C0E0F0F8FEFF5D
:10071000FEFFFEF8F0E0C000000F1F3F7FFFFFFF6D
:10072000FFFFFFFF7F3F1F0E000060F0F8F8FCFEA8
:10073000FFFFFFFFFFFFFE7C00000030797FFF7F9F
:10074000FF7D79310101000000000000000000C0C1
:10075000E0F0F0E0E0F0F0E0003078FCFEFEFFFFBB
:10076000FFFFFFFFFFFFFF7C38C0E0F2FFFFFFFF4E
:10077000FEFFFFFFFFF2E0C0000F1F3F7FFFFFFF04
:10078000FFFFFFFF7F3F1F0F0080C0E0F0F8FCFE7F
:10079000FEFEFEFCF8F0E0C08023777F7FFFFF7F46
:1007A0007F7F7FFFFF7F7F772330F8F8F8F8F8F03E
:1007B000FCFEFFFEFCFCFEFF020147EF7F7FFF7F98
:1007C0007FFF7F3F0F1F0F070018FCFEFEFCFEFFA0
:1007D000FFFFFFFFFEFCF8F0E0060F1F3F7FFFFF6B
:1007E000FFFFFFFFFF7F3F1F0F000000C0F8FCFE70
:1007F000FEFEFCFEFE7C38000000143E3F7FFF7FC3
:100800003F7FFF7F3F3F140000000080D8FCFEFFC9
:10081000FFFFFFFEFCC0800000060F1F7FFFFFFFF1
:100820007F7FFFFFFF7F1F0F062070F8F0E080E062
:10083000F0F8FCFCFCF8F0E0C00000010F1F3F7F67
:10084000FFFFFFFF7FFFFFFF6DE0F0F8FCFEFFFF03
:10085000FFFFFFFEFCF8F0C0007DFFFFFFFFFFFF82
:100860007F7FFFFFFFFFFFFD6060F0E0C0C0C0C002
:10087000DCFEFEFCFEFEFCF0C078FEFFFFFFFFFF8B
:100880007FFFFFFFFFFFFF6301C0F0F8F8FCFEFFF2
:10089000FEFCFCFEFCFEFFFE0C1E3F7FFF7F7F7F09
:1008A0007FFF7F7FFF7F3F07000000E0F0F8FCFC48
:1008B000FCFCFCFCF8F0E000000A1F3F7F7FFF7F9C
:1008C0007FFF7FFF7F7FFF700000C0E0F0F0F0F857
:1008D000FCFEFEFEFEFCF8E000060F1F3F7FFFFF60
:1008E000FF7FFFFFFF6F0F0600F0F8FCFEFFFFFE2B
:1008F000FCF8FCFEFFFF3E04000103277FFFFFFF23
:10090000FFFF7F3F1F07000000E0F0F8FCFEFEFF46
:10091000FEFEFEFFFEFEFCF8F0030F1F3F7FFFFF11
:10092000FFFFFFFFFF7F3B0100387CFEFEFEFCF86F
:10093000F0F8FCFEFEFEFCB800060F1F3F3F1F3F15
:100940007F7F7F7F7F3F1F0F00DAFFFEFCFEFFFFF0
:10095000FFFFFEFEFCF8F0E0803D7FFFFFFFFFFFA2
:100960007FFFFFFFFFFFFF6301C0E0F0E0F0F8FC56
:10097000FEFFFEFCFCFEFFFE003B7FFFFFFFFF7F54
:100980007FFFFF7F7FFFFFF7600080C0E0F0F8F897
:10099000F8FCFEFFFFFFFFFEF8070F7FFFFF7FFF62
:1009A000FF7FFFFF7FFFFF7F0000E0F0F8FCFEFE0F
:1009B000FFFFFFFEFEFCF8F0E00C1F3F7FFFFFFF94
:1009C000FFFFFFFFFFFFFF7F3B80C080C0E4FEFE14
:1009D000FFFFFFFFFEFEE4C08003070F1F3F7FFF06
:1009E000FF7F7FFFFF4F030703C0E0F0F8F0F0F850
:1009F000FCFEFFFFFFFEFCF0C01F3F1F1F3F7FFFFD
:100A0000FFFFFFFFFFFFFF6D00C0E8FCFEFEFFFEE3
:100A1000FCFCFCFEFFFEFEFCC800014BFF7F3F1FFD
:100A20001F1F1F1F1F3F7FFD4800C0F4FEFFFEFC7D
:100A3000FEFFFEFCFEFF7E34000F1F3F7FFFFFFF27
:100A4000FFFFFF7F3F1F0F000006030159090F063C
:100A5000002F00202000454E004552524F52002FDB
:100A6000005850004C56004552524F5200020505A6
:100A70000E050502000080C0A0A19F9F8F8984847D
:100A800084848C8C9494A4A4C4C48408081010207A
:100A90002040C080000101FF80B0B080FF80F88856
:100AA00088F880FF80B0B080FF81B1B1B181B1B171
:100AB000B181FF0101F80810083820202020203ED5
:100AC000223E203F213F081008F808100838202057
:100AD00038081008F8FF809B9B809B9B80F38BF865
:100AE0008BF3809B9B809B9B80FF809B9B809B9B31
:100AF000809B9B80FF806038444A2A2549492525F0
:100B00004949252549492525494925254949252A70
:100B10004A443860800102018242BE01922A91015A
:100B2000E212090912E201912A920181028201BEB8
:100B3000428201020120E01008840C144CA4120926
:100B400013A5491109850D15E52525A5252525267A
:100B5000A42428F02000FF809F909F80F08889FACD
:100B60008988F0809F909F80FF809F909F80809FCA
:100B7000909F80FF0038C8108F13CBBB000080808F
:100B8000800000B8C8108F13CBBB80000080B8C8AD
:100B9000108F13CB3B00FF809980FF8081F188F894
:100BA00088F18180FF809980FF809881819880FF03
:100BB000809980FF000098F4545434545474F860C1
:100BC000000039323F3F3F3F3F3D397600000C7A0D
:100BD000AAAA9AAAAABA7C30000002457F7F1F5FAA
:100BE0007D7C0700000018F454543454D474F86029
:100BF000000038303F3F3F3F3C3D3F70000088F8E9
:100C00002C5C2C5C2C2C9868000039323F313F3131
:100C1000333539760000047C96AE96AE96964C3409
:100C2000000002457F781F5A7D7C0700000008F80D
:100C30002C5C2C5CAC2C9868000038303F313F3382
:100C400034353F70000030E864246424C4048870A4
:100C50000000040A7F417F454A495E600000187425
:100C6000B292B29262824438000002057F407F4215
:100C7000454C5760000030E864246424C404887044
:100C80000000040A7F417F454A495E60000080FC05
:100C9000246464242404FC00000039323F21212113
:100CA000233539760000007E92B2B29292827E00A5
:100CB000000002457F701052757C0700000000FCA8
:100CC00024646424A404FC00000038303F21212364
:100CD00024353E700098FCFEFEFEFEFEFEFEFCF893
:100CE00060397F7F7F7F7F7F7F7F7FFF760C7EFFF6
:100CF000FFFFFFFFFFFFFE7C300247FFFFFF7FFF8C
:100D0000FFFF7F070018FCFEFEFEFEFEFEFEFCF865
:100D100060387C7F7F7F7F7F7F7F7FFF7088FCFCD8
:100D2000FEFEFEFEFEFEFCFC68397F7F7F7F7F7F3C
:100D30007F7F7FFF76047EFEFFFFFFFFFFFFFE7ECB
:100D4000340247FFFFFF7FFFFFFF7F070008FCFC27
:100D5000FEFEFEFEFEFEFCFC68387C7F7F7F7F7F10
:100D60007F7F7FFE7030F8FCFEFEFEFEFEFEFCF88C
:100D700070040E7FFFFFFFFFFFFFFFFE60187CFE89
:100D8000FFFFFFFFFFFFFE7C3802077FFFFFFFFF33
:100D9000FFFFFFF76030F8FCFEFEFEFEFEFEFCF8F3
:100DA00070040E7FFFFFFFFFFFFFFFFE6080FCFE71
:100DB000FEFEFEFEFEFEFEFC00397F7F7F7F7F7F12
:100DC0007F7F7FFF76007EFFFFFFFFFFFFFFFF7E3D
:100DD000000247FFFFFF7FFFFFFF7F070000FCFED1
:100DE000FEFEFEFEFEFEFEFC00387C7F7F7F7F7FE6
:100DF0007F7F7FFE70D5F08D14A1C881CFD9F1AF70
:100E0000200000B00000A170E150964F26900F1D09
:100E1000070C009669004AE44A0048444000806894
:100E200010000F99FB8F9DBDBBFB77D4D4DF1F1A39
:100E30001AFE7F5D5DFF805A0000A0A4AA0010BAD0
:100E40003400FF5953F3FF9B9B9EFFB9B996FF9562
:100E500095D19FF4940FFC295F91FF1838F8FF9209
:100E600094FFFF95D5F7BFB5DDD7F18F81F1F788F6
:100E7000C8F779C6467909FD9B090196F800828179
:100E80008280507162007756560076763700A2B79E
:100E9000730107720600782750007334740077518D
:100EA00076007F55F7004771100032477200736477
:100EB000730015A2750061679400009F6060F4F2F2
:100EC000F6F24552524F52000F0B0B093C08103CF2
:100ED000784848303C367F6F7F363C0041225D22A7
:100EE0005D221C0004085763750810002A55414113
:100EF00041221C003F7F4777005555001F21495D67
:100F000049211F000E11214221110E003B787B6008
:100F10006B683B00037D6D75757360003C7EE7C3B5
:100F2000C3E77E3CC3E77E3C3C7EE7C33000FC0465
:100F30005404FC80F0105010501050105010F080ED
:100F4000FF0155015501FF80FC045404FC808C52C4
:100F500091F191528C408C5291F191528C408C5273
:100F600091F191528C408C5291F191528C40804081
:100F70002030301018383C3C1810304884020103EF
:100F80000707060C1C0C8850E07070204080FFFFA3
:100F9000FEFEFFFFF0F0F8F8F8F0F0F8F8F8F0F0E7
:100FA000F8F8F8F0F0F8F8F8F0F0F8F8F8F0415246
:100FB00045204E4F57204845414C454400414C4C3C
:100FC00020594F5552205041574E5300594F5520EC
:100FD000474F5420414E20484552420047414D451D
:100FE0002053415645440028422953415645002884
:100FF00041295041574E530030204D4554455253DE
:101000000030004C4149523A00494E4E203A004EC1
:101010004558542044455354494E4154494F4E007D
:1010200030204D45544552530030004449535441FB
:101030004E43452054524156454C45440052454C80
:1010400045415345002F3900484552422000544540
:10105000414D00330032003100534C4F5400534C8B
:101060004F54005049434B002842294E4F2100283D
:1010700041295945530052454C454153453F004F86
:101080005554205041574E5321004C454156452060
:101090005749544800594F552043414E4E4F540034
:1010A000414354494F4E2100444F20544849530076
:1010B000594F552043414E4E4F540000080C0E002E
:1010C000000000000000000E0C080000103070004E
:1010D0000000000000000070301000181C1E1F1FD0
:1010E0000000000000001F1F1E1C18183878F8F8B8
:1010F000000000000000F8F8783818010307030129
:1011000000000004060706040000002842294E4F94
:1011100000284129594553004B454550205041571F
:101120004E3F002842294E4F21002841295945535E
:101130000045524153452043555252454E54204795
:10114000414D453F004E45572B00434F4E54494EAD
:10115000554500284229002841294E4557001818B6
:1011600018FFFF18181880E0781C867E3C0008C421
:10117000E606068EFCF800F0F88C86063E1C0000A1
:10118000000000C0701C8EFE0008C4E606068EFC3F
:10119000F80000C0701C8EFE00F0F800000000FC9B
:1011A000FE00F0F818F8F000FCFE1F3F60606030B1
:1011B0001C0E007F7F030F3F7140001E3F61606087
:1011C000301C0E00707C1F0707037F7F00007F7FAD
:1011D00003030301707C1F0707037F7F003F7F60CD
:1011E000383C607F3F007F7F003F7F607F7FF0F86B
:1011F0008C86063E1C0000F0F818F8F000FCFE009B
:1012000008C4E606060EFCF81E3F616060301C0E46
:10121000007F7F003F7F607F7F00007F7F60607086
:101220003F1F303018F8FC0C0606F0F8000080C0B4
:10123000FCFE00F0F88C86063E1C000000007F7F5C
:101240000000007F7F060301007F7F001E3F61607A
:1012500060301C0E080B00020202000009040000AE
:10126000010202000005240010010524010101040F
:101270002402060524060001070581031000400929
:10128000040100020A0000000705020240000007F6
:101290000583024000000403090412010002EF026A
:1012A000014041233680000101020301417264754F
:1012B000696E6F204C4C430041726475696E6F20FB
:1012C0004C656F6E6172646F000070983C1C7C1CF2
:1012D0007C38D090000076392D2F2F292F2F3239CE
:1012E0000000384C9E8EBE8EBE9C68080000000731
:1012F0007C655714677F4502000070983C9C7C1CFD
:101300007C38D0100000703F2D2C2F292F2F303823
:101310000070F8FCFEFEFEFEFEFCF8F89076FF7F03
:101320007F7F7F7F7F7F7F7F39387CFEFFFFFFFFDE
:10133000FFFEFC7C0800077FFFFFFF7FFFFFFF47EA
:101340000270F8FCFEFEFEFEFEFCF8F81070FF7F57
:101350007F7F7F7F7F7F7F7C3800E72311241FBE44
:10136000CFEFDAE0DEBFCDBF12E0A0E0B1E0E4E510
:10137000FEE602C005900D92AE39B107D9F727E01D
:10138000AEE9B2E001C01D92A13DB207E1F719E05C
:10139000CEEAD9E004C02197FE010E941637CD3A6B
:1013A000D107C9F70E941F240C9428370C94000021
:1013B000ECEBF3E080E0A0E0B8E000800EBC81112F
:1013C000012C1197A0FDFDCF0192B9F70DB408953E
:1013D0004F925F926F927F928F929F92AF92BF9245
:1013E000CF92DF92EF92FF920F931F93CF93DF93F1
:1013F000A22FB0E0EC01CA0FDB1F1C161D060CF07B
:101400009DC0803891050CF099C0603471050CF0D6
:1014100095C0162F1770E3E075956795EA95E1F78B
:10142000362FEE27FF27E81BF90B97FD02C0F0E0EF
:10143000E0E0C038D10514F020E8281B2E1B0695EB
:1014400006950695EB01C00FD11D299709F45EC0E2
:101450005B01B694BA2CAA24B794A794A80EB91E1F
:10146000AE0EBF1EE40FF51FC22FD0E0CC2061F0FE
:10147000AE0141505109E40FF51FAD014C1B5D0B4E
:1014800097FF47C0E41BF50B612E012E000C770877
:10149000C50184549C4F5D01AC1ABD0A2D014C0E50
:1014A0005D1ED0E0C0E0C21708F03CC04491442368
:1014B00041F150E0062C02C0440F551F0A94E2F798
:1014C00037FD0AC04C018C0E9D1ED401FC90EE200D
:1014D00019F1F42AD401FC92112399F037308CF4DD
:1014E0004E01B0E88B0E911C880E991ED401FC9021
:1014F0004F2D452BE11003C0452F40954F21D401BE
:101500004C93CC2069F031972196CDCF08E0061B93
:101510009FCFE40FF51FB8CFD42ED094FD20DACFA3
:101520003196F2CF3F5FCC20D1F0E40DF51D80580D
:101530009F4F432F461B401708F4B3CFDF91CF9145
:101540001F910F91FF90EF90DF90CF90BF90AF90E1
:101550009F908F907F906F905F904F900895EA0DCD
:10156000FB1DE5CF480F592F511D1416150684F5A4
:10157000803891056CF597FF02C090E080E041381B
:10158000510514F040E850E0481BFB01E770FF27CD
:1015900021E001C0220FEA95EAF777FF02C0695FF8
:1015A0007F4FFB0133E0F595E7953A95E1F7F69526
:1015B000FE2FEE27F795E795E80FF91FE454FC4F4F
:1015C000415030F08191DF011197822B8C93F8CF3D
:1015D0000895FC0180916A03882311F13FB7F894C4
:1015E00082E08093E9002091F200822F90E01816AB
:1015F000190614F481E090E0882339F0289844E635
:10160000409369034091F1004083222339F02091F7
:10161000F200211103C02BE62093E8003FBF08959C
:101620008FEF9FEF08952FB7F89483E08093E90040
:101630009091E800892F807295FF04C09091F2008C
:1016400080E4891B2FBF08958091610381110DC033
:1016500082E080935D0384E080935E0310926003D8
:1016600010925F0381E0809361038DE593E008951C
:10167000CF93DF931F92CDB7DEB76983DC01ED9185
:10168000FC910280F381E02D41E050E0BE016F5FEC
:101690007F4F09950F90DF91CF91089583E080935C
:1016A000E9008091F200882319F08AE38093E80032
:1016B00008950E94130B90E00895CF93DF931F923B
:1016C000CDB7DEB7FC018485958597FD08C02FEF67
:1016D0003FEF358724870F90DF91CF910895CE019A
:1016E00001960E94E90A019719F4898190E0F3CFED
:1016F0008FEF9FEFF0CF0F931F93CF93DF931F9246
:10170000CDB7DEB78C01FC018485958597FF0BC0B2
:10171000CE0101960E94E90A019771F4898190E057
:10172000F80195878487F801848595850F90DF916E
:10173000CF911F910F9108958FEF9FEFF1CFFC0193
:101740008485958597FD0BC09FB7F89482E08093C0
:10175000E9008091F2009FBF90E0019608959FB745
:10176000F89482E08093E9008091F2009FBF90E0BE
:10177000089540915703509158032091550330919B
:10178000560342175307B4F49091E8009570E1F3C3
:101790009091E80092FD19C08093F1008091570369
:1017A0009091580301968F739927892B19F48EEF26
:1017B0008093E8008091570390915803019690938D
:1017C00058038093570381E0089580E00895DF92E5
:1017D000EF92FF920F931F93CF93DF93D82E8A013E
:1017E000EB017B01E40EF51ECE15DF0559F0D7FEA7
:1017F00012C0FE0184910E94B90B21968111F4CF91
:101800000FEF1FEFC801DF91CF911F910F91FF9054
:10181000EF90DF9008958881EECF0F931F93CF93C1
:10182000DF931F92CDB7DEB782E0898342E450E0B8
:1018300064E572E180E80E94E70B0E94240BDC0162
:1018400012960D911C910115110589F0D801ED91A9
:10185000FC910280F381E02DBE016F5F7F4FC801D4
:10186000099597FD04C0F80100851185ECCF8981A9
:101870000F90DF91CF911F910F910895615030F03B
:101880002091F100FC0120830196F8CF289884E68E
:101890008093690308953FB7F89480915103909124
:1018A0005203A0915303B091540326B5A89B05C0E1
:1018B0002F3F19F00196A11DB11D3FBFBA2FA92FCF
:1018C000982F8827BC01CD01620F711D811D911DCC
:1018D00042E0660F771F881F991F4A95D1F7089538
:1018E0008F929F92AF92BF92CF92DF92EF92FF9230
:1018F0006B017C010E944B0C4B015C01C114D104B3
:10190000E104F104B9F00E944B0C681979098A09C5
:101910009B09683E73408105910580F321E0C21A5E
:10192000D108E108F10888EE880E83E0981EA11C1A
:10193000B11CE4CFFF90EF90DF90CF90BF90AF90BD
:101940009F908F9008958F929F92AF92BF92CF9267
:10195000DF92EF92FF920F931F93CF93DF936C016F
:101960007B018A0180911601882309F45CC0809173
:101970006A03882309F457C080915C0380FF05C087
:101980008091E00082608093E000E801B12C8AEF52
:10199000A82E93E0892E2AE3922E209711F4BB20E3
:1019A000D9F10E94130B81110AC0AA94AA20D9F17F
:1019B00061E070E080E090E00E94700CEECF8C1748
:1019C0001D0611F00CF08C2F9FB7F8948092E9005F
:1019D0002091E80025FD02C09FBFDFCF282F30E017
:1019E000C21BD30BF701815020F041914093F100CD
:1019F000FACFE20EF31EBB2021F09092E800B12C4A
:101A0000EBCF8091E80085FDE7CF9092E800BB2402
:101A1000B394209709F3F3CF5D9884E680935B033A
:101A2000101611063CF081E090E0F601938382836A
:101A300010E000E0C801DF91CF911F910F91FF905E
:101A4000EF90DF90CF90BF90AF909F908F900895D0
:101A5000AF92BF92CF92DF92EF92FF920F931F93BC
:101A6000CF93DF936C017B018B01040F151FEB01FA
:101A70005E01AE18BF08C017D10759F06991D601B1
:101A8000ED91FC910190F081E02DC6010995892B23
:101A900079F7C501DF91CF911F910F91FF90EF90E2
:101AA000DF90CF90BF90AF9008956F927F928F920A
:101AB0009F92AF92BF92CF92DF92EF92FF920F93DD
:101AC0001F93CF93DF934C017B01C22F102F98E01F
:101AD000A92EB12C642E669466946694712CCA016A
:101AE00087709927892B79F5D40117962D913C9110
:101AF000C7019927B9010E940237269DF001279D51
:101B0000F00D369DF00D11248E0F9F1FD4011596F8
:101B1000ED91FC91E80FF91F2081111112C0C095C1
:101B2000C223C083DF91CF911F910F91FF90EF905F
:101B3000DF90CF90BF90AF909F908F907F906F90ED
:101B40000895C22BEECFD0E04770C42ED12C83E095
:101B5000660C771C8A95E1F79E0101C0220F4A9519
:101B6000EAF7012FA301B701C4010E94550DA3019B
:101B7000485F5F4FC5018C199D0902C0D595C79577
:101B80008A95E2F7A7CF5F926F927F928F929F9292
:101B9000AF92BF92CF92DF92EF92FF920F931F937B
:101BA000CF93DF93EC016A30F1F48D859E859C879D
:101BB0008B878C892F853889820F932F911D988B65
:101BC0008F8781E090E0DF91CF911F910F91FF907F
:101BD000EF90DF90CF90BF90AF909F908F907F90CD
:101BE0006F905F900895AB84BC84693031F429E034
:101BF000A20EB11CBC86AB86E4CF3DEFA3163FEF2F
:101C0000B3060CF45DC08F819885A816B9060CF058
:101C100057C0CF84D8888DEFC8168FEFD8060CF444
:101C20004FC089859A85C816D9060CF049C0603224
:101C300008F46FE780EE860F9FE9960F9A3118F44B
:101C40009FEFC91AD90A8C3011F08B3119F42FEF9C
:101C5000C21AD20A869534E0839FC00111249C01E8
:101C60002E5F314F7901912C812C162F1170F701C5
:101C7000E80DF91D549011112DC0352D3F70532ED4
:101C80003501680C791C8C81882361F001E0898919
:101C90009A89892B09F000E02FE0A601B301CE015B
:101CA0000E94550D0989252DA601B301CE010E9480
:101CB000550D8FEF881A980A94E089169104B9F6A9
:101CC0008B8990E004962B853C85820F931F9C871F
:101CD0008B8777CF52948FE05822D2CF0F931F93E8
:101CE000CF93DF938C01D0E0C0E0F801EC0FFD1F33
:101CF0006491662341F08CEB97E00E94C30D892B21
:101D000011F02196F2CFCE01DF91CF911F910F916B
:101D10000895BC0190E080E00C94700C8FB1809528
:101D2000807F669B88601C9B8460089590914A0325
:101D3000982329F490914B03982381E009F480E0E3
:101D400008952F923F924F925F926F927F928F925F
:101D50009F92AF92BF92CF92DF92EF92FF920F933A
:101D60001F93CF93DF93CDB7DEB728970FB6F894C4
:101D7000DEBF0FBECDBF822E912C9401280F391FDC
:101D8000121613060CF08BC0803891050CF087C03A
:101D9000603471050CF083C09B01277033273E83AC
:101DA0002D83069506950695202F30E03C832B83E6
:101DB0002B0123E0559447942A95E1F7920136953B
:101DC000322F222737952795280F391F24543C4F4F
:101DD0003A01D20148E050E0BA01ED81FE816E1B6C
:101DE0007F0B7A8369838C0170E060E01901F0E871
:101DF0002F0E311C17FD37C06901C60ED71EF60124
:101E0000F080A301460F571F58874F8351E0EF81A1
:101E1000F885E5125DC0A490B12C0D8002C0AA0C1B
:101E2000BB1C0A94E2F7AF28F601A0824D815E81C7
:101E3000452BC9F0A730B105B1F0A101460F571FDE
:101E4000FA01F080F1E0EF1251C0EF81F885D490F3
:101E5000ED2DF0E0098002C0F595E7950A94E2F7D0
:101E6000FE2AFA01F0826F5F7F4F0F5F1F4F6815E8
:101E7000790524F40038110509F0BCCF11962058DB
:101E80003F4F680C791CAD01441955096B817C8169
:101E90004617570724F4A830B10509F0A4CF2896B7
:101EA0000FB6F894DEBF0FBECDBFDF91CF911F916B
:101EB0000F91FF90EF90DF90CF90BF90AF909F90E9
:101EC0008F907F906F905F904F903F902F900895EC
:101ED000449150E00D8002C0440F551F0A94E2F770
:101EE000409550954F21F6014083A0CFEF81F885B2
:101EF000D490ED2DF0E0098002C0F595E7950A94A5
:101F0000E2F7E095F095FE22ACCFCF92DF92EF9210
:101F10000F93CF93DF93C0916B0398E1C99FE001CA
:101F20001124C82ED12CAE014F5E5C4EEE24E394FA
:101F300000E12CE068E170E0C6010E94A10EAE0154
:101F400047535D4EE12C2CE068E170E0C6010E9431
:101F5000A10EDF91CF910F91EF90DF90CF90089578
:101F600080389105B8F460347105A0F420E191E067
:101F700061FD94E060FD990F62FD9295687F269F58
:101F8000D0011124A80FA454BC4F8C9140FF03C072
:101F9000892B8C93089590958923FBCFFF920F9303
:101FA0001F93CF93DF93EC018B01F42E42FF0BC004
:101FB00041E001960E94B00F41E0B8016F5F7F4F92
:101FC000CE010E94B00FF1FE0DC041E0B801CE017C
:101FD00001960E94B00F41E0B80161507109CE0135
:101FE0000E94B00FF3FE0DC041E0B8016F5F7F4F5C
:101FF000CE010E94B00F41E0B801CE0101970E94CE
:10200000B00FF0FE12C0B8016150710941E0CE017D
:102010000E94B00F41E0B801CE010197DF91CF914E
:102020001F910F91FF900C94B00FDF91CF911F91F2
:102030000F91FF900895DF92EF92FF920F931F93FD
:10204000CF93DF937C01D22E8B01040F111DEB0186
:1020500077FF02C0D0E0C0E0C8010134110514F0E0
:1020600080E490E0C817D9073CF44D2DBE01C701AC
:102070000E94B00F2196F0CFDF91CF911F910F9169
:10208000FF90EF90DF900895CF92DF92EF92FF9252
:102090000F93CF937C01842F41E0420FC3E0C20F26
:1020A0009B01215031096901202F813081F4C70142
:1020B00001960E941B10202F4C2FB601C701CF9113
:1020C0000F91FF90EF90DF90CF900C941B10C70101
:1020D0000197EFCF4F925F926F927F928F929F9274
:1020E000BF92CF92DF92EF92FF920F931F93CF9305
:1020F000DF934C01EB01142FE22EB02E8EEF682EF1
:10210000640E64018FEFC81AD80A26016C0C7D2C6E
:10211000711C4614570454F42B2D4E2DBE01C201E0
:102120000E941B109FEF491A590AF3CF8E2D83503E
:10213000990B7C012196C401810F911D0B2D9701F4
:1021400041E0BE0102970E944410970142E0BE01A7
:10215000C6010E944410DF91CF911F910F91FF9013
:10216000EF90DF90CF90BF909F908F907F906F9077
:102170005F904F900895089590E080E008953F9219
:102180004F925F926F927F928F929F92AF92BF9287
:10219000CF92DF92EF92FF920F931F93CF93DF9333
:1021A00082E08093AF0242E050E063E070E0C12C37
:1021B0000EE0A02E362FEAEBF2E020E0D42E1EEF48
:1021C000B12EB60E2F01460E571ED2016C908DEF28
:1021D000860D33243394320E833008F094C0A69CCD
:1021E000D0011124AC50BD4F1A969C9180910401EE
:1021F000981708F088C0B1E0BB1508F401C122238C
:1022000009F44DC09FEF920F04E0909FE00111246C
:10221000DE01A654BD4F13968C918630A1F582E065
:10222000DE01A654BD4F7D01E40EF51EE7010881D5
:10223000033008F003C1D2E0DD1227C08E5FE32E29
:1022400000E0DF01A40FB51F8C9012E0181560F5B7
:10225000C6E08C16E9F1233009F407C19924939460
:10226000878016E08112912C1496AC91A33008F06F
:10227000F2C093949394891508F0F4C0932DE32E43
:10228000892D00E0EFC080E0CBCF8F5FD8CF063044
:1022900009F0DCC08111D3CF90E0E12C03C090E0C5
:1022A000E12C80E002E0CDCF9380D6E09D1669F06E
:1022B000D2E09D2E891578F670900201871459F2AC
:1022C000892D922FED2C01E0C6CFC3E09C2EF2CFDA
:1022D000823008F0C0CF922FED2C82E000E0BBCF1F
:1022E000843021F0B0910201AB136EC0233009F4A9
:1022F00076C0E201AC81A33008F46BC0A63008F0D0
:102300006EC093116CC0232D3496243009F05ACF3F
:10231000615071094150510908F04CCF8091AF02D2
:10232000823009F087C09091B302911105C080916D
:10233000B2028F5F8093B2028091B2028F3011F0AF
:10234000992381F11092B3021092B20280910001A0
:102350000EE0809FF0011124EC50FD4F9681911109
:102360000EC0E4EFF2E080E09281992319F09681AB
:10237000911105C08F5F3E968330B1F786E0809360
:10238000CC021092B1021092CB021092B90280914D
:102390000301853008F084E08B5F8093030186E0C1
:1023A00080930201DF91CF911F910F91FF90EF90E9
:1023B000DF90CF90BF90AF909F908F907F906F9065
:1023C0005F904F903F900895992DE32E01E084E0B7
:1023D0008DCF843021F0B0910201AB1326C0C81616
:1023E00008F091CF6092CC020093AF02E092B40269
:1023F0009093B5023093B7022093B802C82E83CFD2
:102400008081833040F0863009F07DCF922FE12C1F
:1024100000E085E0E4CF90910201891709F473CFC1
:10242000922FE12C01E082E0DACF932DE32E01E040
:1024300084E0D5CF81E08093B902B4CF12960C919D
:1024400012971196AC91A33008F421CF90E0E12CC3
:1024500002E080E0F6CEB681A581A33018F4B63054
:1024600009F409CF222309F444CF99249A94920EB7
:10247000C4E09C9ED0011124A654BD4FA60FB71FE7
:10248000AC91A33008F42CCFA63008F02FCF9912CE
:102490002DCF922FE32E02E080E028CF8091F10231
:1024A000803249F09091F002903299F48093F002DA
:1024B00080E28093F1028091F202803279F0909173
:1024C000F102903249F48093F10280E28093F202AB
:1024D00008958913F0CFEACF8917A9F30895CF9310
:1024E000C82F80E80E94960E882339F0809105015C
:1024F000882319F081508093050180E10E94960E97
:10250000882339F0809105018C1718F48F5F809330
:102510000501CF910895282FE4EFF2E090E081E0EB
:1025200052813581468160A974A5772319F0611124
:1025300001C08F5F291749F0552339F0442329F052
:10254000393018F4823008F081509F5F3E96933006
:1025500039F7089580916B03813079F48091A0025E
:10256000811108C082E080936B0380916B0380939C
:10257000A002089510926B03F8CF8093A00281E02F
:1025800080936B0308952091AA028091E9029091B3
:10259000EA0260E273E00E94EE366230710529F4CF
:1025A0002130B1F41092AA020895213079F480917B
:1025B0009F02811108C082E08093AA028091AA0242
:1025C00080939F0208951092AA02F8CF20939F0251
:1025D00081E08093AA020895CF92DF92EF920F9349
:1025E000CF93DF9390E1699F60011124C82FD0E061
:1025F000249684E0CC0FDD1F8A95E1F7E12C00E101
:1026000020E14BED50E1B601CE010E94A10EEE2477
:10261000E39420E14BEB50E1B601CE010E94A10E04
:10262000DF91CF910F91EF90DF90CF900895CF93EE
:1026300080E80E94960EC091B502882351F11C16C5
:1026400044F5C150C093B5028091B502082E000C2C
:10265000990B2091B80228171906C9F42091B702E6
:1026600030E08091B402082E000C990B281739072E
:1026700071F0E091CC024EE0E49FF0011124EC50A7
:10268000FD4F41E0281739070CF440E04483CF9117
:10269000089580E10E94960E882311F0C33084F0E3
:1026A00080E20E94960EC091B40281110BC080E4BA
:1026B0000E94960E882341F2C33034F6CF5F05C0E6
:1026C000CF5FC0CF1C169CF7C150C093B402BCCFE3
:1026D0000F931F93CF93DF9380E80E94960E882379
:1026E000A1F08091CC02882381F081502EE08202FB
:1026F000F0011124EC50FD4F87FD07C096813E97F5
:10270000992309F473C08093CC0280E10E94960E55
:102710008823C1F09091CC029230A0F481E0890F1F
:102720002EE0829FF0011124EC50FD4F26812111F3
:1027300007C0913039F080911603882319F082E0A8
:102740008093CC0280E20E94960E882339F080911B
:10275000B102882319F081508093B10280E40E9475
:10276000960E882339F08091B102833018F48F5F80
:102770008093B102E091CC020E2F10E08EE0E89F32
:10278000F0011124EC50FD4FD285C091B102C1304F
:1027900079F5DF5F88E00E94960E882309F43FC038
:1027A000809103018D1718F4C33009F038C080916F
:1027B000B7028093B4028091B8028093B5028EE094
:1027C000809FF001819FF00D1124EC50FD4F84811A
:1027D00080939E0281E08093B902C130A9F180E02C
:1027E000C130D8F0C23041F087E017C0815084CFAB
:1027F000C23081F6DE5FCECFE381E830A8F7F0E0AB
:10280000EC5FFB4E0C94163724141E1422140C1487
:10281000241420141C14241483E08093B60284E052
:102820000E94960E882319F083E08093B102DF9115
:10283000CF911F910F91089585E0EFCF84E0EDCF08
:1028400086E0EBCF82E0E9CF81E0E7CFDC01EC91DD
:10285000E63048F48EE0E89FF0011124EC50FD4F83
:10286000868181110CC086E08C93EC918EE0E89F0C
:10287000F0011124EC50FD4F86818783089581E09B
:102880008587F3CFCF93DF93F901A82FB0E094E0D1
:10289000699F90011124E901C654DD4FCA0FDB1F67
:1028A0009881973011F496E0988326543D4FA20FFB
:1028B000B31F9C91963088F420910201921301C0BD
:1028C00011869185911115C09681992319F091E097
:1028D000958701C0158696819783833039F46330DC
:1028E00029F4FA01808181111092B902DF91CF9110
:1028F0000895191684F7DA011C92918591509187F9
:10290000968191509683958521E09227E1CFA62F5D
:10291000A21BBB0BFD01119711F0319611F4841726
:1029200069F0841B990B8130910521F481E06213D9
:1029300003C008950196D1F380E0FBCF81E00895B4
:10294000CF92DF92EF92FF920F931F93CF93DF937B
:10295000CDB7DEB7A7970FB6F894DEBF0FBECDBFD9
:10296000CA8EDB8EEC8EFD8E0E8F1F8F28A339A3AF
:102970004AA35BA36CA37DA38EA39FA389E1EBE194
:10298000F1E0DE01119601900D928A95E1F78B8DB1
:102990002BA941E050E04C0F5D1FE5E08E9F400DFC
:1029A000511D1124CA01820F911DFC0180818823D1
:1029B000F9F061E0823011F081E001C082E09DA178
:1029C000899FC001112470E00E940237862F9091E8
:1029D0000A01923079F49091B102923069F49D8DA0
:1029E0009130E9F0C8F0943039F4862F880F04C094
:1029F00062E0E2CF977F99F38F5FA7960FB6F894C6
:102A0000DEBF0FBECDBFDF91CF911F910F91FF9021
:102A1000EF90DF90CF90089588AD8150EDCF8BEA95
:102A2000689F812D11248695E7CF8F929F92BF9248
:102A3000CF92DF92EF92FF920F931F93CF93DF938A
:102A4000EC014B01FB01B680B7822DB73EB72E508B
:102A500031090FB6F8943EBF0FBE2DBFADB7BEB75C
:102A600011968EE001900D928A95E1F7C880D98089
:102A7000EA80FB800C811D812E813F81488559852C
:102A80006A857B858C859D850E94A0144DB75EB7B5
:102A9000425F5F4F0FB6F8945EBF0FBE4DBFEB2D88
:102AA000E81BFF0BB81AF7FDB12CF401B782DF91D8
:102AB000CF911F910F91FF90EF90DF90CF90BF903B
:102AC0009F908F9008952F923F924F925F926F92B6
:102AD0007F928F929F92AF92BF92CF92DF92EF92AE
:102AE000FF920F931F93CF93DF9300D01F92CDB728
:102AF000DEB7898322E0873009F421E0E091CB0240
:102B0000F0E02090CC02822C912CED5FFE4F9EE0F5
:102B1000989DA001999D500D11244C505D4F5B83F1
:102B20004A838081DA011A963C91831B821B808341
:102B30008091B5024090B402042C000C5508B4E01A
:102B40008B0250011124F501E654FD4FE40DF51DF3
:102B50003080632C712C969DF001979DF00D11240F
:102B6000EC50FD4F2DB73EB72E5031090FB6F894FB
:102B70003EBF0FBE2DBFADB7BEB7119601900D92EF
:102B80009A95E1F7AA81BB81CC901196DC901197C0
:102B90001296EC9012971396FC90139714960C9142
:102BA000149715961C91159716962C9116971796B3
:102BB0003C91179718964C91189719965C91199714
:102BC0001A966C911A971B967C911B971C968C9168
:102BD0001C971D969C910E94A0140FB6F894DEBF1E
:102BE0000FBECDBFF981F83008F5EF2FF0E0E550CA
:102BF000FA4E0C941637D7166216331603160316C0
:102C00002E16FD1603169EE0969DF001979DF00D81
:102C10001124EC50FD4F9681492F481B550B14167B
:102C20001506D4F0918782E08093B9020F900F903F
:102C30000F90DF91CF911F910F91FF90EF90DF9058
:102C4000CF90BF90AF909F908F907F906F905F904C
:102C50004F903F902F9008958187E5CF20920201F9
:102C60001092B902E3CF9EE0989DD001999DB00DDE
:102C70001124AC50BD4F14968C91149780939E02F2
:102C8000969DF001979DF00D1124EC50FD4F94811D
:102C900014969C9384838091B802E091B70254E02B
:102CA000859FC001112486549D4FE80FF92FF11D17
:102CB0008081D501A654BD4F4A0E5B1ED2018C9374
:102CC0003082CECF84EFA82E82E0B82E93E0692E1A
:102CD000712C2EE0522E589CF001599CF00D1124BD
:102CE000EC50FD4FFB83EA83569CF001579CF00D9E
:102CF0001124EC50FD4F2DB73EB72E5031090FB6C1
:102D0000F8943EBF0FBE2DBFADB7BEB71196852D4F
:102D100001900D928A95E1F7AA81BB81CC90119622
:102D2000DC9011971296EC9012971396FC901397E3
:102D300014960C91149715961C91159716962C9134
:102D4000169717963C91179718964C9118971996C5
:102D50005C9119971A966C911A971B967C911B9708
:102D60001C968C911C971D969C910E94A0140FB6E6
:102D7000F894DEBF0FBECDBFD501D0969C91D09701
:102D8000E92FE81BFF0B1E161F0674F0D3969C93C9
:102D9000BFEF6B1A7B0AEEE0AE0EB11CF6E06F16C9
:102DA000710409F0A1CF3FCFD3968C93F1CF8EE081
:102DB000869DF001879DF00D1124EC50FD4F96810A
:102DC0009187889DF001899DF00D1124EC50FD4FF5
:102DD00086818187E4EFF2E080E09281992341F0DF
:102DE0009681992329F0281619F08093CC021BCFE5
:102DF0008F5F3E96833089F716CFE4EFF2E096813D
:102E0000992361F02085822F869530E0890F9927DC
:102E1000991F281739070CF4C90186833E9623E0D1
:102E2000EE31F20761F71CCFCF93DF93D82F80915B
:102E3000B102813009F45EC048F0823009F48AC0E2
:102E4000833009F410C1DF91CF9108950E941713C8
:102E500088E00E94960E8823C9F18091B502E09126
:102E6000B4020E2E000CFF0B24E08202C0011124DC
:102E7000DC01A654BD4FAE0FBF1F3C91383011F09E
:102E8000363021F54091CC022EE0429FD001112432
:102E9000AC50BD4F209103011A965C91251B2093E5
:102EA000030186549D4FE80FF91F40838091B802BB
:102EB0002091B70244E0849FC001112486549D4FA5
:102EC000820F911DFC0130831092B90284E00E94B0
:102ED000960E882309F4B7CFE091CC022EE0E29F52
:102EE000F0011124EC50FD4F80919E0284831092DA
:102EF000B902A9CF0E9417130E948E0E83FF1DC036
:102F00002091B5024091B40284E02802F00111241E
:102F1000E654FD4FE40FF11D47FDFA958081835083
:102F2000833058F46091B8028091B7020E948714F0
:102F3000882319F087E00E94631584E00E94960EB2
:102F4000882309F480CFE091CC029EE0E99FF00154
:102F50001124C8CFD73008F5ED2FF0E0EE54F84E2D
:102F60000C941637B9173118CF170018B917311844
:102F700016180E9417132091B5024091B40284E004
:102F80002802F0011124E654FD4FE40FF11D47FD26
:102F9000FA95808183508330A8F0C0E01AC00E9467
:102FA00017132091B5024091B40294E02902F00178
:102FB0001124E654FD4FE40FF11D47FDFA95808181
:102FC000863058F76091B8028091B7020E9487144A
:102FD000C82F88E00E94960E882329F0CC2319F090
:102FE0008D2F0E94631584E00E94960E882309F4B9
:102FF0002ACFE091CC024EE0E49FF001112472CF81
:103000000E941713E091B5028091B40224E0E2021D
:10301000F0011124E654FD4FE80FF11D87FDFA95EC
:1030200080818350C1E08330A0F2B7CF8091FA0253
:103030009091FC02891711F0811113C0809108034F
:1030400090910A03891711F081110BC0809116032A
:1030500090911803891711F0811103C01092B902E1
:103060009CCFC1E0B6CF8091CC0280930001E4EF09
:10307000F2E083E094A5992319F090A9911104C07E
:103080008F5F3E968630B1F78093CC0284E08093C8
:10309000B10281E08093CB021092B9028091AE021E
:1030A000811109C080910401853008F084E08B5FB4
:1030B00080930401C8CE1092AE02C5CE8F929F922B
:1030C000AF92BF92CF92EF92FF920F931F93CF9345
:1030D000DF935B014A01122F90E2899FE0011124E6
:1030E000EE24E394E226AE01475B594FC02E00E187
:1030F00020E1B401C5010E94E809AE01475B5D4FC4
:10310000E12E20E1B401C5010E94E809DF91CF91D1
:103110001F910F91FF90EF90CF90BF90AF909F9035
:103120008F900895AF92BF92CF92DF92EF920F935C
:10313000CF93DF9380910801823001F178F48823E6
:1031400009F47CC0813009F45BC0DF91CF910F910D
:10315000EF90DF90CF90BF90AF9008958330E9F06B
:10316000843099F76091E50270E08091E602EE24E8
:10317000E39408E028E04DE65AE05CC04091E502A7
:1031800050E06091E602062E000C770B01E021E092
:103190008091AB020E945E18D8CF8091E902909195
:1031A000EA0260E273E00E94EE36862F880F680F15
:1031B0008091AA02680F7727771F88E1869F5001C8
:1031C000879FB00C1124C090E502D12CC091E6027B
:1031D0000C2E000CDD0BA5014B52534FEE24E39453
:1031E00000E12CE0B601CE010E94A10EA5014B54D6
:1031F000544FE12C2CE0B601CE010E94A10EA5CFC8
:103200008091E9029091EA02409760E273E00E94A7
:10321000EE36AB0186E0440F551F8A95E1F74B541B
:10322000554F6091E50270E08091E602EE24E39450
:1032300000E120E2082E000C990BDFCF6091E5023F
:1032400070E08091E602EE24E39400E120E245E79D
:103250005AE0F0CF8A3020F487E492E00C946E0EAE
:103260000895EF92FF920F931F93CF93DF93102F48
:10327000E62EF12CC82FD0E0B701CE010E946A10D3
:10328000ECEBF7E001E01027012F10E0128B018B2F
:103290002196D687C587D487C3878FEFE81AF80AA7
:1032A000F08AE786DF91CF911F910F91FF90EF9009
:1032B00008958F929F92AF92BF920F931F93CF93D7
:1032C000DF93CDB7DEB7A1970FB6F894DEBF0FBE80
:1032D000CDBF19A2423008F44AE08E010F5D1F4FA6
:1032E000842E912CB12CA12CA50194010E94AF3603
:1032F000E62FB901CA01EA3044F5E05DD801EE934A
:103300008D01232B242B252B79F790E080E010975B
:1033100069F0FD0101900020E9F73197AF014A1BE8
:103320005B0BBD018CEB97E00E94280DA1960FB6B8
:10333000F894DEBF0FBECDBFDF91CF911F910F91EB
:10334000BF90AF909F908F900895E95CD7CFFC011C
:1033500001900020E9F73197AF01481B590BBC01E0
:103360008CEB97E00C94280D682F70E090E080E0E3
:103370004AE00C945919CF92DF92EF92FF92CF93CB
:10338000DF936C01990FEE08FF08F7FE19C06DE29C
:103390008CEB97E00E94C30DEC0166277727CB01E9
:1033A0006C197D098E099F094AE00E9459198C0FFA
:1033B0009D1FDF91CF91FF90EF90DF90CF90089508
:1033C0004AE0C701B601DF91CF91FF90EF90DF9007
:1033D000CF900C945919AF92BF92CF92DF92EF9297
:1033E000FF920F931F93CF93DF93EC01F62E01E032
:1033F00029E244E361E080E00E9431198A81882358
:1034000009F4C4C1E88182EC9EE0E03238F4F0E0D7
:10341000EE0FFF1FE95FFD4F808191810E946E0ECC
:1034200081E090E09093CA078093C9079093C80702
:103430008093C70787E090E09093CC078093CB07F9
:10344000E98187E69AE0E53038F4F0E0EE0FFF1FFF
:10345000E350FE4F808191810E946E0E81E090E0EA
:103460009093CA078093C9079093C8078093C707B2
:103470008CE090E09093CC078093CB07EA8189E5BC
:103480009AE0ED3038F4F0E0EE0FFF1FED51FE4F03
:10349000808191810E946E0E01E010E01093CA07B6
:1034A0000093C9071093C8070093C70781E190E014
:1034B0009093CC078093CB0784E69AE00E946E0E2F
:1034C0008D810E94B4191093CA070093C907109305
:1034D000C8070093C70786E190E09093CC078093DC
:1034E000CB0781E69AE00E946E0E8C850E942A1915
:1034F0008C850E94B4198FE59AE00E946E0E1D81A2
:10350000193009F44AC0110F1150812F0E942A1955
:10351000812F0E94B41981E090E09093CA078093B4
:10352000C9079093C8078093C7078BE190E09093F9
:10353000CC078093CB0786E59AE00E946E0E8091BF
:103540000A0181112EC1FF2009F42BC14E8128856B
:10355000421708F026C18091ED029091EE0265E0DD
:1035600070E00E94EE36892B21F48D8591E0892749
:103570008D878D85882399F0822F869530E0840F82
:103580009927991F281739070CF4C9018F830E94C6
:103590002A198F810E94B41906C01FE0B6CF83E5B7
:1035A0009AE00E946E0E81E59AE00E946E0E888578
:1035B0000E942A1988850E94B41989E090E09093AE
:1035C000CA078093C9079093C8078093C70785E20D
:1035D000A82EB12CB092CC07A092CB078A850E946E
:1035E000B419E12C08E028E044E15FE061E270E01A
:1035F00081E090E00E94A10E07E110E01093CA075D
:103600000093C9071093C8070093C70790E2C92E1B
:10361000D12CD092CC07C092CB078B858F5F0E94B4
:103620002A198B8590E001960E94BB191093CA0756
:103630000093C9071093C8070093C707B092CC073F
:10364000A092CB078A8590E001960E94BB1908E002
:1036500028E04CE05FE061E270E08FE090E00E94E3
:10366000A10E8AE290E09093CA078093C9079093D5
:10367000C8078093C707D092CC07C092CB078B8135
:10368000813021F08350823008F05DC088818F3115
:1036900009F459C02DB73EB72E5031090FB6F89432
:1036A0003EBF0FBE2DBFADB7BEB711968EE0FE0177
:1036B00001900D928A95E1F7C880D980EA80FB805D
:1036C0000C811D812E813F81488559856A857B85C6
:1036D0008C859D850E94A0142DB73EB7225F3F4F79
:1036E0000FB6F8943EBF0FBE2DBF0E942A198DB7AA
:1036F0009EB70E970FB6F8949EBF0FBE8DBFADB7A5
:10370000BEB711968EE0FE0101900D928A95E1F709
:10371000C880D980EA80FB800C811D812E813F8189
:10372000488559856A857B858C859D850E94A01476
:103730002DB73EB7225F3F4F0FB6F8943EBF0FBE86
:103740002DBF0E94B4198AE290E09093CA0780933B
:10375000C9079093C8078093C70785E290E09093CC
:10376000CC078093CB078A8590E002960E94BB1914
:1037700088818F31D9F4E12C08E028E049E45AE04F
:1037800061E270E082E290E00E94A10EDF91CF91B1
:103790001F910F91FF90EF90DF90CF90BF90AF906F
:1037A00008958E810E942A198E81F4CE4B8138E0D3
:1037B000439FA00111244C52514FE12C08E028E016
:1037C000DFCF0C9467360F931F93CF93DF938C0159
:1037D000EB010E9467368883C80101960E94673614
:1037E0008983CE01DF91CF911F910F910895CF93DF
:1037F000DF9300D0CDB7DEB71A821982BE016F5FAA
:103800007F4F88EB92E00E94E31B8AEB92E00E94DC
:10381000E11B982F29813A8121383C4018F481E03E
:103820009A3008F080E00F900F90DF91CF910895CB
:10383000EF92FF920F931F93CF93DF9300D0CDB7FA
:10384000DEB78C0183E0689F70011124BE016F5FB9
:103850007F4FC701885A9D4F0E94E31BC701865ABC
:103860009D4F0E94E11BF801868389819A81282F50
:1038700027702F5F2583AC0183E0569547958A9585
:10388000E1F74F714083392F3F7034873F3021F487
:10389000283011F429E02583892F82958F70F80153
:1038A00082830F900F90DF91CF911F910F91FF9026
:1038B000EF9008951F93CF93DF93EC01162F0E9492
:1038C0006736181739F0612FCE01DF91CF911F9124
:1038D0000C946F36DF91CF911F91089581EC809306
:1038E0007C0085B1806F85B984B1877E84B984B14D
:1038F000876E84B95E9A5F988AB1806D8AB9769A2C
:103900006E9881B3806F81BB899880B38D7080BBC6
:1039100080E58CBD81E08DBD85E090E00E94890E40
:103920005F9A85E090E00E94890E5E985C98E5EFD2
:10393000FDE082E09EE024912EBD00000DB407FE64
:10394000FDCF31968E179F07B1F75C9A81E880937F
:103950006400809165008160809365000E94D809B1
:103960000E948E0E87FF15C05C9885EA8EBD000010
:103970000DB407FEFDCF5C9A2E982F982D9880915C
:10398000640080628093640081E083BF889513BEE9
:10399000FCCF0E948E0E82FF3AC02D980E948E0EA0
:1039A00084788438A9F42D9A88EC90E00E94890EDE
:1039B0002F986FEF82E090E00E945A1C84EF91E014
:1039C0000E94890E2F9A0E948E0E84788438D9F333
:1039D0000E948E0E84718431A9F42D9A88EC90E0B7
:1039E0000E94890E2E9860E082E090E00E945A1CAE
:1039F00084EF91E00E94890E2E9A0E948E0E8471AF
:103A00008431D9F388EC90E00E94890EC2CF2D9AC0
:103A100082E090E00E94E11B882319F03E9A3F9AD1
:103A200008953E983F980895FF920F931F93CF9368
:103A3000DF93EC018B01FB01F0800E946736F816E2
:103A400021F06F2DCE010E946F36F801F180219692
:103A5000CE010E946736F81621F06F2DCE010E942C
:103A60006F36C801DF91CF911F910F91FF9008959C
:103A7000AF92CF92DF92EF92FF920F931F93CF936B
:103A8000DF93CDB7DEB760970FB6F894DEBF0FBEF9
:103A9000CDBFCB82ED8229878F87412F63E0A69E21
:103AA00080011124C801885A9D4F4930A0F541502A
:103AB000550B2B8168E0269F900111246D8170E0E9
:103AC000762F66277295707F260F371F6F8570E0FF
:103AD000762F6627260F371F240F351F3A83298339
:103AE000BE016F5F7F4F0E94141D6985C801865A11
:103AF0009D4F0E945A1C60960FB6F894DEBF0FBE11
:103B0000CDBFDF91CF911F910F91FF90EF90DF908C
:103B1000CF90AF90089547E050E0CBCFCF93DF93A5
:103B2000E091E902F091EA02CF0160E971E00E94C0
:103B3000EE36EC012091E80221112BC0CF016AE0A2
:103B400070E00E94EE36099749F40E940F3620E19A
:103B500030E040E050E00E947D36262FC53881E0FD
:103B6000D807C9F488E08093E5028FE78093E602E6
:103B70008091E9029091EA0260E971E00E94EE36DC
:103B8000617081E08093E70260930801DF91CF913B
:103B9000089520E0E3CFC637D140C0F72A30B0F314
:103BA0006BEA269F212D1124269521502093080190
:103BB000243091F48091E402893071F40E940F3630
:103BC00022E030E040E050E00E947D366E5F7F4FA3
:103BD0008F4F9F4F60930801809108018330C1F09F
:103BE0008430C1F0823069F40E940F3620E230E068
:103BF00040E050E00E947D366093AB0289E1809303
:103C0000E50281E08093E7028FE78093E602BECF72
:103C100088E1F5CF84E2F3CFCF92DF92EF92FF926B
:103C20000F931F93CF93DF93CDB7DEB767970FB690
:103C3000F894DEBF0FBECDBFCA86DB86EC86FD865C
:103C40000E871F87288B398B4A8B5B8B6C8B7D8B08
:103C50008E8B9F8B8D2D99E0E4E3F1E0DE011196D0
:103C600001900D929A95E1F7DD2099F18430C1F42D
:103C70000E940F3627E030E040E050E00E947D36A1
:103C8000862F67960FB6F894DEBF0FBECDBFDF91CB
:103C9000CF911F910F91FF90EF90DF90CF900895FB
:103CA000815090E0EC85E150FF0BF595E795F59597
:103CB000E7959C01220F331F820F931F21E030E014
:103CC0002C0F3D1F820F931FE80FF92FF11D8081EC
:103CD000D8CF80E0D6CFCF92DF92EF92FF920F93B2
:103CE0001F93CF93DF93EC012A81E881AFEFAE0FF2
:103CF00080E0AF3120F4B0E0A35CBE4F8C918983AB
:103D00000D8110E030E0F0E0C901880F991F280F05
:103D1000391F24543E4FD9014C91CF01880F991F70
:103D2000E80FF91FE45AFE4F8081480F5527551FB1
:103D30004C5F5F4F409FC001419F900D509F900D81
:103D400011240F9665E070E00E9402376887D90160
:103D500011964C918181480F5527551F4C5F5F4F3D
:103D6000409FC001419F900D509F900D11240F96D0
:103D70006AE070E00E9402376B87D90112966C915D
:103D80008281680F7727771F759567957195619583
:103D90007109695F6A87C880D980EA80FB800C81DD
:103DA0001D812E813F81488559857B858C859D8528
:103DB0000E940C1E8B83DF91CF911F910F91FF907A
:103DC000EF90DF90CF9008952F923F924F925F92A5
:103DD0006F927F928F929F92AF92BF92CF92DF921B
:103DE000EF92FF920F931F93CF93DF93409148037D
:103DF000E091E902F091EA02411148C0CF0160E987
:103E000071E00E94EE3632E0332E360ECF0160E2D2
:103E100073E00E94EE36623041F06330C9F110E089
:103E200021E0613021F422E002C011E023E0212CE6
:103E3000C0E2E03639E0F30770F4CF0160E273E0EE
:103E40000E94EE36CAE06C9F202C11242394C69F5A
:103E5000C00D1124CF5F30910801323009F4C4C085
:103E60003330C1F0313009F0D3C0CF0160E273E0EC
:103E70000E94EE366230710509F404C108F0CAC030
:103E80006130710509F416C113E062C029E0322ED9
:103E900012E0CCCF822E912CB12CA12C412E512C92
:103EA000712C612C481459046A047B048CF4841826
:103EB0009508A608B70841F00E940F36A5019401A5
:103EC0000E947D364B015C01480C591C6A1C7B1C0E
:103ED000142D00E0CC2ED12CF12CE12C822C912C35
:103EE000B12CA12C8C149D04AE04BF049CF42601BB
:103EF0003701481859086A087B0841F00E940F36BC
:103F0000A30192010E947D362B013C01840C951C7B
:103F1000A61CB71CC02FD0E0FE01E955FD4F8082E2
:103F20000E940F36FE01EC55FD4F5F012CE030E0A2
:103F300040E050E00E947D366F5F7F4F8F4F9F4F74
:103F4000F5016083CF55DD4F38820F5F101730F6D3
:103F5000C4EFD2E0F12CE12C07E089E0D82E9FE0FD
:103F6000C92E1CA61E1528F1F701EF55FD4F8081C3
:103F7000F701E955FD4F9081F701EC55FD4F208188
:103F80002CA79AA78FA7893029F0883029F48EA909
:103F90008F3011F4DFA6CEAA8CA5882351F0CE0174
:103FA0008A960E946B1E0DA78AA988AB8CA98150A6
:103FB0008CABFFEFEF1AFF0A2E9623E0E216F10416
:103FC00081F6DF91CF911F910F91FF90EF90DF90DD
:103FD000CF90BF90AF909F908F907F906F905F90A9
:103FE0004F903F902F9008958091AB028093A7024D
:103FF0000E940F362CE030E040E050E00E947D3619
:104000006F5F7F4F8F4F9F4F6093A4023092A1024A
:1040100010E09ECF63307105C1F06430710509F086
:1040200033CF8FE18093A70289E08093A40280932D
:10403000A10294E19093A8023093A5028093A2027A
:104040009DE19093A90295E018C08CE18093A702AE
:1040500087E08093A40289E0411101C088E0809349
:10406000A10296E19093A80296E09093A502809316
:10407000A2029AE19093A90293E09093A602809302
:10408000A30202CF83E18093A7028CE08093A40275
:1040900089E0411101C086E08093A1029BE09093EA
:1040A000A8029093A5028093A2029EE09093A90299
:1040B0009AE0E3CF3093A70282E08093A40289E0E4
:1040C000411101C084E08093A10292E09093A80284
:1040D00094E09093A5028093A2029093A90298E0A5
:1040E000CCCF8F929F92AF92BF92CF92DF92EF92FE
:1040F000FF920F931F93CF93DF93CDB7DEB72E9729
:104100000FB6F894DEBF0FBECDBF84EF882E82E0DD
:10411000982EB12C6B2DCE0101960E94181CCE0159
:1041200001960E946B1E8B81882311F089858F83F5
:10413000AB2CC980DA80EB80FC800D811E812F8141
:10414000388549855A856B857C858D859E850E943D
:10415000381D82E08B1518F0F40180858683B394B6
:10416000FEE08F0E911C80E2B812D4CF2E960FB6CF
:10417000F894DEBF0FBECDBFDF91CF911F910F919D
:10418000FF90EF90DF90CF90BF90AF909F908F9077
:1041900008951F920F920FB60F9211248F939F9341
:1041A0008091E1009091E100937F9093E10083FF83
:1041B0000FC01092E90091E09093EB001092EC0098
:1041C00092E39093ED0010926A0398E09093F000D0
:1041D00082FF22C093E09093E9009091F20099232E
:1041E00019F09AE39093E80090915B03992341F0D2
:1041F00090915B03915090935B03911101C05D9A84
:1042000090916903992341F09091690391509093A3
:104210006903911101C0289A84FF18C08091E200BF
:104220008E7E81608093E2008091E1008F7E80939A
:10423000E10080915C038E7E806180935C039F919E
:104240008F910F900FBE0F901F90189580FFF7CFA2
:104250008091E2008E7E80618093E2008091E10097
:104260008E7E8093E10080915C038E7E8160E5CF3D
:104270001F920F920FB60F921124CF92DF92EF92FE
:10428000FF920F931F932F933F934F935F936F93DF
:104290007F938F939F93AF93BF93EF93FF93CF93AE
:1042A000DF93CDB7DEB76C97DEBFCDBF1092E900CC
:1042B0008091E80083FF25C068E0CE0145960E940A
:1042C0003E0C82EF8093E8008D8987FF39C0909182
:1042D000E80090FFFCCF982F907609F034C19E89BA
:1042E0004F89588D2F89F88C911131C0803861F534
:1042F00080915A038093F1001092F1008EEF809329
:10430000E8006C960FB6F894DEBF0FBECDBFDF910C
:10431000CF91FF91EF91BF91AF919F918F917F913D
:104320006F915F914F913F912F911F910F91FF904E
:10433000EF90DF90CF900F900FBE0F901F901895C9
:104340009EEF9093E800C7CF1092F100D5CF913047
:1043500059F48111D3CF4130510581F680915A0330
:104360008D7F80935A03CACF933049F48111C6CF11
:104370004130510519F680915A038260F2CF953091
:1043800041F48091E80080FFFCCF20682093E30097
:10439000B5CF963009F0A9C00B8D1C8D22E010928C
:1043A000E9001092580310925703F2122EC0109297
:1043B0005603109255030E940D0C1F8299E09983B9
:1043C000FA8291E09E8390EA98879AEF99872091EC
:1043D000570330915803275F3F4F3C832B838D83D6
:1043E0001092E9001092580310925703109356034D
:1043F0000093550349E050E0BE016F5F7F4F80E0BE
:104400000E94E70B0E940D0C79CF10935603009386
:1044100055030E94240BDC0112960D911C9101158D
:10442000110509F451C1D801ED91FC910480F58189
:10443000E02DBE016B5E7F4FC8010995009709F022
:104440003EC1F80100851185EACFF3E0FF120EC0EE
:104450008F89882309F440C0823061F440E860E12C
:1044600088EB92E10E94B423811148CF81E28093CE
:10447000EB0047CF813029F440E86BE08CEA92E111
:10448000F1CF833099F70E94240BDC011296ED9056
:10449000FC908E010F5F1F4F6801E114F10479F069
:1044A000D701ED91FC910680F781E02DB801C7019D
:1044B0000995080F111DF701E084F184EECFD801B2
:1044C0001C92F60101900020E9F73197BF016C19A9
:1044D0007D0940E0C601C6CF66E972E1FB01449167
:1044E00050E080E80E94E70B09CF973009F4BECF77
:1044F000983021F481E08093F10000CF993009F0E9
:10450000FDCE837009F0B2CFE8E4F2E081E031E063
:1045100096E32191222371F08093E9003093EB0020
:10452000DF0111972C912093EC009093ED008F5FA9
:10453000873079F78EE78093EA001092EA008F893E
:1045400080936A03DBCE8B8D9C8D1092E9001092D4
:104550005803109257039093560380935503898D07
:10456000811192C08E899D89913A49F4813209F076
:104570007DCF47E050E06FE071E080E0B3CF913253
:1045800009F074CF833269F48F89988DB0E0A0E090
:1045900080930B0190930C01A0930D01B0930E0139
:1045A000ADCE803269F48091E80082FFFCCF67E0F5
:1045B0008FE091E00E943E0C8BEF8093E8009ECE4E
:1045C000823209F09BCE8F8980931601EEEFFFE7D0
:1045D000859194918B3F9C4D51F1E0E0F8E0809102
:1045E0000F0190911001A0911101B0911201803B37
:1045F0009440A105B105F1F48091160180FD1AC027
:10460000EE3F8AE0F80789F587E797E79183808393
:10461000809160008093590388E19BE00FB6F89485
:10462000A895809360000FBE9093600067CEEEEF78
:10463000FAE0D5CF808191818737974709F05ECE28
:10464000A8958091600088618093600080915903F3
:1046500080936000EE3F2AE0F20789F08091FE0A25
:104660009091FF0A9183808349CE80819181873721
:10467000980751F29093FF0A8093FE0AC5CF1092DB
:10468000FF0A1092FE0A3ACE0E94240BDC01129619
:104690000D911C910115110509F4E8CED801ED9199
:1046A000FC910190F081E02DBE016B5E7F4FC8014F
:1046B0000995811123CEF80100851185EBCF1816DD
:1046C00019060CF41BCED2CEF1E0FF12BECE6AE981
:1046D00072E104CF1F920F920FB60F9211242F9305
:1046E0003F938F939F93AF93BF9380914D0390918E
:1046F0004E03A0914F03B091500330914C0323E03F
:10470000230F2D3758F50196A11DB11D20934C03A1
:1047100080934D0390934E03A0934F03B0935003A7
:104720008091510390915203A0915303B09154038F
:104730000196A11DB11D8093510390935203A09344
:104740005303B0935403BF91AF919F918F913F91C9
:104750002F910F900FBE0F901F90189526E8230FF2
:104760000296A11DB11DD2CFEF92FF920F931F931E
:10477000CF93DF93F82E192FE62E042F81E0860FBA
:10478000880F0E94B90B83E00E94B90BCF2DD12F67
:10479000EC0EFD2EF11CCE15DF05B9F007FF13C09E
:1047A000FE0184910E94B90B182F80E00E94B90B82
:1047B000812321968111EFCFDF91CF911F910F912E
:1047C000FF90EF9008958881EDCF81E0F5CFECE682
:1047D000F3E01382128288EE93E0A0E0B0E08483DD
:1047E0009583A683B78382E592E0918380838FEFE0
:1047F0009FEF95878487ECEBF7E01382128284E6C3
:1048000092E0918380838CEB93E09683858380E8AC
:1048100090E09087878380E490E09287818785E0AD
:10482000848B81E0838B16861586108A1786148602
:10483000138681E090E0928B818B14820895CF9350
:10484000DF93CDB7DEB7A1970FB6F894DEBF0FBEEA
:10485000CDBF789484B5826084BD84B5816084BD09
:1048600085B5826085BD85B5816085BD80916E000E
:10487000816080936E00109281008091810082603F
:10488000809381008091810081608093810080917C
:10489000800081608093800080919100826080938D
:1048A00091008091910081608093910080919000AF
:1048B0008160809390008091C10084608093C100EA
:1048C0008091C10082608093C1008091C1008160AD
:1048D0008093C1008091C30081608093C300809168
:1048E000C00082608093C0008091C200816080938C
:1048F000C20080917A00846080937A0080917A006F
:10490000826080937A0080917A00816080937A003F
:1049100080917A00806880937A0010926A031092E6
:104920005A0310925C038091D70081608093D70076
:1049300080EA8093D80089B5806189BD89B582609D
:1049400089BD09B400FEFDCF61E070E080E090E039
:104950000E94700C8091D8008F7C80618093D80079
:104960008091E000807F8093E0008091E1008E7E66
:104970008093E1008DE08093E200559A209A0E9496
:104980006E1C84E180930101809164008E7F80938E
:10499000640080917A00806480937A0080917A002C
:1049A00086FDFCCF00917800109179000E944B0C9D
:1049B000AB01BC01C801B0E0A0E0DC019927882769
:1049C0008C019D01040F151F261F371FC901B80157
:1049D00020916400216020936400611571058105B8
:1049E000910511F00E945E368FB7F89440914D0307
:1049F00050914E0360914F03709150038FBFB09060
:104A0000AC02BB2049F01092AC0280E090E0892B10
:104A100059F30E940000E8CF8091AD02142F181BBB
:104A2000812F90910101191740F48F5F891768F762
:104A300081E083BF889513BEE8CF81E08093AC020C
:104A40004093AD020091ED021091EE020F5F1F4FF7
:104A50001093EE020093ED028B2DECEBF3E081114D
:104A60008FEF002481938193819381930394D1F7F5
:104A700080914B0380934A030E948E0E80934B03D8
:104A8000E0910A01EC3008F0A7C0F0E0E65BFA4DD7
:104A90000C941637A32E5625FA25AF2AD02B1C2CA2
:104AA000532E0B336F329033073403351092490382
:104AB00085E080930901EAEBF2E086E0819383834D
:104AC0008783838722E0EE3BF207C1F7B4EF6B2EBA
:104AD000B2E07B2E5301912C812C4424439413E0AB
:104AE000312E0EE0202E582CD5011D961C921D97BC
:104AF00019961C92199712968C911297882399F106
:104B00001D964C921D97882D632D0E94E0368130B2
:104B100009F465C08C918F31C9F4289CF001299C5F
:104B2000F00D1124EC50FD4FC080D180E280F38065
:104B30000481158126813781408551856285738581
:104B4000848595850E940C1EF5018383D5011496FA
:104B50001C928091BE028093BA028091C20280931F
:104B6000BE025092C202FFEF8F1A9F0A0EE0A00E03
:104B7000B11C16E08116910409F0B5CF1092CB025A
:104B800081E08093AE0285E080930301809304016D
:104B900082E080930A0180E0D30112969C911297E3
:104BA000992321F016969C91911107C08F5FBEE06A
:104BB0006B0E711C833081F786E08093CC021092DB
:104BC000B1021092D0021092B2021092B30210926F
:104BD000B00286E0809302010E94D80916CFF50149
:104BE0008483F401EE0FFF1FEE0FFF1FEB54FD4F08
:104BF0008082B9CF8091CB02813009F4D1C008F412
:104C0000B9C0823009F426C181E08983C80165E01A
:104C100070E00E94EE365C016AEB862E62E0962E12
:104C2000712C552453940EE077E0372E7401612CDB
:104C3000D7011C914090CC02141104C07092B702AD
:104C40006092B802BBEA1B9F812D1124869509F45E
:104C500011C1813009F430C18091CB02813009F457
:104C600044C208F44DC1823009F444C26394B4E0F4
:104C7000EB0EF11CE4E06E12DBCF7394FFEF8F1AA2
:104C80009F0A7E12D3CF34EFE32E32E0F32EB12C05
:104C9000D12C4BEA942E57E0A52E03E0D01202C08F
:104CA00023E0B22E8091CC0293E0C92E8D11C12C4D
:104CB000D70112968C911297882309F447C2B99CA8
:104CC000112D1124169501E016968C91811101C0C9
:104CD00000E0612F660F660F660FBA9C600D11240D
:104CE00026E04DE38C2D0E943119D701EC9182EC26
:104CF0009EE0E03238F4F0E0EE0FFF1FE95FFD4F79
:104D0000808191810E946E0E8C2D90E0C3969093CD
:104D1000CA078093C9079093C8078093C707B8E074
:104D20001B9FC0011124BA9C800D911D1124019676
:104D30009093CC078093CB078091B90290910201A8
:104D4000813009F0F6C18091B602823009F4F1C1D8
:104D500008F0D4C1882309F4ECC1813009F4D6C12C
:104D6000D70116968C911697882309F4E2C11D96F7
:104D70008C91D6C28091B902882379F0813009F0F4
:104D800043CFE091CC022EE0E29FF0011124EC50E1
:104D9000FD4F83810E94141737CF0E94681334CFD0
:104DA0008091B0028F5F8093B0028A3029F08091A9
:104DB000B202882309F428CF1092B0028091B90280
:104DC0008823D9F0813009F01FCF8093B302A091DE
:104DD000CC023EE0A39FD0011124AC50BD4F1496ED
:104DE0008C9314978091AF02882351F0813009F0A1
:104DF0000BCF87E00E94631507CF0E94BF1004CF3E
:104E00008091B8022091B70244E0849FC001112430
:104E100086549D4F820F911DFC012081E091B502C7
:104E20003091B40244E0E402F0011124E654FD4F55
:104E3000E30FF11D37FDFA95208326E0FC01208366
:104E4000809104011A969C91891B80930401109211
:104E5000B902DACE88E00E94960E882309F4D4CEF7
:104E60008091CA02813021F483E080930A01CCCE84
:104E700084E0FBCF80912003882329F080912403D4
:104E800081110C94943580912E03882329F0809110
:104E9000320381110C94943580913C03882329F0CE
:104EA0008091400381110C949435E2E0E093CB02B1
:104EB000F1E0F093CA02D0CE8091F602882329F067
:104EC0008091FA0281110C949A3580910403882311
:104ED00029F08091080381110C949A358091120376
:104EE000882329F08091160381110C949A3524E0CF
:104EF0002093B10232E03093CB021092CA02ACCEC2
:104F00008091B902813091F008F4F4C0823009F048
:104F1000ADCE109F900111242C503D4FAE014F5F3C
:104F20005F4F662D872D0E944214A0CEC12ED12C3A
:104F3000163048F40C9DF0010D9DF00D1124EC503D
:104F4000FD4F86818783109FC0011124AC014C5016
:104F50005D4F5E8F4D8FE091B5028091B40254E0B9
:104F6000E502F0011124E654FD4FE80FF11D87FD25
:104F7000FA9520808091B602873008F077CEE82F2E
:104F8000F0E0EB53F84D0C941637CC27E427532868
:104F90001528152834284D28262D472D6091B80254
:104FA0008091B7020E9487148130C9F5163008F449
:104FB0005DCEA114B10409F059CE88E0163009F095
:104FC00086E0D7018C9352CE262D472D6091B802F2
:104FD0008091B7020E9487148823A1F0813009F0E4
:104FE00045CE1630F0F5133008F440CE121125C02E
:104FF000409EC00111246D8D7E8D8C509D4F0E946E
:1050000015151BC08DEF810F833048F40C9DF00106
:105010000D9DF00D1124EC50FD4F558627CE163016
:1050200008F424CEF701308221CE9DEF910F93300A
:1050300098F41215E9F28430D9F2A114B10409F000
:1050400015CE0C9DF0010D9DF00D1124EC50FD4F7F
:105050008585852585870ACE1630C0F2833009F014
:1050600005CED7013C9202CE1330C8F40C9DF0015E
:105070000D9DF00D1124EC50FD4F368180853817C1
:1050800028F6282F269590E0230F3327331F821709
:1050900093070CF49C012783D0CF141571F21630BE
:1050A00008F0E4CDB3CF262D472D6091B802809152
:1050B000B7020E9487148823A1F0813009F0D6CD71
:1050C000163008F0AFCFA114B10409F0CFCD0C9D7C
:1050D000F0010D9DF00D1124EC50FD4F95858927B1
:1050E000B9CF163008F0BDCF91CF8091B902823090
:1050F00009F40FCFC7010E942614B8CD853009F4FA
:1051000005C18630B1F0833009F02ACEE091B502B6
:105110008091B40204E0E002F0011124E654FD4F56
:10512000E80FF11D87FDFA958081D7018D1509F4EF
:105130001ECE9D1509F4F6C0F70187810E942A1939
:10514000D70117968C910E94B419B394D394BEE002
:10515000EB0EF11CE6E0DE12A0CD8091CC022EE039
:10516000289FC00111248C509D4FFC01DE011F9629
:1051700001900D922A95E1F7DC0113962C9113977B
:105180001A963C901092CE071092CD07B8E02B9F54
:1051900090011124F901EC52F14FFE8FED8FD12CCB
:1051A000C12C10E0B5E34B2E512C0BE3802E912C3B
:1051B000A32CB12C3501F2E06F0E711C0FEFA01A79
:1051C000B00A8091B1028113B4C083E0E82EF12CC3
:1051D000B2016E197F0901E02BE04EE0C6010E948A
:1051E0006A10C60109969093CA078093C9079093E5
:1051F000C8078093C707C4018E199F099093CC07F5
:105200008093CB07123009F49EC0C601019667E374
:1052100070E06E197F09E12C08E0133009F4B8C082
:1052200028E0113009F487C044E15FE00E94A10E3C
:10523000832D0E94B4191F5F20E1C20ED11C1430CF
:1052400009F0BFCF01E026E040E165E180E00E9487
:1052500031198FE692E00E94A719809103010E9404
:10526000B41926E040E166E18DE20E9431198FE633
:1052700092E00E94A719809104010E94B4198091C4
:10528000CB02813009F088C08091B302811192C0B5
:105290008091B202882309F48DC001E026E045E147
:1052A00066E184E10E94311982E792E00E94A71929
:1052B000F0E58F2E912CB12CA12CAEE07A2E6A2C29
:1052C000A4014051510958A34F8FC4010C979E8FE0
:1052D0008D8FD501A654BD4F1D018501D12CC12C48
:1052E000B02FB619B9A3E02FE1704E2EEF8CF8A0C5
:1052F000E814F90409F46BC0242D40E1B601C7019C
:105300000E941B10FFEFEF1AFF0AF2CFF701868110
:105310002085821709F40DCF882309F40ACF8585EB
:10532000811107CF9D1111CF8CE692E00E94A71941
:105330000CCF80E04BCF4CE05FE00E94A10EC50196
:105340000E94BB1978CF8091CB02813031F082303E
:1053500081F48091CA0281110CC0E12C08E028E0A0
:1053600044E25FE067E370E0C60103960E94A10E8D
:1053700062CF67E370E06E197F09E12C08E028E056
:105380004D8D5E8DC60101960E94A10EC301D8CF3E
:105390002CE048EC5EE0EACF823029F48091CA022A
:1053A000882309F471CFEE24E39408E028E043E079
:1053B00051E106C0EE24E39408E028E04BEF50E111
:1053C00067E170E08CE190E00E94A10E71CFD10105
:1053D0008C91F80131962F01873009F472C008F0E2
:1053E00044C0863008F44DC0F090CB02F11008C0E4
:1053F0008091B902882309F474C0813009F478C01F
:10540000B4E02B0E311CE0E1CE0ED11C8201F0E4A1
:10541000CF16D10409F064CF0FEFA01AB00A10E143
:10542000810E911C24E0A216B10409F048CF32E0AD
:10543000F312D2CB8091CA02882309F47FC0813055
:1054400009F0CACB00E028E046E26CE18DE20E9460
:10545000311901E026E044E26DE18EE20E9431194B
:1054600087E792E00E94A719B7CB883009F0BCCF3C
:105470007F0101E0E022FF2408E028E04CE15FE04A
:1054800028C0482F50E0749EF001759EF00D112445
:10549000EC50FD4F9585992309F4A6CF21E0833088
:1054A00008F420E0749ED001759EB00D1124AC501C
:1054B000BD4F0481A6016F8D78A18C910E945E186A
:1054C00093CF7F01F1E0EF22FF2408E028E044E2DF
:1054D0005FE0B6016C5F7F4F8D8D9E8D0E94A10EA7
:1054E00083CF6091B8028091B7020E94EC1288CFFE
:1054F0008091B602853069F0863099F38430C9F422
:10550000D1018C918350833008F07ACF69A1862D28
:10551000ECCFD101EC91E33008F072CF7E9EF00128
:105520001124EC50FD4F96818085981708F068CFC4
:10553000EDCF6091B5028091B402D7CF00E028E0B2
:1055400041E26CE180E30E94311901E026E04FE185
:105550006DE181E30E9431198FE792E083CF809162
:10556000D002882309F484C0813009F4D0C074EFDC
:10557000E72E72E0F72EB12CA12C88248394912C75
:105580007A2CD70115961C91193008F0E8C0110F3C
:105590001150F7018281882309F45EC000E020E009
:1055A000650164E0CC0CDD1C6A95E1F7A60170E0B2
:1055B00060E080810E945E189092CE078092CD07B5
:1055C00020E130E03093CA072093C9073093C80721
:1055D0002093C707D092CC07C092CB0786E892E011
:1055E0000E94A719D70115968C910E94B419E0E189
:1055F000F0E0F093CA07E093C907F093C807E0937F
:10560000C707F5E0CF0ED11CD092CC07C092CB07D4
:1056100089E892E00E94A719D7011C968C910E94FC
:105620002A19F70184850E94B4198CE892E00E943F
:10563000A719812F0E942A19812F0E94B419D7011E
:1056400016968C91882341F08091D002882309F42A
:1056500088C0813009F498C0FFEFAF1ABF0A0EE08E
:10566000E00EF11C13E0A116B10409F089CFB4CA11
:1056700084E00E94960E811106C088E00E94960E7A
:10568000882309F474CF04EF12E0F12CE12CD80147
:1056900012968C911297882359F116968C91169731
:1056A000882331F11596DC90B8E0BD1508F18E2DF8
:1056B0000E948B12F8019485890F84872D2D220F6B
:1056C0002150821710F191E09D0D9583821B993036
:1056D00009F48FE0D8011C968C93C8010E946B1EC0
:1056E000F8018085868381E0F701E353FD4F8083D5
:1056F000FFEFEF1AFF0A025F1F4F23E0E216F104EB
:1057000031F681E08093D00232CF80E0EDCF84E0AB
:105710000E94960E811106C088E00E94960E882392
:1057200009F425CF1092CD021092CE021092CF0232
:105730008091E9029091EA0280389C4021F48BE04C
:1057400080930A0114CF8091D102882331F0809197
:105750002403811102C088E0F3CF85E0F1CF1FE080
:1057600018CF8EE892E00E94A719F7018581893051
:1057700030F4872D0E948B120E94B4196DCF8CE2F9
:105780009FE00E946E0E68CFF501E353FD4F8081CC
:10579000882309F461CF81E992E00E94A7195CCFC8
:1057A0000E9471201092E70281E08093E8028091CC
:1057B000480381113CC08091E9029091EA0220E9FE
:1057C00031E0B9010E94EE36629FC001639F900DE7
:1057D000729F900D11249093EA028093E902209128
:1057E0000801213031F4805991409093EA0280936E
:1057F000E9028091E9029091EA02803921E0920762
:1058000090F021E02093E7028059914060E971E037
:105810000E94EE3661706093080188E08093E50293
:105820008FE08093E60285E080930A01D5C910924B
:10583000EA021092E902F7CF80910901883008F05E
:1058400063C1E82FF0E0E95DF34D0C941637772D36
:105850007D2C7D2C7D2C8B2C2F2C9B2C862D8091B0
:10586000E8028F5F8093E8021091E7028A3081F4AA
:105870000E94AA1211110E94C3121092E802809194
:10588000E9029091EA0201969093EA028093E9027C
:10589000113041F11092E60285E0809308010E94E8
:1058A0008E1D8091E602803121F480910801809361
:1058B000090188E00E94960E882331F081E08093F0
:1058C000EF0287E080930A0184E00E94960E88230D
:1058D000E1F186E0809309011092EF0287E0809366
:1058E0000A0133C08091E602803E24F0815080930B
:1058F000E602D7CF1092E702D4CF823049F481E09C
:105900008093D1020E94E41E87E0809309011DC0AC
:105910001092D102F7CF8091E402893060F4909127
:10592000E702992341F08F5F8093E40285E0809342
:1059300008011092E70284E00E94960E8111E4C0F3
:1059400088E00E94960E8111DFC080E00E94850FE2
:105950008091E70281110E949218B12CA12C10E0D5
:1059600050E8852E912C8091E9029091EA029C01E9
:105970002F713327F401E21BF30BEA19FB096C01C9
:1059800045E0D694C7944A95E1F7C10E3C2D31709D
:10599000C32EA501405E5F4F5A0160E0803A910539
:1059A00030F0841B950B60E273E00E94EE3680E2DB
:1059B000689FA0011124425D504FEE24E39408E05B
:1059C00020E270E060E0CF010E94E8091F5F15301F
:1059D00051F610E000E041E068E270E0C8010E948A
:1059E000B00F0F5F1F4F01381105A9F701E025E146
:1059F00040E86AE280E00E9431198BE290E10E9467
:105A00006E0E81E090E09093CA078093C90790934F
:105A1000C8078093C70780E390E09093CC078093FA
:105A2000CB0713E0EE24E394F12C0AE0D7010A9FA0
:105A300070010B9FF00C11248091E9029091EA0211
:105A40008E159F0520F489E290E10E946E0E1150A0
:105A500069F76091E9027091EA0290E080E04AE023
:105A60000E94591980E290E10E946E0E01E010E060
:105A70001093CA070093C9071093C8070093C7077C
:105A800085E390E09093CC078093CB078FE090E183
:105A90000E946E0E1093CA070093C9071093C8079F
:105AA0000093C7078AE390E09093CC078093CB07DD
:105AB0008091E9029091EA0200E911E0B8010E94A8
:105AC000EE36081B190B83E090E160FD02C089E00F
:105AD00090E10E946E0E0A30110558F581E090E1C8
